{
  "address": "0xe60512D5C0BfbfBe77fdB115B98b7179CDA27d0a",
  "abi": [
    {
      "inputs": [
        {
          "internalType": "string",
          "name": "_name",
          "type": "string"
        },
        {
          "internalType": "string",
          "name": "_symbol",
          "type": "string"
        },
        {
          "internalType": "contract PNS",
          "name": "_pns",
          "type": "address"
        },
        {
          "internalType": "bytes32",
          "name": "_baseNode",
          "type": "bytes32"
        },
        {
          "internalType": "string",
          "name": "_baseName",
          "type": "string"
        }
      ],
      "stateMutability": "nonpayable",
      "type": "constructor"
    },
    {
      "anonymous": false,
      "inputs": [
        {
          "indexed": true,
          "internalType": "address",
          "name": "owner",
          "type": "address"
        },
        {
          "indexed": true,
          "internalType": "address",
          "name": "approved",
          "type": "address"
        },
        {
          "indexed": true,
          "internalType": "uint256",
          "name": "tokenId",
          "type": "uint256"
        }
      ],
      "name": "Approval",
      "type": "event"
    },
    {
      "anonymous": false,
      "inputs": [
        {
          "indexed": true,
          "internalType": "address",
          "name": "owner",
          "type": "address"
        },
        {
          "indexed": true,
          "internalType": "address",
          "name": "operator",
          "type": "address"
        },
        {
          "indexed": false,
          "internalType": "bool",
          "name": "approved",
          "type": "bool"
        }
      ],
      "name": "ApprovalForAll",
      "type": "event"
    },
    {
      "anonymous": false,
      "inputs": [
        {
          "indexed": true,
          "internalType": "address",
          "name": "controller",
          "type": "address"
        }
      ],
      "name": "ControllerAdded",
      "type": "event"
    },
    {
      "anonymous": false,
      "inputs": [
        {
          "indexed": true,
          "internalType": "address",
          "name": "controller",
          "type": "address"
        }
      ],
      "name": "ControllerRemoved",
      "type": "event"
    },
    {
      "anonymous": false,
      "inputs": [
        {
          "indexed": true,
          "internalType": "uint256",
          "name": "id",
          "type": "uint256"
        },
        {
          "indexed": true,
          "internalType": "address",
          "name": "owner",
          "type": "address"
        },
        {
          "indexed": false,
          "internalType": "uint256",
          "name": "expires",
          "type": "uint256"
        }
      ],
      "name": "NameMigrated",
      "type": "event"
    },
    {
      "anonymous": false,
      "inputs": [
        {
          "indexed": true,
          "internalType": "uint256",
          "name": "id",
          "type": "uint256"
        },
        {
          "indexed": true,
          "internalType": "address",
          "name": "owner",
          "type": "address"
        },
        {
          "indexed": false,
          "internalType": "uint256",
          "name": "expires",
          "type": "uint256"
        }
      ],
      "name": "NameRegistered",
      "type": "event"
    },
    {
      "anonymous": false,
      "inputs": [
        {
          "indexed": true,
          "internalType": "uint256",
          "name": "id",
          "type": "uint256"
        },
        {
          "indexed": false,
          "internalType": "uint256",
          "name": "expires",
          "type": "uint256"
        }
      ],
      "name": "NameRenewed",
      "type": "event"
    },
    {
      "anonymous": false,
      "inputs": [
        {
          "indexed": true,
          "internalType": "address",
          "name": "previousOwner",
          "type": "address"
        },
        {
          "indexed": true,
          "internalType": "address",
          "name": "newOwner",
          "type": "address"
        }
      ],
      "name": "OwnershipTransferred",
      "type": "event"
    },
    {
      "anonymous": false,
      "inputs": [
        {
          "indexed": true,
          "internalType": "address",
          "name": "from",
          "type": "address"
        },
        {
          "indexed": true,
          "internalType": "address",
          "name": "to",
          "type": "address"
        },
        {
          "indexed": true,
          "internalType": "uint256",
          "name": "tokenId",
          "type": "uint256"
        }
      ],
      "name": "Transfer",
      "type": "event"
    },
    {
      "inputs": [],
      "name": "GRACE_PERIOD",
      "outputs": [
        {
          "internalType": "uint256",
          "name": "",
          "type": "uint256"
        }
      ],
      "stateMutability": "view",
      "type": "function"
    },
    {
      "inputs": [
        {
          "internalType": "address",
          "name": "controller",
          "type": "address"
        }
      ],
      "name": "addController",
      "outputs": [],
      "stateMutability": "nonpayable",
      "type": "function"
    },
    {
      "inputs": [
        {
          "internalType": "address",
          "name": "to",
          "type": "address"
        },
        {
          "internalType": "uint256",
          "name": "tokenId",
          "type": "uint256"
        }
      ],
      "name": "approve",
      "outputs": [],
      "stateMutability": "nonpayable",
      "type": "function"
    },
    {
      "inputs": [
        {
          "internalType": "uint256",
          "name": "id",
          "type": "uint256"
        }
      ],
      "name": "available",
      "outputs": [
        {
          "internalType": "bool",
          "name": "",
          "type": "bool"
        }
      ],
      "stateMutability": "view",
      "type": "function"
    },
    {
      "inputs": [
        {
          "internalType": "address",
          "name": "owner",
          "type": "address"
        }
      ],
      "name": "balanceOf",
      "outputs": [
        {
          "internalType": "uint256",
          "name": "",
          "type": "uint256"
        }
      ],
      "stateMutability": "view",
      "type": "function"
    },
    {
      "inputs": [],
      "name": "baseName",
      "outputs": [
        {
          "internalType": "string",
          "name": "",
          "type": "string"
        }
      ],
      "stateMutability": "view",
      "type": "function"
    },
    {
      "inputs": [],
      "name": "baseNode",
      "outputs": [
        {
          "internalType": "bytes32",
          "name": "",
          "type": "bytes32"
        }
      ],
      "stateMutability": "view",
      "type": "function"
    },
    {
      "inputs": [],
      "name": "baseUri",
      "outputs": [
        {
          "internalType": "string",
          "name": "",
          "type": "string"
        }
      ],
      "stateMutability": "view",
      "type": "function"
    },
    {
      "inputs": [
        {
          "internalType": "address",
          "name": "",
          "type": "address"
        }
      ],
      "name": "controllers",
      "outputs": [
        {
          "internalType": "bool",
          "name": "",
          "type": "bool"
        }
      ],
      "stateMutability": "view",
      "type": "function"
    },
    {
      "inputs": [
        {
          "internalType": "uint256",
          "name": "tokenId",
          "type": "uint256"
        }
      ],
      "name": "getApproved",
      "outputs": [
        {
          "internalType": "address",
          "name": "",
          "type": "address"
        }
      ],
      "stateMutability": "view",
      "type": "function"
    },
    {
      "inputs": [
        {
          "internalType": "uint256",
          "name": "tokenId",
          "type": "uint256"
        }
      ],
      "name": "getName",
      "outputs": [
        {
          "internalType": "string",
          "name": "",
          "type": "string"
        }
      ],
      "stateMutability": "view",
      "type": "function"
    },
    {
      "inputs": [
        {
          "internalType": "address",
          "name": "owner",
          "type": "address"
        },
        {
          "internalType": "address",
          "name": "operator",
          "type": "address"
        }
      ],
      "name": "isApprovedForAll",
      "outputs": [
        {
          "internalType": "bool",
          "name": "",
          "type": "bool"
        }
      ],
      "stateMutability": "view",
      "type": "function"
    },
    {
      "inputs": [],
      "name": "name",
      "outputs": [
        {
          "internalType": "string",
          "name": "",
          "type": "string"
        }
      ],
      "stateMutability": "view",
      "type": "function"
    },
    {
      "inputs": [
        {
          "internalType": "uint256",
          "name": "id",
          "type": "uint256"
        }
      ],
      "name": "nameExpires",
      "outputs": [
        {
          "internalType": "uint256",
          "name": "",
          "type": "uint256"
        }
      ],
      "stateMutability": "view",
      "type": "function"
    },
    {
      "inputs": [],
      "name": "owner",
      "outputs": [
        {
          "internalType": "address",
          "name": "",
          "type": "address"
        }
      ],
      "stateMutability": "view",
      "type": "function"
    },
    {
      "inputs": [
        {
          "internalType": "uint256",
          "name": "tokenId",
          "type": "uint256"
        }
      ],
      "name": "ownerOf",
      "outputs": [
        {
          "internalType": "address",
          "name": "",
          "type": "address"
        }
      ],
      "stateMutability": "view",
      "type": "function"
    },
    {
      "inputs": [],
      "name": "pns",
      "outputs": [
        {
          "internalType": "contract PNS",
          "name": "",
          "type": "address"
        }
      ],
      "stateMutability": "view",
      "type": "function"
    },
    {
      "inputs": [
        {
          "internalType": "uint256",
          "name": "id",
          "type": "uint256"
        },
        {
          "internalType": "address",
          "name": "owner",
          "type": "address"
        }
      ],
      "name": "reclaim",
      "outputs": [],
      "stateMutability": "nonpayable",
      "type": "function"
    },
    {
      "inputs": [
        {
          "internalType": "uint256",
          "name": "id",
          "type": "uint256"
        },
        {
          "internalType": "address",
          "name": "owner",
          "type": "address"
        },
        {
          "internalType": "uint256",
          "name": "duration",
          "type": "uint256"
        }
      ],
      "name": "register",
      "outputs": [
        {
          "internalType": "uint256",
          "name": "",
          "type": "uint256"
        }
      ],
      "stateMutability": "nonpayable",
      "type": "function"
    },
    {
      "inputs": [
        {
          "internalType": "uint256",
          "name": "id",
          "type": "uint256"
        },
        {
          "internalType": "address",
          "name": "owner",
          "type": "address"
        },
        {
          "internalType": "uint256",
          "name": "duration",
          "type": "uint256"
        }
      ],
      "name": "registerOnly",
      "outputs": [
        {
          "internalType": "uint256",
          "name": "",
          "type": "uint256"
        }
      ],
      "stateMutability": "nonpayable",
      "type": "function"
    },
    {
      "inputs": [
        {
          "internalType": "address",
          "name": "controller",
          "type": "address"
        }
      ],
      "name": "removeController",
      "outputs": [],
      "stateMutability": "nonpayable",
      "type": "function"
    },
    {
      "inputs": [
        {
          "internalType": "uint256",
          "name": "id",
          "type": "uint256"
        },
        {
          "internalType": "uint256",
          "name": "duration",
          "type": "uint256"
        }
      ],
      "name": "renew",
      "outputs": [
        {
          "internalType": "uint256",
          "name": "",
          "type": "uint256"
        }
      ],
      "stateMutability": "nonpayable",
      "type": "function"
    },
    {
      "inputs": [],
      "name": "renounceOwnership",
      "outputs": [],
      "stateMutability": "nonpayable",
      "type": "function"
    },
    {
      "inputs": [
        {
          "internalType": "address",
          "name": "from",
          "type": "address"
        },
        {
          "internalType": "address",
          "name": "to",
          "type": "address"
        },
        {
          "internalType": "uint256",
          "name": "tokenId",
          "type": "uint256"
        }
      ],
      "name": "safeTransferFrom",
      "outputs": [],
      "stateMutability": "nonpayable",
      "type": "function"
    },
    {
      "inputs": [
        {
          "internalType": "address",
          "name": "from",
          "type": "address"
        },
        {
          "internalType": "address",
          "name": "to",
          "type": "address"
        },
        {
          "internalType": "uint256",
          "name": "tokenId",
          "type": "uint256"
        },
        {
          "internalType": "bytes",
          "name": "_data",
          "type": "bytes"
        }
      ],
      "name": "safeTransferFrom",
      "outputs": [],
      "stateMutability": "nonpayable",
      "type": "function"
    },
    {
      "inputs": [
        {
          "internalType": "address",
          "name": "operator",
          "type": "address"
        },
        {
          "internalType": "bool",
          "name": "approved",
          "type": "bool"
        }
      ],
      "name": "setApprovalForAll",
      "outputs": [],
      "stateMutability": "nonpayable",
      "type": "function"
    },
    {
      "inputs": [
        {
          "internalType": "address",
          "name": "resolver",
          "type": "address"
        }
      ],
      "name": "setResolver",
      "outputs": [],
      "stateMutability": "nonpayable",
      "type": "function"
    },
    {
      "inputs": [
        {
          "internalType": "string",
          "name": "newURI",
          "type": "string"
        }
      ],
      "name": "setURI",
      "outputs": [],
      "stateMutability": "nonpayable",
      "type": "function"
    },
    {
      "inputs": [
        {
          "internalType": "bytes4",
          "name": "interfaceID",
          "type": "bytes4"
        }
      ],
      "name": "supportsInterface",
      "outputs": [
        {
          "internalType": "bool",
          "name": "",
          "type": "bool"
        }
      ],
      "stateMutability": "view",
      "type": "function"
    },
    {
      "inputs": [],
      "name": "symbol",
      "outputs": [
        {
          "internalType": "string",
          "name": "",
          "type": "string"
        }
      ],
      "stateMutability": "view",
      "type": "function"
    },
    {
      "inputs": [
        {
          "internalType": "uint256",
          "name": "index",
          "type": "uint256"
        }
      ],
      "name": "tokenByIndex",
      "outputs": [
        {
          "internalType": "uint256",
          "name": "",
          "type": "uint256"
        }
      ],
      "stateMutability": "view",
      "type": "function"
    },
    {
      "inputs": [
        {
          "internalType": "address",
          "name": "owner",
          "type": "address"
        },
        {
          "internalType": "uint256",
          "name": "index",
          "type": "uint256"
        }
      ],
      "name": "tokenOfOwnerByIndex",
      "outputs": [
        {
          "internalType": "uint256",
          "name": "",
          "type": "uint256"
        }
      ],
      "stateMutability": "view",
      "type": "function"
    },
    {
      "inputs": [
        {
          "internalType": "uint256",
          "name": "tokenId",
          "type": "uint256"
        }
      ],
      "name": "tokenURI",
      "outputs": [
        {
          "internalType": "string",
          "name": "",
          "type": "string"
        }
      ],
      "stateMutability": "view",
      "type": "function"
    },
    {
      "inputs": [],
      "name": "totalSupply",
      "outputs": [
        {
          "internalType": "uint256",
          "name": "",
          "type": "uint256"
        }
      ],
      "stateMutability": "view",
      "type": "function"
    },
    {
      "inputs": [
        {
          "internalType": "address",
          "name": "from",
          "type": "address"
        },
        {
          "internalType": "address",
          "name": "to",
          "type": "address"
        },
        {
          "internalType": "uint256",
          "name": "tokenId",
          "type": "uint256"
        }
      ],
      "name": "transferFrom",
      "outputs": [],
      "stateMutability": "nonpayable",
      "type": "function"
    },
    {
      "inputs": [
        {
          "internalType": "address",
          "name": "newOwner",
          "type": "address"
        }
      ],
      "name": "transferOwnership",
      "outputs": [],
      "stateMutability": "nonpayable",
      "type": "function"
    }
  ],
  "transactionHash": "0x4ba37878a0eba08c6a2f560386bf6477bb74deb3c21aa3549c0c145b207ffe49",
  "args": [
    "Pop Name Service",
    "PNS",
    "0x565bFaC857b0a3F94E137Cafc1F422D8361F6498",
    "0x31712e8704e38b18f0689bccb4453e6f517d72e263f5dbf3511c6d361dc70468",
    "pop"
  ],
  "solcInputHash": "b308551d73fa153f068aef8bde2e1033",
  "bytecode": "0x60806040523480156200001157600080fd5b5060405162003268380380620032688339810160408190526200003491620001b0565b848462000041336200009b565b60016200004f8382620002fc565b5060026200005e8282620002fc565b5050600b80546001600160a01b0319166001600160a01b03861617905550600c82905560106200008f8282620002fc565b505050505050620003c8565b600080546001600160a01b038381166001600160a01b0319831681178455604051919092169283917f8be0079c531659141344cd1fd0a4f28419497f9722a3daafe3b4186f6b6457e09190a35050565b634e487b7160e01b600052604160045260246000fd5b600082601f8301126200011357600080fd5b81516001600160401b0380821115620001305762000130620000eb565b604051601f8301601f19908116603f011681019082821181831017156200015b576200015b620000eb565b816040528381526020925086838588010111156200017857600080fd5b600091505b838210156200019c57858201830151818301840152908201906200017d565b600093810190920192909252949350505050565b600080600080600060a08688031215620001c957600080fd5b85516001600160401b0380821115620001e157600080fd5b620001ef89838a0162000101565b965060208801519150808211156200020657600080fd5b6200021489838a0162000101565b604089015190965091506001600160a01b03821682146200023457600080fd5b606088015160808901519295509350808211156200025157600080fd5b50620002608882890162000101565b9150509295509295909350565b600181811c908216806200028257607f821691505b602082108103620002a357634e487b7160e01b600052602260045260246000fd5b50919050565b601f821115620002f757600081815260208120601f850160051c81016020861015620002d25750805b601f850160051c820191505b81811015620002f357828155600101620002de565b5050505b505050565b81516001600160401b03811115620003185762000318620000eb565b62000330816200032984546200026d565b84620002a9565b602080601f8311600181146200036857600084156200034f5750858301515b600019600386901b1c1916600185901b178555620002f3565b600085815260208120601f198616915b82811015620003995788860151825594840194600190910190840162000378565b5085821015620003b85787850151600019600388901b60f8161c191681555b5050505050600190811b01905550565b612e9080620003d86000396000f3fe608060405234801561001057600080fd5b506004361061025c5760003560e01c8063715018a611610145578063c475abff116100bd578063ddf7fcb01161008c578063f2fde38b11610071578063f2fde38b1461050d578063f6a74ed714610520578063fca247ac1461053357600080fd5b8063ddf7fcb0146104c8578063e985e9c5146104d157600080fd5b8063c475abff1461045f578063c87b56dd14610472578063d6e4fa8614610485578063da8c229e146104a557600080fd5b80639abc832011610114578063a7fc7a07116100f9578063a7fc7a071461042f578063b88d4fde14610442578063c1a287e21461045557600080fd5b80639abc832014610414578063a22cb4651461041c57600080fd5b8063715018a6146103e05780638da5cb5b146103e857806395d89b41146103f957806396e494e81461040157600080fd5b806328ed4f6c116101d85780634e543b26116101a75780636352211e1161018c5780636352211e146103a75780636b8ff574146103ba57806370a08231146103cd57600080fd5b80634e543b26146103815780634f6ccce71461039457600080fd5b806328ed4f6c146103355780632f745c591461034857806342842e0e1461035b5780634c15414c1461036e57600080fd5b8063095ea7b31161022f5780631503063311610214578063150306331461031257806318160ddd1461031a57806323b872dd1461032257600080fd5b8063095ea7b3146102de5780630e297b45146102f157600080fd5b806301ffc9a71461026157806302fe53051461028957806306fdde031461029e578063081812fc146102b3575b600080fd5b61027461026f3660046126b8565b610546565b60405190151581526020015b60405180910390f35b61029c61029736600461279b565b61062b565b005b6102a6610643565b6040516102809190612834565b6102c66102c1366004612847565b6106d5565b6040516001600160a01b039091168152602001610280565b61029c6102ec366004612875565b6106fc565b6103046102ff3660046128a1565b610832565b604051908152602001610280565b6102a6610849565b600954610304565b61029c6103303660046128d9565b6108d7565b61029c610343366004612909565b610a5e565b610304610356366004612875565b610ba9565b61029c6103693660046128d9565b610c51565b600b546102c6906001600160a01b031681565b61029c61038f366004612939565b610c6c565b6103046103a2366004612847565b610cfa565b6102c66103b5366004612847565b610d9e565b6102a66103c8366004612847565b610dc1565b6103046103db366004612939565b610f73565b61029c61100d565b6000546001600160a01b03166102c6565b6102a6611021565b61027461040f366004612847565b611030565b6102a6611056565b61029c61042a366004612956565b611063565b61029c61043d366004612939565b61106e565b61029c610450366004612989565b6110e0565b6103046276a70081565b61030461046d366004612a09565b611262565b6102a6610480366004612847565b61144f565b610304610493366004612847565b6000908152600e602052604090205490565b6102746104b3366004612939565b600d6020526000908152604090205460ff1681565b610304600c5481565b6102746104df366004612a2b565b6001600160a01b03918216600090815260066020908152604080832093909416825291909152205460ff1690565b61029c61051b366004612939565b6115bb565b61029c61052e366004612939565b61164b565b6103046105413660046128a1565b6116ba565b60007fffffffff0000000000000000000000000000000000000000000000000000000082167f01ffc9a70000000000000000000000000000000000000000000000000000000014806105d957507fffffffff0000000000000000000000000000000000000000000000000000000082167f80ac58cd00000000000000000000000000000000000000000000000000000000145b8061062557507fffffffff0000000000000000000000000000000000000000000000000000000082167f28ed4f6c00000000000000000000000000000000000000000000000000000000145b92915050565b6106336116c9565b600f61063f8282612afa565b5050565b60606001805461065290612a59565b80601f016020809104026020016040519081016040528092919081815260200182805461067e90612a59565b80156106cb5780601f106106a0576101008083540402835291602001916106cb565b820191906000526020600020905b8154815290600101906020018083116106ae57829003601f168201915b5050505050905090565b60006106e082611723565b506000908152600560205260409020546001600160a01b031690565b600061070782611787565b9050806001600160a01b0316836001600160a01b0316036107955760405162461bcd60e51b815260206004820152602160248201527f4552433732313a20617070726f76616c20746f2063757272656e74206f776e6560448201527f720000000000000000000000000000000000000000000000000000000000000060648201526084015b60405180910390fd5b336001600160a01b03821614806107b157506107b181336104df565b6108235760405162461bcd60e51b815260206004820152603e60248201527f4552433732313a20617070726f76652063616c6c6572206973206e6f7420746f60448201527f6b656e206f776e6572206e6f7220617070726f76656420666f7220616c6c0000606482015260840161078c565b61082d83836117ec565b505050565b60006108418484846000611872565b949350505050565b6010805461085690612a59565b80601f016020809104026020016040519081016040528092919081815260200182805461088290612a59565b80156108cf5780601f106108a4576101008083540402835291602001916108cf565b820191906000526020600020905b8154815290600101906020018083116108b257829003601f168201915b505050505081565b336000908152600d602052604090205460ff166109365760405162461bcd60e51b815260206004820181905260248201527f4552433732313a2063616c6c6572206973206e6f7420436f6e74726f6c6c6572604482015260640161078c565b6109403382611af7565b6109b25760405162461bcd60e51b815260206004820152602760248201527f4552433732313a2063616c6c6572206973206e6f7420617070726f766564206f60448201527f72206f776e657200000000000000000000000000000000000000000000000000606482015260840161078c565b6109bd838383611b72565b600b54600c546040517f06ab59230000000000000000000000000000000000000000000000000000000081526004810191909152602481018390526001600160a01b038481166044830152909116906306ab5923906064016020604051808303816000875af1158015610a34573d6000803e3d6000fd5b505050506040513d601f19601f82011682018060405250810190610a589190612bf6565b50505050565b600b54600c546040517f02571be3000000000000000000000000000000000000000000000000000000008152600481019190915230916001600160a01b0316906302571be390602401602060405180830381865afa158015610ac4573d6000803e3d6000fd5b505050506040513d601f19601f82011682018060405250810190610ae89190612c0f565b6001600160a01b031614610afb57600080fd5b610b053383611af7565b610b0e57600080fd5b600b54600c546040517f06ab59230000000000000000000000000000000000000000000000000000000081526004810191909152602481018490526001600160a01b038381166044830152909116906306ab5923906064016020604051808303816000875af1158015610b85573d6000803e3d6000fd5b505050506040513d601f19601f8201168201806040525081019061082d9190612bf6565b6000610bb483610f73565b8210610c285760405162461bcd60e51b815260206004820152602b60248201527f455243373231456e756d657261626c653a206f776e657220696e646578206f7560448201527f74206f6620626f756e6473000000000000000000000000000000000000000000606482015260840161078c565b506001600160a01b03919091166000908152600760209081526040808320938352929052205490565b61082d838383604051806020016040528060008152506110e0565b610c746116c9565b600b54600c546040517f1896f70a00000000000000000000000000000000000000000000000000000000815260048101919091526001600160a01b03838116602483015290911690631896f70a90604401600060405180830381600087803b158015610cdf57600080fd5b505af1158015610cf3573d6000803e3d6000fd5b5050505050565b6000610d0560095490565b8210610d795760405162461bcd60e51b815260206004820152602c60248201527f455243373231456e756d657261626c653a20676c6f62616c20696e646578206f60448201527f7574206f6620626f756e64730000000000000000000000000000000000000000606482015260840161078c565b60098281548110610d8c57610d8c612c2c565b90600052602060002001549050919050565b6000818152600e60205260408120544210610db857600080fd5b61062582611787565b600c546040516060918391600091610de6918490602001918252602082015260400190565b60408051808303601f19018152908290528051602090910120600b547f0178b8bf000000000000000000000000000000000000000000000000000000008352600483018290529092506000916001600160a01b0390911690630178b8bf90602401602060405180830381865afa158015610e64573d6000803e3d6000fd5b505050506040513d601f19601f82011682018060405250810190610e889190612c0f565b90506001600160a01b038116610ee05760405162461bcd60e51b815260206004820152601260248201527f7265736f6c766572206e6f7420666f756e640000000000000000000000000000604482015260640161078c565b6040517f691f3431000000000000000000000000000000000000000000000000000000008152600481018390526000906001600160a01b0383169063691f343190602401600060405180830381865afa158015610f41573d6000803e3d6000fd5b505050506040513d6000823e601f3d908101601f19168201604052610f699190810190612c5b565b9695505050505050565b60006001600160a01b038216610ff15760405162461bcd60e51b815260206004820152602960248201527f4552433732313a2061646472657373207a65726f206973206e6f74206120766160448201527f6c6964206f776e65720000000000000000000000000000000000000000000000606482015260840161078c565b506001600160a01b031660009081526004602052604090205490565b6110156116c9565b61101f6000611d62565b565b60606002805461065290612a59565b6000818152600e6020526040812054429061104f906276a70090612cf8565b1092915050565b600f805461085690612a59565b61063f338383611dca565b6110766116c9565b6001600160a01b0381166000818152600d602052604080822080547fffffffffffffffffffffffffffffffffffffffffffffffffffffffffffffff00166001179055517f0a8bb31534c0ed46f380cb867bd5c803a189ced9a764e30b3a4991a9901d74749190a250565b336000908152600d602052604090205460ff1661113f5760405162461bcd60e51b815260206004820181905260248201527f4552433732313a2063616c6c6572206973206e6f7420436f6e74726f6c6c6572604482015260640161078c565b6111493383611af7565b6111bb5760405162461bcd60e51b815260206004820152602760248201527f4552433732313a2063616c6c6572206973206e6f7420617070726f766564206f60448201527f72206f776e657200000000000000000000000000000000000000000000000000606482015260840161078c565b6111c784848484611eb6565b600b54600c546040517f06ab59230000000000000000000000000000000000000000000000000000000081526004810191909152602481018490526001600160a01b038581166044830152909116906306ab5923906064016020604051808303816000875af115801561123e573d6000803e3d6000fd5b505050506040513d601f19601f82011682018060405250810190610cf39190612bf6565b600b54600c546040517f02571be3000000000000000000000000000000000000000000000000000000008152600481019190915260009130916001600160a01b03909116906302571be390602401602060405180830381865afa1580156112cd573d6000803e3d6000fd5b505050506040513d601f19601f820116820180604052508101906112f19190612c0f565b6001600160a01b03161461130457600080fd5b336000908152600d602052604090205460ff166113635760405162461bcd60e51b815260206004820181905260248201527f4552433732313a2063616c6c6572206973206e6f7420436f6e74726f6c6c6572604482015260640161078c565b6000838152600e60205260409020544290611382906276a70090612cf8565b101561138d57600080fd5b61139a6276a70083612cf8565b6000848152600e60205260409020546276a700906113b9908590612cf8565b6113c39190612cf8565b116113cd57600080fd5b6000838152600e6020526040812080548492906113eb908490612cf8565b90915550506000838152600e60205260409081902054905184917f9b87a00e30f1ac65d898f070f8a3488fe60517182d0a2098e1b4b93a54aa9bd69161143391815260200190565b60405180910390a250506000908152600e602052604090205490565b6000818152600360205260409020546060906001600160a01b03166114dc5760405162461bcd60e51b815260206004820152602f60248201527f4552433732314d657461646174613a2055524920717565727920666f72206e6f60448201527f6e6578697374656e7420746f6b656e0000000000000000000000000000000000606482015260840161078c565b6000600f80546114eb90612a59565b80601f016020809104026020016040519081016040528092919081815260200182805461151790612a59565b80156115645780601f1061153957610100808354040283529160200191611564565b820191906000526020600020905b81548152906001019060200180831161154757829003601f168201915b50505050509050600081511161158957604051806020016040528060008152506115b4565b8061159384611f3f565b6040516020016115a4929190612d0b565b6040516020818303038152906040525b9392505050565b6115c36116c9565b6001600160a01b03811661163f5760405162461bcd60e51b815260206004820152602660248201527f4f776e61626c653a206e6577206f776e657220697320746865207a65726f206160448201527f6464726573730000000000000000000000000000000000000000000000000000606482015260840161078c565b61164881611d62565b50565b6116536116c9565b6001600160a01b0381166000818152600d602052604080822080547fffffffffffffffffffffffffffffffffffffffffffffffffffffffffffffff00169055517f33d83959be2573f5453b12eb9d43b3499bc57d96bd2f067ba44803c859e811139190a250565b60006108418484846001611872565b6000546001600160a01b0316331461101f5760405162461bcd60e51b815260206004820181905260248201527f4f776e61626c653a2063616c6c6572206973206e6f7420746865206f776e6572604482015260640161078c565b6000818152600360205260409020546001600160a01b03166116485760405162461bcd60e51b815260206004820152601860248201527f4552433732313a20696e76616c696420746f6b656e2049440000000000000000604482015260640161078c565b6000818152600360205260408120546001600160a01b0316806106255760405162461bcd60e51b815260206004820152601860248201527f4552433732313a20696e76616c696420746f6b656e2049440000000000000000604482015260640161078c565b600081815260056020526040902080547fffffffffffffffffffffffff0000000000000000000000000000000000000000166001600160a01b038416908117909155819061183982611787565b6001600160a01b03167f8c5be1e5ebec7d5bd14f71427d1e84f3dd0314c0f7b2291e5b200ac8c7c3b92560405160405180910390a45050565b600b54600c546040517f02571be3000000000000000000000000000000000000000000000000000000008152600481019190915260009130916001600160a01b03909116906302571be390602401602060405180830381865afa1580156118dd573d6000803e3d6000fd5b505050506040513d601f19601f820116820180604052508101906119019190612c0f565b6001600160a01b03161461191457600080fd5b336000908152600d602052604090205460ff166119735760405162461bcd60e51b815260206004820181905260248201527f4552433732313a2063616c6c6572206973206e6f7420436f6e74726f6c6c6572604482015260640161078c565b61197c85611030565b61198557600080fd5b6119926276a70042612cf8565b6276a7006119a08542612cf8565b6119aa9190612cf8565b116119b457600080fd5b6119be8342612cf8565b6000868152600e60209081526040808320939093556003905220546001600160a01b0316156119f0576119f085612074565b6119fa8486612133565b8115611a9d57600b54600c546040517f06ab59230000000000000000000000000000000000000000000000000000000081526004810191909152602481018790526001600160a01b038681166044830152909116906306ab5923906064016020604051808303816000875af1158015611a77573d6000803e3d6000fd5b505050506040513d601f19601f82011682018060405250810190611a9b9190612bf6565b505b6001600160a01b038416857fb3d987963d01b2f68493b4bdb130988f157ea43070d4ad840fee0466ed9370d9611ad38642612cf8565b60405190815260200160405180910390a3611aee8342612cf8565b95945050505050565b600080611b0383610d9e565b9050806001600160a01b0316846001600160a01b03161480611b3e5750836001600160a01b0316611b33846106d5565b6001600160a01b0316145b8061084157506001600160a01b0380821660009081526006602090815260408083209388168352929052205460ff16610841565b826001600160a01b0316611b8582611787565b6001600160a01b031614611c015760405162461bcd60e51b815260206004820152602560248201527f4552433732313a207472616e736665722066726f6d20696e636f72726563742060448201527f6f776e6572000000000000000000000000000000000000000000000000000000606482015260840161078c565b6001600160a01b038216611c7c5760405162461bcd60e51b8152602060048201526024808201527f4552433732313a207472616e7366657220746f20746865207a65726f2061646460448201527f7265737300000000000000000000000000000000000000000000000000000000606482015260840161078c565b611c87838383612299565b611c926000826117ec565b6001600160a01b0383166000908152600460205260408120805460019290611cbb908490612d3a565b90915550506001600160a01b0382166000908152600460205260408120805460019290611ce9908490612cf8565b909155505060008181526003602052604080822080547fffffffffffffffffffffffff0000000000000000000000000000000000000000166001600160a01b0386811691821790925591518493918716917fddf252ad1be2c89b69c2b068fc378daa952ba7f163c4a11628f55a4df523b3ef91a4505050565b600080546001600160a01b038381167fffffffffffffffffffffffff0000000000000000000000000000000000000000831681178455604051919092169283917f8be0079c531659141344cd1fd0a4f28419497f9722a3daafe3b4186f6b6457e09190a35050565b816001600160a01b0316836001600160a01b031603611e2b5760405162461bcd60e51b815260206004820152601960248201527f4552433732313a20617070726f766520746f2063616c6c657200000000000000604482015260640161078c565b6001600160a01b0383811660008181526006602090815260408083209487168084529482529182902080547fffffffffffffffffffffffffffffffffffffffffffffffffffffffffffffff001686151590811790915591519182527f17307eab39ab6107e8899845ad3d59bd9653f200f220920489ca2b5937696c31910160405180910390a3505050565b611ec1848484611b72565b611ecd848484846122a4565b610a585760405162461bcd60e51b815260206004820152603260248201527f4552433732313a207472616e7366657220746f206e6f6e20455243373231526560448201527f63656976657220696d706c656d656e7465720000000000000000000000000000606482015260840161078c565b606081600003611f8257505060408051808201909152600181527f3000000000000000000000000000000000000000000000000000000000000000602082015290565b8160005b8115611fac5780611f9681612d4d565b9150611fa59050600a83612db4565b9150611f86565b60008167ffffffffffffffff811115611fc757611fc76126d5565b6040519080825280601f01601f191660200182016040528015611ff1576020820181803683370190505b5090505b841561084157612006600183612d3a565b9150612013600a86612dc8565b61201e906030612cf8565b60f81b81838151811061203357612033612c2c565b60200101907effffffffffffffffffffffffffffffffffffffffffffffffffffffffffffff1916908160001a90535061206d600a86612db4565b9450611ff5565b600061207f82611787565b905061208d81600084612299565b6120986000836117ec565b6001600160a01b03811660009081526004602052604081208054600192906120c1908490612d3a565b909155505060008281526003602052604080822080547fffffffffffffffffffffffff0000000000000000000000000000000000000000169055518391906001600160a01b038416907fddf252ad1be2c89b69c2b068fc378daa952ba7f163c4a11628f55a4df523b3ef908390a45050565b6001600160a01b0382166121895760405162461bcd60e51b815260206004820181905260248201527f4552433732313a206d696e7420746f20746865207a65726f2061646472657373604482015260640161078c565b6000818152600360205260409020546001600160a01b0316156121ee5760405162461bcd60e51b815260206004820152601c60248201527f4552433732313a20746f6b656e20616c7265616479206d696e74656400000000604482015260640161078c565b6121fa60008383612299565b6001600160a01b0382166000908152600460205260408120805460019290612223908490612cf8565b909155505060008181526003602052604080822080547fffffffffffffffffffffffff0000000000000000000000000000000000000000166001600160a01b03861690811790915590518392907fddf252ad1be2c89b69c2b068fc378daa952ba7f163c4a11628f55a4df523b3ef908290a45050565b61082d838383612442565b60006001600160a01b0384163b1561243a576040517f150b7a020000000000000000000000000000000000000000000000000000000081526001600160a01b0385169063150b7a0290612301903390899088908890600401612ddc565b6020604051808303816000875af192505050801561233c575060408051601f3d908101601f1916820190925261233991810190612e0e565b60015b6123ef573d80801561236a576040519150601f19603f3d011682016040523d82523d6000602084013e61236f565b606091505b5080516000036123e75760405162461bcd60e51b815260206004820152603260248201527f4552433732313a207472616e7366657220746f206e6f6e20455243373231526560448201527f63656976657220696d706c656d656e7465720000000000000000000000000000606482015260840161078c565b805181602001fd5b7fffffffff00000000000000000000000000000000000000000000000000000000167f150b7a0200000000000000000000000000000000000000000000000000000000149050610841565b506001610841565b6001600160a01b03831661249d5761249881600980546000838152600a60205260408120829055600182018355919091527f6e1540171b6c0c960b71a7020d9f60077f6af931a8bbf590da0223dacf75c7af0155565b6124c0565b816001600160a01b0316836001600160a01b0316146124c0576124c083826124fa565b6001600160a01b0382166124d75761082d81612597565b826001600160a01b0316826001600160a01b03161461082d5761082d8282612646565b6000600161250784610f73565b6125119190612d3a565b600083815260086020526040902054909150808214612564576001600160a01b03841660009081526007602090815260408083208584528252808320548484528184208190558352600890915290208190555b5060009182526008602090815260408084208490556001600160a01b039094168352600781528383209183525290812055565b6009546000906125a990600190612d3a565b6000838152600a6020526040812054600980549394509092849081106125d1576125d1612c2c565b9060005260206000200154905080600983815481106125f2576125f2612c2c565b6000918252602080832090910192909255828152600a9091526040808220849055858252812055600980548061262a5761262a612e2b565b6001900381819060005260206000200160009055905550505050565b600061265183610f73565b6001600160a01b039093166000908152600760209081526040808320868452825280832085905593825260089052919091209190915550565b7fffffffff000000000000000000000000000000000000000000000000000000008116811461164857600080fd5b6000602082840312156126ca57600080fd5b81356115b48161268a565b7f4e487b7100000000000000000000000000000000000000000000000000000000600052604160045260246000fd5b604051601f8201601f1916810167ffffffffffffffff8111828210171561272d5761272d6126d5565b604052919050565b600067ffffffffffffffff82111561274f5761274f6126d5565b50601f01601f191660200190565b600061277061276b84612735565b612704565b905082815283838301111561278457600080fd5b828260208301376000602084830101529392505050565b6000602082840312156127ad57600080fd5b813567ffffffffffffffff8111156127c457600080fd5b8201601f810184136127d557600080fd5b6108418482356020840161275d565b60005b838110156127ff5781810151838201526020016127e7565b50506000910152565b600081518084526128208160208601602086016127e4565b601f01601f19169290920160200192915050565b6020815260006115b46020830184612808565b60006020828403121561285957600080fd5b5035919050565b6001600160a01b038116811461164857600080fd5b6000806040838503121561288857600080fd5b823561289381612860565b946020939093013593505050565b6000806000606084860312156128b657600080fd5b8335925060208401356128c881612860565b929592945050506040919091013590565b6000806000606084860312156128ee57600080fd5b83356128f981612860565b925060208401356128c881612860565b6000806040838503121561291c57600080fd5b82359150602083013561292e81612860565b809150509250929050565b60006020828403121561294b57600080fd5b81356115b481612860565b6000806040838503121561296957600080fd5b823561297481612860565b91506020830135801515811461292e57600080fd5b6000806000806080858703121561299f57600080fd5b84356129aa81612860565b935060208501356129ba81612860565b925060408501359150606085013567ffffffffffffffff8111156129dd57600080fd5b8501601f810187136129ee57600080fd5b6129fd8782356020840161275d565b91505092959194509250565b60008060408385031215612a1c57600080fd5b50508035926020909101359150565b60008060408385031215612a3e57600080fd5b8235612a4981612860565b9150602083013561292e81612860565b600181811c90821680612a6d57607f821691505b602082108103612aa6577f4e487b7100000000000000000000000000000000000000000000000000000000600052602260045260246000fd5b50919050565b601f82111561082d57600081815260208120601f850160051c81016020861015612ad35750805b601f850160051c820191505b81811015612af257828155600101612adf565b505050505050565b815167ffffffffffffffff811115612b1457612b146126d5565b612b2881612b228454612a59565b84612aac565b602080601f831160018114612b7b5760008415612b455750858301515b7fffffffffffffffffffffffffffffffffffffffffffffffffffffffffffffffff600386901b1c1916600185901b178555612af2565b600085815260208120601f198616915b82811015612baa57888601518255948401946001909101908401612b8b565b5085821015612be657878501517fffffffffffffffffffffffffffffffffffffffffffffffffffffffffffffffff600388901b60f8161c191681555b5050505050600190811b01905550565b600060208284031215612c0857600080fd5b5051919050565b600060208284031215612c2157600080fd5b81516115b481612860565b7f4e487b7100000000000000000000000000000000000000000000000000000000600052603260045260246000fd5b600060208284031215612c6d57600080fd5b815167ffffffffffffffff811115612c8457600080fd5b8201601f81018413612c9557600080fd5b8051612ca361276b82612735565b818152856020838501011115612cb857600080fd5b611aee8260208301602086016127e4565b7f4e487b7100000000000000000000000000000000000000000000000000000000600052601160045260246000fd5b8082018082111561062557610625612cc9565b60008351612d1d8184602088016127e4565b835190830190612d318183602088016127e4565b01949350505050565b8181038181111561062557610625612cc9565b60007fffffffffffffffffffffffffffffffffffffffffffffffffffffffffffffffff8203612d7e57612d7e612cc9565b5060010190565b7f4e487b7100000000000000000000000000000000000000000000000000000000600052601260045260246000fd5b600082612dc357612dc3612d85565b500490565b600082612dd757612dd7612d85565b500690565b60006001600160a01b03808716835280861660208401525083604083015260806060830152610f696080830184612808565b600060208284031215612e2057600080fd5b81516115b48161268a565b7f4e487b7100000000000000000000000000000000000000000000000000000000600052603160045260246000fdfea26469706673582212201acfaf65f0edcf26b2e5071e058a1b1c6db62bd39501799ae5166b97c30e84e364736f6c63430008110033",
  "devdoc": {
    "kind": "dev",
    "methods": {
      "approve(address,uint256)": {
        "details": "See {IERC721-approve}."
      },
      "balanceOf(address)": {
        "details": "See {IERC721-balanceOf}."
      },
      "getApproved(uint256)": {
        "details": "See {IERC721-getApproved}."
      },
      "isApprovedForAll(address,address)": {
        "details": "See {IERC721-isApprovedForAll}."
      },
      "name()": {
        "details": "See {IERC721Metadata-name}."
      },
      "owner()": {
        "details": "Returns the address of the current owner."
      },
      "ownerOf(uint256)": {
        "details": "Gets the owner of the specified token ID. Names become unowned      when their registration expires.",
        "params": {
          "tokenId": "uint256 ID of the token to query the owner of"
        },
        "returns": {
          "_0": "address currently marked as the owner of the given token ID"
        }
      },
      "reclaim(uint256,address)": {
        "details": "Reclaim ownership of a name in PNS, if you own it in the registrar."
      },
      "register(uint256,address,uint256)": {
        "details": "Register a name.",
        "params": {
          "duration": "Duration in seconds for the registration.",
          "id": "The token ID (keccak256 of the label).",
          "owner": "The address that should own the registration."
        }
      },
      "registerOnly(uint256,address,uint256)": {
        "details": "Register a name, without modifying the registry.",
        "params": {
          "duration": "Duration in seconds for the registration.",
          "id": "The token ID (keccak256 of the label).",
          "owner": "The address that should own the registration."
        }
      },
      "renounceOwnership()": {
        "details": "Leaves the contract without owner. It will not be possible to call `onlyOwner` functions anymore. Can only be called by the current owner. NOTE: Renouncing ownership will leave the contract without an owner, thereby removing any functionality that is only available to the owner."
      },
      "safeTransferFrom(address,address,uint256)": {
        "details": "See {IERC721-safeTransferFrom}."
      },
      "safeTransferFrom(address,address,uint256,bytes)": {
        "details": "See {IERC721-safeTransferFrom}."
      },
      "setApprovalForAll(address,bool)": {
        "details": "See {IERC721-setApprovalForAll}."
      },
      "symbol()": {
        "details": "See {IERC721Metadata-symbol}."
      },
      "tokenByIndex(uint256)": {
        "details": "See {IERC721Enumerable-tokenByIndex}."
      },
      "tokenOfOwnerByIndex(address,uint256)": {
        "details": "See {IERC721Enumerable-tokenOfOwnerByIndex}."
      },
      "tokenURI(uint256)": {
        "details": "See {IERC721Metadata-tokenURI}."
      },
      "totalSupply()": {
        "details": "See {IERC721Enumerable-totalSupply}."
      },
      "transferFrom(address,address,uint256)": {
        "details": "See {IERC721-transferFrom}."
      },
      "transferOwnership(address)": {
        "details": "Transfers ownership of the contract to a new account (`newOwner`). Can only be called by the current owner."
      }
    },
    "version": 1
  },
  "userdoc": {
    "kind": "user",
    "methods": {
      "setURI(string)": {
        "notice": "PRIVILEGED MODULE FUNCTION. Sets a new baseURI for all token types."
      }
    },
    "version": 1
  },
  "storageLayout": {
    "storage": [
      {
        "astId": 7,
        "contract": "contracts/registrar/BaseRegistrarImplementation.sol:BaseRegistrarImplementation",
        "label": "_owner",
        "offset": 0,
        "slot": "0",
        "type": "t_address"
      },
      {
        "astId": 138,
        "contract": "contracts/registrar/BaseRegistrarImplementation.sol:BaseRegistrarImplementation",
        "label": "_name",
        "offset": 0,
        "slot": "1",
        "type": "t_string_storage"
      },
      {
        "astId": 140,
        "contract": "contracts/registrar/BaseRegistrarImplementation.sol:BaseRegistrarImplementation",
        "label": "_symbol",
        "offset": 0,
        "slot": "2",
        "type": "t_string_storage"
      },
      {
        "astId": 144,
        "contract": "contracts/registrar/BaseRegistrarImplementation.sol:BaseRegistrarImplementation",
        "label": "_owners",
        "offset": 0,
        "slot": "3",
        "type": "t_mapping(t_uint256,t_address)"
      },
      {
        "astId": 148,
        "contract": "contracts/registrar/BaseRegistrarImplementation.sol:BaseRegistrarImplementation",
        "label": "_balances",
        "offset": 0,
        "slot": "4",
        "type": "t_mapping(t_address,t_uint256)"
      },
      {
        "astId": 152,
        "contract": "contracts/registrar/BaseRegistrarImplementation.sol:BaseRegistrarImplementation",
        "label": "_tokenApprovals",
        "offset": 0,
        "slot": "5",
        "type": "t_mapping(t_uint256,t_address)"
      },
      {
        "astId": 158,
        "contract": "contracts/registrar/BaseRegistrarImplementation.sol:BaseRegistrarImplementation",
        "label": "_operatorApprovals",
        "offset": 0,
        "slot": "6",
        "type": "t_mapping(t_address,t_mapping(t_address,t_bool))"
      },
      {
        "astId": 1128,
        "contract": "contracts/registrar/BaseRegistrarImplementation.sol:BaseRegistrarImplementation",
        "label": "_ownedTokens",
        "offset": 0,
        "slot": "7",
        "type": "t_mapping(t_address,t_mapping(t_uint256,t_uint256))"
      },
      {
        "astId": 1132,
        "contract": "contracts/registrar/BaseRegistrarImplementation.sol:BaseRegistrarImplementation",
        "label": "_ownedTokensIndex",
        "offset": 0,
        "slot": "8",
        "type": "t_mapping(t_uint256,t_uint256)"
      },
      {
        "astId": 1135,
        "contract": "contracts/registrar/BaseRegistrarImplementation.sol:BaseRegistrarImplementation",
        "label": "_allTokens",
        "offset": 0,
        "slot": "9",
        "type": "t_array(t_uint256)dyn_storage"
      },
      {
        "astId": 1139,
        "contract": "contracts/registrar/BaseRegistrarImplementation.sol:BaseRegistrarImplementation",
        "label": "_allTokensIndex",
        "offset": 0,
        "slot": "10",
        "type": "t_mapping(t_uint256,t_uint256)"
      },
      {
        "astId": 2180,
        "contract": "contracts/registrar/BaseRegistrarImplementation.sol:BaseRegistrarImplementation",
        "label": "pns",
        "offset": 0,
        "slot": "11",
        "type": "t_contract(PNS)5261"
      },
      {
        "astId": 2182,
        "contract": "contracts/registrar/BaseRegistrarImplementation.sol:BaseRegistrarImplementation",
        "label": "baseNode",
        "offset": 0,
        "slot": "12",
        "type": "t_bytes32"
      },
      {
        "astId": 2186,
        "contract": "contracts/registrar/BaseRegistrarImplementation.sol:BaseRegistrarImplementation",
        "label": "controllers",
        "offset": 0,
        "slot": "13",
        "type": "t_mapping(t_address,t_bool)"
      },
      {
        "astId": 2265,
        "contract": "contracts/registrar/BaseRegistrarImplementation.sol:BaseRegistrarImplementation",
        "label": "expiries",
        "offset": 0,
        "slot": "14",
        "type": "t_mapping(t_uint256,t_uint256)"
      },
      {
        "astId": 2323,
        "contract": "contracts/registrar/BaseRegistrarImplementation.sol:BaseRegistrarImplementation",
        "label": "baseUri",
        "offset": 0,
        "slot": "15",
        "type": "t_string_storage"
      },
      {
        "astId": 2325,
        "contract": "contracts/registrar/BaseRegistrarImplementation.sol:BaseRegistrarImplementation",
        "label": "baseName",
        "offset": 0,
        "slot": "16",
        "type": "t_string_storage"
      }
    ],
    "types": {
      "t_address": {
        "encoding": "inplace",
        "label": "address",
        "numberOfBytes": "20"
      },
      "t_array(t_uint256)dyn_storage": {
        "base": "t_uint256",
        "encoding": "dynamic_array",
        "label": "uint256[]",
        "numberOfBytes": "32"
      },
      "t_bool": {
        "encoding": "inplace",
        "label": "bool",
        "numberOfBytes": "1"
      },
      "t_bytes32": {
        "encoding": "inplace",
        "label": "bytes32",
        "numberOfBytes": "32"
      },
      "t_contract(PNS)5261": {
        "encoding": "inplace",
        "label": "contract PNS",
        "numberOfBytes": "20"
      },
      "t_mapping(t_address,t_bool)": {
        "encoding": "mapping",
        "key": "t_address",
        "label": "mapping(address => bool)",
        "numberOfBytes": "32",
        "value": "t_bool"
      },
      "t_mapping(t_address,t_mapping(t_address,t_bool))": {
        "encoding": "mapping",
        "key": "t_address",
        "label": "mapping(address => mapping(address => bool))",
        "numberOfBytes": "32",
        "value": "t_mapping(t_address,t_bool)"
      },
      "t_mapping(t_address,t_mapping(t_uint256,t_uint256))": {
        "encoding": "mapping",
        "key": "t_address",
        "label": "mapping(address => mapping(uint256 => uint256))",
        "numberOfBytes": "32",
        "value": "t_mapping(t_uint256,t_uint256)"
      },
      "t_mapping(t_address,t_uint256)": {
        "encoding": "mapping",
        "key": "t_address",
        "label": "mapping(address => uint256)",
        "numberOfBytes": "32",
        "value": "t_uint256"
      },
      "t_mapping(t_uint256,t_address)": {
        "encoding": "mapping",
        "key": "t_uint256",
        "label": "mapping(uint256 => address)",
        "numberOfBytes": "32",
        "value": "t_address"
      },
      "t_mapping(t_uint256,t_uint256)": {
        "encoding": "mapping",
        "key": "t_uint256",
        "label": "mapping(uint256 => uint256)",
        "numberOfBytes": "32",
        "value": "t_uint256"
      },
      "t_string_storage": {
        "encoding": "bytes",
        "label": "string",
        "numberOfBytes": "32"
      },
      "t_uint256": {
        "encoding": "inplace",
        "label": "uint256",
        "numberOfBytes": "32"
      }
    }
  }
}