{
  "address": "0x1A13Bd0dD675AC6FcB7084d95e3E329c250f10aa",
  "abi": [
    {
      "inputs": [
        {
          "internalType": "contract PNS",
          "name": "pnsAddr",
          "type": "address"
        }
      ],
      "stateMutability": "nonpayable",
      "type": "constructor"
    },
    {
      "inputs": [
        {
          "internalType": "bytes32",
          "name": "",
          "type": "bytes32"
        }
      ],
      "name": "name",
      "outputs": [
        {
          "internalType": "string",
          "name": "",
          "type": "string"
        }
      ],
      "stateMutability": "view",
      "type": "function"
    },
    {
      "inputs": [],
      "name": "pns",
      "outputs": [
        {
          "internalType": "contract PNS",
          "name": "",
          "type": "address"
        }
      ],
      "stateMutability": "view",
      "type": "function"
    },
    {
      "inputs": [
        {
          "internalType": "bytes32",
          "name": "node",
          "type": "bytes32"
        },
        {
          "internalType": "string",
          "name": "_name",
          "type": "string"
        }
      ],
      "name": "setName",
      "outputs": [],
      "stateMutability": "nonpayable",
      "type": "function"
    }
  ],
  "transactionHash": "0x1f9a92c8fdff7756324b2f19300a4be9946a03f4d289b8b82d76062cfea98f56",
  "args": [
    "0x565bFaC857b0a3F94E137Cafc1F422D8361F6498"
  ],
  "solcInputHash": "bb544eaeaa3b1f3ce9abad41c3baebf1",
  "bytecode": "0x608060405234801561001057600080fd5b506040516107b43803806107b483398101604081905261002f91610165565b600080546001600160a01b0319166001600160a01b03831690811782556040516302571be360e01b81527f91d1777781884d03a6757a803996e38de2a42967fb37eeaca72729271025a9e260048201526302571be390602401602060405180830381865afa1580156100a5573d6000803e3d6000fd5b505050506040513d601f19601f820116820180604052508101906100c99190610165565b90506001600160a01b0381161561014657604051630f41a04d60e11b81523360048201526001600160a01b03821690631e83409a906024016020604051808303816000875af1158015610120573d6000803e3d6000fd5b505050506040513d601f19601f820116820180604052508101906101449190610189565b505b50506101a2565b6001600160a01b038116811461016257600080fd5b50565b60006020828403121561017757600080fd5b81516101828161014d565b9392505050565b60006020828403121561019b57600080fd5b5051919050565b610603806101b16000396000f3fe608060405234801561001057600080fd5b50600436106100415760003560e01c80634c15414c14610046578063691f34311461009057806377372213146100b0575b600080fd5b6000546100669073ffffffffffffffffffffffffffffffffffffffff1681565b60405173ffffffffffffffffffffffffffffffffffffffff90911681526020015b60405180910390f35b6100a361009e366004610247565b6100c5565b6040516100879190610260565b6100c36100be3660046102fb565b61015f565b005b600160205260009081526040902080546100de906103d4565b80601f016020809104026020016040519081016040528092919081815260200182805461010a906103d4565b80156101575780601f1061012c57610100808354040283529160200191610157565b820191906000526020600020905b81548152906001019060200180831161013a57829003601f168201915b505050505081565b6000546040517f02571be300000000000000000000000000000000000000000000000000000000815260048101849052839173ffffffffffffffffffffffffffffffffffffffff16906302571be390602401602060405180830381865afa1580156101ce573d6000803e3d6000fd5b505050506040513d601f19601f820116820180604052508101906101f29190610427565b73ffffffffffffffffffffffffffffffffffffffff163373ffffffffffffffffffffffffffffffffffffffff161461022957600080fd5b600083815260016020526040902061024183826104b3565b50505050565b60006020828403121561025957600080fd5b5035919050565b600060208083528351808285015260005b8181101561028d57858101830151858201604001528201610271565b5060006040828601015260407fffffffffffffffffffffffffffffffffffffffffffffffffffffffffffffffe0601f8301168501019250505092915050565b7f4e487b7100000000000000000000000000000000000000000000000000000000600052604160045260246000fd5b6000806040838503121561030e57600080fd5b82359150602083013567ffffffffffffffff8082111561032d57600080fd5b818501915085601f83011261034157600080fd5b813581811115610353576103536102cc565b604051601f82017fffffffffffffffffffffffffffffffffffffffffffffffffffffffffffffffe0908116603f01168101908382118183101715610399576103996102cc565b816040528281528860208487010111156103b257600080fd5b8260208601602083013760006020848301015280955050505050509250929050565b600181811c908216806103e857607f821691505b602082108103610421577f4e487b7100000000000000000000000000000000000000000000000000000000600052602260045260246000fd5b50919050565b60006020828403121561043957600080fd5b815173ffffffffffffffffffffffffffffffffffffffff8116811461045d57600080fd5b9392505050565b601f8211156104ae57600081815260208120601f850160051c8101602086101561048b5750805b601f850160051c820191505b818110156104aa57828155600101610497565b5050505b505050565b815167ffffffffffffffff8111156104cd576104cd6102cc565b6104e1816104db84546103d4565b84610464565b602080601f83116001811461053457600084156104fe5750858301515b7fffffffffffffffffffffffffffffffffffffffffffffffffffffffffffffffff600386901b1c1916600185901b1785556104aa565b6000858152602081207fffffffffffffffffffffffffffffffffffffffffffffffffffffffffffffffe08616915b8281101561058157888601518255948401946001909101908401610562565b50858210156105bd57878501517fffffffffffffffffffffffffffffffffffffffffffffffffffffffffffffffff600388901b60f8161c191681555b5050505050600190811b0190555056fea2646970667358221220e52cbd5d8eb72e95524d75dd42dc9136529884ffa33b04ee1d1110d09db6f0ff64736f6c63430008110033",
  "devdoc": {
    "details": "Provides a default implementation of a resolver for reverse records, which permits only the owner to update it.",
    "kind": "dev",
    "methods": {
      "constructor": {
        "details": "Constructor",
        "params": {
          "pnsAddr": "The address of the WPNS registry."
        }
      },
      "setName(bytes32,string)": {
        "details": "Sets the name for a node.",
        "params": {
          "_name": "The name to set.",
          "node": "The node to update."
        }
      }
    },
    "version": 1
  },
  "userdoc": {
    "kind": "user",
    "methods": {},
    "version": 1
  },
  "storageLayout": {
    "storage": [
      {
        "astId": 11595,
        "contract": "contracts/resolvers/DefaultReverseResolver.sol:DefaultReverseResolver",
        "label": "pns",
        "offset": 0,
        "slot": "0",
        "type": "t_contract(PNS)10753"
      },
      {
        "astId": 11599,
        "contract": "contracts/resolvers/DefaultReverseResolver.sol:DefaultReverseResolver",
        "label": "name",
        "offset": 0,
        "slot": "1",
        "type": "t_mapping(t_bytes32,t_string_storage)"
      }
    ],
    "types": {
      "t_bytes32": {
        "encoding": "inplace",
        "label": "bytes32",
        "numberOfBytes": "32"
      },
      "t_contract(PNS)10753": {
        "encoding": "inplace",
        "label": "contract PNS",
        "numberOfBytes": "20"
      },
      "t_mapping(t_bytes32,t_string_storage)": {
        "encoding": "mapping",
        "key": "t_bytes32",
        "label": "mapping(bytes32 => string)",
        "numberOfBytes": "32",
        "value": "t_string_storage"
      },
      "t_string_storage": {
        "encoding": "bytes",
        "label": "string",
        "numberOfBytes": "32"
      }
    }
  }
}