{
  "address": "0x54bc35b0B34bb766654f58946293f85a0Dd6FF53",
  "abi": [
    {
      "inputs": [
        {
          "internalType": "contract BaseRegistrarImplementation",
          "name": "_base",
          "type": "address"
        },
        {
          "internalType": "uint256",
          "name": "_basePrice",
          "type": "uint256"
        }
      ],
      "stateMutability": "nonpayable",
      "type": "constructor"
    },
    {
      "anonymous": false,
      "inputs": [
        {
          "indexed": false,
          "internalType": "string",
          "name": "name",
          "type": "string"
        },
        {
          "indexed": true,
          "internalType": "bytes32",
          "name": "label",
          "type": "bytes32"
        },
        {
          "indexed": true,
          "internalType": "address",
          "name": "owner",
          "type": "address"
        },
        {
          "indexed": false,
          "internalType": "uint256",
          "name": "cost",
          "type": "uint256"
        },
        {
          "indexed": false,
          "internalType": "uint256",
          "name": "expires",
          "type": "uint256"
        }
      ],
      "name": "NameRegistered",
      "type": "event"
    },
    {
      "anonymous": false,
      "inputs": [
        {
          "indexed": false,
          "internalType": "string",
          "name": "name",
          "type": "string"
        },
        {
          "indexed": true,
          "internalType": "bytes32",
          "name": "label",
          "type": "bytes32"
        },
        {
          "indexed": false,
          "internalType": "uint256",
          "name": "cost",
          "type": "uint256"
        },
        {
          "indexed": false,
          "internalType": "uint256",
          "name": "expires",
          "type": "uint256"
        }
      ],
      "name": "NameRenewed",
      "type": "event"
    },
    {
      "anonymous": false,
      "inputs": [
        {
          "indexed": true,
          "internalType": "address",
          "name": "previousOwner",
          "type": "address"
        },
        {
          "indexed": true,
          "internalType": "address",
          "name": "newOwner",
          "type": "address"
        }
      ],
      "name": "OwnershipTransferred",
      "type": "event"
    },
    {
      "inputs": [],
      "name": "MIN_REGISTRATION_DURATION",
      "outputs": [
        {
          "internalType": "uint256",
          "name": "",
          "type": "uint256"
        }
      ],
      "stateMutability": "view",
      "type": "function"
    },
    {
      "inputs": [
        {
          "internalType": "string",
          "name": "name",
          "type": "string"
        }
      ],
      "name": "available",
      "outputs": [
        {
          "internalType": "bool",
          "name": "",
          "type": "bool"
        }
      ],
      "stateMutability": "view",
      "type": "function"
    },
    {
      "inputs": [],
      "name": "basePrice",
      "outputs": [
        {
          "internalType": "uint256",
          "name": "",
          "type": "uint256"
        }
      ],
      "stateMutability": "view",
      "type": "function"
    },
    {
      "inputs": [],
      "name": "owner",
      "outputs": [
        {
          "internalType": "address",
          "name": "",
          "type": "address"
        }
      ],
      "stateMutability": "view",
      "type": "function"
    },
    {
      "inputs": [
        {
          "internalType": "string",
          "name": "name",
          "type": "string"
        },
        {
          "internalType": "address",
          "name": "owner",
          "type": "address"
        },
        {
          "internalType": "uint256",
          "name": "duration",
          "type": "uint256"
        },
        {
          "internalType": "address",
          "name": "resolver",
          "type": "address"
        }
      ],
      "name": "register",
      "outputs": [],
      "stateMutability": "payable",
      "type": "function"
    },
    {
      "inputs": [
        {
          "internalType": "string",
          "name": "name",
          "type": "string"
        },
        {
          "internalType": "uint256",
          "name": "duration",
          "type": "uint256"
        }
      ],
      "name": "renew",
      "outputs": [],
      "stateMutability": "payable",
      "type": "function"
    },
    {
      "inputs": [],
      "name": "renounceOwnership",
      "outputs": [],
      "stateMutability": "nonpayable",
      "type": "function"
    },
    {
      "inputs": [
        {
          "internalType": "string",
          "name": "name",
          "type": "string"
        },
        {
          "internalType": "uint256",
          "name": "duration",
          "type": "uint256"
        }
      ],
      "name": "rentPrice",
      "outputs": [
        {
          "internalType": "uint256",
          "name": "",
          "type": "uint256"
        }
      ],
      "stateMutability": "view",
      "type": "function"
    },
    {
      "inputs": [],
      "name": "root",
      "outputs": [
        {
          "internalType": "bytes32",
          "name": "",
          "type": "bytes32"
        }
      ],
      "stateMutability": "view",
      "type": "function"
    },
    {
      "inputs": [
        {
          "internalType": "uint256",
          "name": "_price",
          "type": "uint256"
        }
      ],
      "name": "setBasePrice",
      "outputs": [],
      "stateMutability": "nonpayable",
      "type": "function"
    },
    {
      "inputs": [
        {
          "internalType": "address",
          "name": "newOwner",
          "type": "address"
        }
      ],
      "name": "transferOwnership",
      "outputs": [],
      "stateMutability": "nonpayable",
      "type": "function"
    },
    {
      "inputs": [
        {
          "internalType": "string",
          "name": "name",
          "type": "string"
        }
      ],
      "name": "valid",
      "outputs": [
        {
          "internalType": "bool",
          "name": "",
          "type": "bool"
        }
      ],
      "stateMutability": "view",
      "type": "function"
    },
    {
      "inputs": [],
      "name": "withdraw",
      "outputs": [],
      "stateMutability": "nonpayable",
      "type": "function"
    },
    {
      "inputs": [
        {
          "internalType": "address",
          "name": "receiver",
          "type": "address"
        }
      ],
      "name": "withdraw",
      "outputs": [],
      "stateMutability": "nonpayable",
      "type": "function"
    }
  ],
  "transactionHash": "0xa3e4798d5363bc18d47bbbb0b38a40f7363cf8a0c84087150e5fb8bf63bcf31a",
  "args": [
    "0xe60512D5C0BfbfBe77fdB115B98b7179CDA27d0a",
    0
  ],
  "solcInputHash": "b308551d73fa153f068aef8bde2e1033",
  "bytecode": "0x608060405234801561001057600080fd5b5060405161196d38038061196d83398101604081905261002f916100b1565b61003833610061565b600180546001600160a01b0319166001600160a01b0393909316929092179091556002556100eb565b600080546001600160a01b038381166001600160a01b0319831681178455604051919092169283917f8be0079c531659141344cd1fd0a4f28419497f9722a3daafe3b4186f6b6457e09190a35050565b600080604083850312156100c457600080fd5b82516001600160a01b03811681146100db57600080fd5b6020939093015192949293505050565b611873806100fa6000396000f3fe6080604052600436106100dd5760003560e01c8063acf1a8411161007f578063de4b326211610059578063de4b326214610227578063e0aade5414610247578063ebf0c7171461025a578063f2fde38b1461027057600080fd5b8063acf1a841146101de578063aeb8ce9b146101f1578063c7876ea41461021157600080fd5b806383e7f6ff116100bb57806383e7f6ff1461012e5780638a95b09f146101615780638da5cb5b146101795780639791c097146101ae57600080fd5b80633ccfd60b146100e257806351cff8d9146100f9578063715018a614610119575b600080fd5b3480156100ee57600080fd5b506100f7610290565b005b34801561010557600080fd5b506100f761011436600461138d565b6102c7565b34801561012557600080fd5b506100f7610315565b34801561013a57600080fd5b5061014e61014936600461148b565b610329565b6040519081526020015b60405180910390f35b34801561016d57600080fd5b5061014e6301e1338081565b34801561018557600080fd5b5060005460405173ffffffffffffffffffffffffffffffffffffffff9091168152602001610158565b3480156101ba57600080fd5b506101ce6101c93660046114d0565b610344565b6040519015158152602001610158565b6100f76101ec366004611505565b6107e2565b3480156101fd57600080fd5b506101ce61020c3660046114d0565b610976565b34801561021d57600080fd5b5061014e60025481565b34801561023357600080fd5b506100f761024236600461157d565b610a36565b6100f7610255366004611596565b610a43565b34801561026657600080fd5b5061014e60035481565b34801561027c57600080fd5b506100f761028b36600461138d565b610adb565b610298610b94565b60405133904780156108fc02916000818181858888f193505050501580156102c4573d6000803e3d6000fd5b50565b6102cf610b94565b60405173ffffffffffffffffffffffffffffffffffffffff8216904780156108fc02916000818181858888f19350505050158015610311573d6000803e3d6000fd5b5050565b61031d610b94565b6103276000610c15565b565b6000808260025461033a9190611631565b9150505b92915050565b6000600161035183610c8a565b101561035f57506000919050565b8160005b815181101561043e57600082828151811061038057610380611648565b01602001517fff000000000000000000000000000000000000000000000000000000000000001690507f4100000000000000000000000000000000000000000000000000000000000000811080159061041b57507f5a000000000000000000000000000000000000000000000000000000000000007fff00000000000000000000000000000000000000000000000000000000000000821611155b1561042b57506000949350505050565b508061043681611677565b915050610363565b5060028151106107d95760005b6002825161045991906116af565b8110156107d75781818151811061047257610472611648565b6020910101517fff00000000000000000000000000000000000000000000000000000000000000167fe20000000000000000000000000000000000000000000000000000000000000014801561052a5750816104cf8260016116c2565b815181106104df576104df611648565b6020910101517fff00000000000000000000000000000000000000000000000000000000000000167f8000000000000000000000000000000000000000000000000000000000000000145b15610683578161053b8260026116c2565b8151811061054b5761054b611648565b6020910101517fff00000000000000000000000000000000000000000000000000000000000000167f8b0000000000000000000000000000000000000000000000000000000000000014806106025750816105a78260026116c2565b815181106105b7576105b7611648565b6020910101517fff00000000000000000000000000000000000000000000000000000000000000167f8c00000000000000000000000000000000000000000000000000000000000000145b8061066f5750816106148260026116c2565b8151811061062457610624611648565b6020910101517fff00000000000000000000000000000000000000000000000000000000000000167f8d00000000000000000000000000000000000000000000000000000000000000145b1561067e575060009392505050565b6107c5565b81818151811061069557610695611648565b01602001517fff00000000000000000000000000000000000000000000000000000000000000167fef00000000000000000000000000000000000000000000000000000000000000036107c557816106ee8260016116c2565b815181106106fe576106fe611648565b6020910101517fff00000000000000000000000000000000000000000000000000000000000000167fbb000000000000000000000000000000000000000000000000000000000000001480156107b657508161075b8260026116c2565b8151811061076b5761076b611648565b6020910101517fff00000000000000000000000000000000000000000000000000000000000000167fbf00000000000000000000000000000000000000000000000000000000000000145b156107c5575060009392505050565b806107cf81611677565b91505061044b565b505b50600192915050565b600061082584848080601f016020809104026020016040519081016040528093929190818152602001838380828437600092019190915250869250610329915050565b90508034101561083457600080fd5b600084846040516108469291906116d5565b6040519081900381206001547fc475abff000000000000000000000000000000000000000000000000000000008352600483018290526024830186905290925060009173ffffffffffffffffffffffffffffffffffffffff9091169063c475abff906044016020604051808303816000875af11580156108ca573d6000803e3d6000fd5b505050506040513d601f19601f820116820180604052508101906108ee91906116e5565b9050817f3da24c024582931cfaf8267d8ed24d13a82a8068d5bd337d30ec45cea4e506ae8787868560405161092694939291906116fe565b60405180910390a28234111561096e57336108fc61094485346116af565b6040518115909202916000818181858888f1935050505015801561096c573d6000803e3d6000fd5b505b505050505050565b80516020820120600180546040517f96e494e800000000000000000000000000000000000000000000000000000000815260048101849052600093929173ffffffffffffffffffffffffffffffffffffffff16906396e494e890602401602060405180830381865afa1580156109f0573d6000803e3d6000fd5b505050506040513d601f19601f82011682018060405250810190610a14919061175c565b610a1c575060005b610a2584610344565b8015610a2e5750805b949350505050565b610a3e610b94565b600255565b610a4b610b94565b83516020850120806000610a5f8786610329565b9050610a9387878787868887600160009054906101000a900473ffffffffffffffffffffffffffffffffffffffff16610e91565b8034111561096c57336108fc610aa983346116af565b6040518115909202916000818181858888f19350505050158015610ad1573d6000803e3d6000fd5b5050505050505050565b610ae3610b94565b73ffffffffffffffffffffffffffffffffffffffff8116610b8b576040517f08c379a000000000000000000000000000000000000000000000000000000000815260206004820152602660248201527f4f776e61626c653a206e6577206f776e657220697320746865207a65726f206160448201527f646472657373000000000000000000000000000000000000000000000000000060648201526084015b60405180910390fd5b6102c481610c15565b60005473ffffffffffffffffffffffffffffffffffffffff163314610327576040517f08c379a000000000000000000000000000000000000000000000000000000000815260206004820181905260248201527f4f776e61626c653a2063616c6c6572206973206e6f7420746865206f776e65726044820152606401610b82565b6000805473ffffffffffffffffffffffffffffffffffffffff8381167fffffffffffffffffffffffff0000000000000000000000000000000000000000831681178455604051919092169283917f8be0079c531659141344cd1fd0a4f28419497f9722a3daafe3b4186f6b6457e09190a35050565b8051600090819081905b80821015610e88576000858381518110610cb057610cb0611648565b01602001517fff000000000000000000000000000000000000000000000000000000000000001690507f8000000000000000000000000000000000000000000000000000000000000000811015610d1357610d0c6001846116c2565b9250610e75565b7fe0000000000000000000000000000000000000000000000000000000000000007fff0000000000000000000000000000000000000000000000000000000000000082161015610d6857610d0c6002846116c2565b7ff0000000000000000000000000000000000000000000000000000000000000007fff0000000000000000000000000000000000000000000000000000000000000082161015610dbd57610d0c6003846116c2565b7ff8000000000000000000000000000000000000000000000000000000000000007fff0000000000000000000000000000000000000000000000000000000000000082161015610e1257610d0c6004846116c2565b7ffc000000000000000000000000000000000000000000000000000000000000007fff0000000000000000000000000000000000000000000000000000000000000082161015610e6757610d0c6005846116c2565b610e726006846116c2565b92505b5082610e8081611677565b935050610c94565b50909392505050565b60008173ffffffffffffffffffffffffffffffffffffffff1663ddf7fcb06040518163ffffffff1660e01b8152600401602060405180830381865afa158015610ede573d6000803e3d6000fd5b505050506040513d601f19601f82011682018060405250810190610f0291906116e5565b6040805160208101929092528101859052606001604080517fffffffffffffffffffffffffffffffffffffffffffffffffffffffffffffffe08184030181529082905280516020909101207ffca247ac0000000000000000000000000000000000000000000000000000000082526004820187905230602483015260448201899052915060009073ffffffffffffffffffffffffffffffffffffffff84169063fca247ac906064016020604051808303816000875af1158015610fc9573d6000803e3d6000fd5b505050506040513d601f19601f82011682018060405250810190610fed91906116e5565b90508273ffffffffffffffffffffffffffffffffffffffff16634c15414c6040518163ffffffff1660e01b8152600401602060405180830381865afa15801561103a573d6000803e3d6000fd5b505050506040513d601f19601f8201168201806040525081019061105e919061177e565b6040517f1896f70a0000000000000000000000000000000000000000000000000000000081526004810184905273ffffffffffffffffffffffffffffffffffffffff89811660248301529190911690631896f70a90604401600060405180830381600087803b1580156110d057600080fd5b505af11580156110e4573d6000803e3d6000fd5b50506040517fd5fa2b000000000000000000000000000000000000000000000000000000000081526004810185905273ffffffffffffffffffffffffffffffffffffffff8c811660248301528a16925063d5fa2b009150604401600060405180830381600087803b15801561115857600080fd5b505af115801561116c573d6000803e3d6000fd5b50506040517f7737221300000000000000000000000000000000000000000000000000000000815273ffffffffffffffffffffffffffffffffffffffff8a169250637737221391506111c49085908e906004016117ff565b600060405180830381600087803b1580156111de57600080fd5b505af11580156111f2573d6000803e3d6000fd5b50506040517f28ed4f6c0000000000000000000000000000000000000000000000000000000081526004810189905273ffffffffffffffffffffffffffffffffffffffff8c81166024830152861692506328ed4f6c9150604401600060405180830381600087803b15801561126657600080fd5b505af115801561127a573d6000803e3d6000fd5b50506040517f23b872dd00000000000000000000000000000000000000000000000000000000815230600482015273ffffffffffffffffffffffffffffffffffffffff8c81166024830152604482018a9052861692506323b872dd9150606401600060405180830381600087803b1580156112f457600080fd5b505af1158015611308573d6000803e3d6000fd5b505050508873ffffffffffffffffffffffffffffffffffffffff16857fca6abbe9d7f11422cb6ca7629fbf6fe9efb1c621f71ce8f02b9f2a230097404f8c878560405161135793929190611818565b60405180910390a350505050505050505050565b73ffffffffffffffffffffffffffffffffffffffff811681146102c457600080fd5b60006020828403121561139f57600080fd5b81356113aa8161136b565b9392505050565b7f4e487b7100000000000000000000000000000000000000000000000000000000600052604160045260246000fd5b600082601f8301126113f157600080fd5b813567ffffffffffffffff8082111561140c5761140c6113b1565b604051601f83017fffffffffffffffffffffffffffffffffffffffffffffffffffffffffffffffe0908116603f01168101908282118183101715611452576114526113b1565b8160405283815286602085880101111561146b57600080fd5b836020870160208301376000602085830101528094505050505092915050565b6000806040838503121561149e57600080fd5b823567ffffffffffffffff8111156114b557600080fd5b6114c1858286016113e0565b95602094909401359450505050565b6000602082840312156114e257600080fd5b813567ffffffffffffffff8111156114f957600080fd5b610a2e848285016113e0565b60008060006040848603121561151a57600080fd5b833567ffffffffffffffff8082111561153257600080fd5b818601915086601f83011261154657600080fd5b81358181111561155557600080fd5b87602082850101111561156757600080fd5b6020928301989097509590910135949350505050565b60006020828403121561158f57600080fd5b5035919050565b600080600080608085870312156115ac57600080fd5b843567ffffffffffffffff8111156115c357600080fd5b6115cf878288016113e0565b94505060208501356115e08161136b565b92506040850135915060608501356115f78161136b565b939692955090935050565b7f4e487b7100000000000000000000000000000000000000000000000000000000600052601160045260246000fd5b808202811582820484141761033e5761033e611602565b7f4e487b7100000000000000000000000000000000000000000000000000000000600052603260045260246000fd5b60007fffffffffffffffffffffffffffffffffffffffffffffffffffffffffffffffff82036116a8576116a8611602565b5060010190565b8181038181111561033e5761033e611602565b8082018082111561033e5761033e611602565b8183823760009101908152919050565b6000602082840312156116f757600080fd5b5051919050565b6060815283606082015283856080830137600060808583010152600060807fffffffffffffffffffffffffffffffffffffffffffffffffffffffffffffffe0601f870116830101905083602083015282604083015295945050505050565b60006020828403121561176e57600080fd5b815180151581146113aa57600080fd5b60006020828403121561179057600080fd5b81516113aa8161136b565b6000815180845260005b818110156117c1576020818501810151868301820152016117a5565b5060006020828601015260207fffffffffffffffffffffffffffffffffffffffffffffffffffffffffffffffe0601f83011685010191505092915050565b828152604060208201526000610a2e604083018461179b565b60608152600061182b606083018661179b565b6020830194909452506040015291905056fea2646970667358221220881fd4a1f527487c3e79eea4fda163bd97889ec70a89114f583ce10968a7049664736f6c63430008110033",
  "devdoc": {
    "details": "A registrar controller for registering and renewing names at fixed cost.",
    "kind": "dev",
    "methods": {
      "owner()": {
        "details": "Returns the address of the current owner."
      },
      "renounceOwnership()": {
        "details": "Leaves the contract without owner. It will not be possible to call `onlyOwner` functions anymore. Can only be called by the current owner. NOTE: Renouncing ownership will leave the contract without an owner, thereby removing any functionality that is only available to the owner."
      },
      "transferOwnership(address)": {
        "details": "Transfers ownership of the contract to a new account (`newOwner`). Can only be called by the current owner."
      }
    },
    "version": 1
  },
  "userdoc": {
    "kind": "user",
    "methods": {},
    "version": 1
  },
  "storageLayout": {
    "storage": [
      {
        "astId": 7,
        "contract": "contracts/registrar/RegistrarControllerV1.sol:RegistrarControllerV1",
        "label": "_owner",
        "offset": 0,
        "slot": "0",
        "type": "t_address"
      },
      {
        "astId": 4064,
        "contract": "contracts/registrar/RegistrarControllerV1.sol:RegistrarControllerV1",
        "label": "base",
        "offset": 0,
        "slot": "1",
        "type": "t_contract(BaseRegistrarImplementation)2991"
      },
      {
        "astId": 4083,
        "contract": "contracts/registrar/RegistrarControllerV1.sol:RegistrarControllerV1",
        "label": "basePrice",
        "offset": 0,
        "slot": "2",
        "type": "t_uint256"
      },
      {
        "astId": 4107,
        "contract": "contracts/registrar/RegistrarControllerV1.sol:RegistrarControllerV1",
        "label": "root",
        "offset": 0,
        "slot": "3",
        "type": "t_bytes32"
      }
    ],
    "types": {
      "t_address": {
        "encoding": "inplace",
        "label": "address",
        "numberOfBytes": "20"
      },
      "t_bytes32": {
        "encoding": "inplace",
        "label": "bytes32",
        "numberOfBytes": "32"
      },
      "t_contract(BaseRegistrarImplementation)2991": {
        "encoding": "inplace",
        "label": "contract BaseRegistrarImplementation",
        "numberOfBytes": "20"
      },
      "t_uint256": {
        "encoding": "inplace",
        "label": "uint256",
        "numberOfBytes": "32"
      }
    }
  }
}