{
  "address": "0x69e645a95d6E13E0790B8354D874f2718A073817",
  "abi": [
    {
      "inputs": [
        {
          "internalType": "contract BaseRegistrarImplementation",
          "name": "_nft",
          "type": "address"
        }
      ],
      "stateMutability": "nonpayable",
      "type": "constructor"
    },
    {
      "inputs": [],
      "name": "nft",
      "outputs": [
        {
          "internalType": "contract BaseRegistrarImplementation",
          "name": "",
          "type": "address"
        }
      ],
      "stateMutability": "view",
      "type": "function"
    },
    {
      "inputs": [
        {
          "internalType": "uint256",
          "name": "tokenId",
          "type": "uint256"
        }
      ],
      "name": "tokenURI",
      "outputs": [
        {
          "internalType": "string",
          "name": "",
          "type": "string"
        }
      ],
      "stateMutability": "view",
      "type": "function"
    }
  ],
  "transactionHash": "0xcc777c15991b5a00e7f2c8acbfd734b83f4fec8214032bfcbab8c5c3347835c0",
  "args": [
    "0x59d5343f3AE4C5fEd9395e2FB1FF85D13dcB5d76"
  ],
  "solcInputHash": "58796ce0f5cbe8652dbf3054e84a8d6c",
  "bytecode": "0x608060405234801561001057600080fd5b506040516114bf3803806114bf83398101604081905261002f91610054565b600080546001600160a01b0319166001600160a01b0392909216919091179055610084565b60006020828403121561006657600080fd5b81516001600160a01b038116811461007d57600080fd5b9392505050565b61142c806100936000396000f3fe608060405234801561001057600080fd5b50600436106100365760003560e01c806347ccca021461003b578063c87b56dd14610085575b600080fd5b60005461005b9073ffffffffffffffffffffffffffffffffffffffff1681565b60405173ffffffffffffffffffffffffffffffffffffffff90911681526020015b60405180910390f35b610098610093366004610a69565b6100a5565b60405161007c9190610aa6565b60606100af610a42565b600080546040517f6b8ff5740000000000000000000000000000000000000000000000000000000081526004810186905273ffffffffffffffffffffffffffffffffffffffff90911690636b8ff57490602401600060405180830381865afa15801561011f573d6000803e3d6000fd5b505050506040513d6000823e601f3d908101601f191682016040526101479190810190610b08565b905060008160008054906101000a900473ffffffffffffffffffffffffffffffffffffffff1673ffffffffffffffffffffffffffffffffffffffff1663150306336040518163ffffffff1660e01b8152600401600060405180830381865afa1580156101b7573d6000803e3d6000fd5b505050506040513d6000823e601f3d908101601f191682016040526101df9190810190610b08565b6040516020016101f0929190610bd1565b6040516020818303038152906040529050600061020c83610457565b905060006102198461065e565b60008054604080517f15030633000000000000000000000000000000000000000000000000000000008152905173ffffffffffffffffffffffffffffffffffffffff909216926315030633926004808401938290030181865afa158015610284573d6000803e3d6000fd5b505050506040513d6000823e601f3d908101601f191682016040526102ac9190810190610b08565b6040516020016102bd929190610bd1565b60408051601f19818403018152610360830190915261033f808352909250611078602083013985526020808601828152604080518082018252601981527f3c2f747370616e3e3c2f746578743e3c2f673e3c2f7376673e000000000000008185015281890181905288519251915160009461033b9493929101610c58565b60405160208183030381529060405290506000610427858661035c876106b5565b6000546040517fd6e4fa86000000000000000000000000000000000000000000000000000000008152600481018f90526103f69173ffffffffffffffffffffffffffffffffffffffff169063d6e4fa8690602401602060405180830381865afa1580156103cd573d6000803e3d6000fd5b505050506040513d601f19601f820116820180604052508101906103f19190610c9b565b6106b5565b6103ff876107f2565b604051602001610413959493929190610cb4565b6040516020818303038152906040526107f2565b90508060405160200161043a9190610ef0565b60408051601f198184030181529190529998505050505050505050565b8051600090819081905b8082101561065557600085838151811061047d5761047d610c29565b01602001517fff000000000000000000000000000000000000000000000000000000000000001690507f80000000000000000000000000000000000000000000000000000000000000008110156104e0576104d9600184610f64565b9250610642565b7fe0000000000000000000000000000000000000000000000000000000000000007fff0000000000000000000000000000000000000000000000000000000000000082161015610535576104d9600284610f64565b7ff0000000000000000000000000000000000000000000000000000000000000007fff000000000000000000000000000000000000000000000000000000000000008216101561058a576104d9600384610f64565b7ff8000000000000000000000000000000000000000000000000000000000000007fff00000000000000000000000000000000000000000000000000000000000000821610156105df576104d9600484610f64565b7ffc000000000000000000000000000000000000000000000000000000000000007fff0000000000000000000000000000000000000000000000000000000000000082161015610634576104d9600584610f64565b61063f600684610f64565b92505b508261064d81610f7d565b935050610461565b50909392505050565b6060600061066b83610457565b9050601481106106ae57600061068384826013610945565b9050806040516020016106969190610fb5565b60405160208183030381529060405292505050919050565b5090919050565b6060816000036106f857505060408051808201909152600181527f3000000000000000000000000000000000000000000000000000000000000000602082015290565b8160005b8115610722578061070c81610f7d565b915061071b9050600a83611025565b91506106fc565b60008167ffffffffffffffff81111561073d5761073d610ad9565b6040519080825280601f01601f191660200182016040528015610767576020820181803683370190505b5090505b84156107ea5761077c600183611039565b9150610789600a8661104c565b610794906030610f64565b60f81b8183815181106107a9576107a9610c29565b60200101907effffffffffffffffffffffffffffffffffffffffffffffffffffffffffffff1916908160001a9053506107e3600a86611025565b945061076b565b949350505050565b6060815160000361081157505060408051602081019091526000815290565b60006040518060600160405280604081526020016113b760409139905060006003845160026108409190610f64565b61084a9190611025565b610855906004611060565b67ffffffffffffffff81111561086d5761086d610ad9565b6040519080825280601f01601f191660200182016040528015610897576020820181803683370190505b509050600182016020820185865187015b80821015610903576003820191508151603f8160121c168501518453600184019350603f81600c1c168501518453600184019350603f8160061c168501518453600184019350603f81168501518453506001830192506108a8565b505060038651066001811461091f57600281146109325761093a565b603d6001830353603d600283035361093a565b603d60018303535b509195945050505050565b60608360006109548585611039565b67ffffffffffffffff81111561096c5761096c610ad9565b6040519080825280601f01601f191660200182016040528015610996576020820181803683370190505b509050845b84811015610a38578281815181106109b5576109b5610c29565b01602001517fff0000000000000000000000000000000000000000000000000000000000000016826109e78884611039565b815181106109f7576109f7610c29565b60200101907effffffffffffffffffffffffffffffffffffffffffffffffffffffffffffff1916908160001a90535080610a3081610f7d565b91505061099b565b5095945050505050565b6040518060e001604052806007905b6060815260200190600190039081610a515790505090565b600060208284031215610a7b57600080fd5b5035919050565b60005b83811015610a9d578181015183820152602001610a85565b50506000910152565b6020815260008251806020840152610ac5816040850160208701610a82565b601f01601f19169190910160400192915050565b7f4e487b7100000000000000000000000000000000000000000000000000000000600052604160045260246000fd5b600060208284031215610b1a57600080fd5b815167ffffffffffffffff80821115610b3257600080fd5b818401915084601f830112610b4657600080fd5b815181811115610b5857610b58610ad9565b604051601f8201601f19908116603f01168101908382118183101715610b8057610b80610ad9565b81604052828152876020848701011115610b9957600080fd5b610baa836020830160208801610a82565b979650505050505050565b60008151610bc7818560208601610a82565b9290920192915050565b60008351610be3818460208801610a82565b7f2e000000000000000000000000000000000000000000000000000000000000009083019081528351610c1d816001840160208801610a82565b01600101949350505050565b7f4e487b7100000000000000000000000000000000000000000000000000000000600052603260045260246000fd5b60008451610c6a818460208901610a82565b845190830190610c7e818360208901610a82565b8451910190610c91818360208801610a82565b0195945050505050565b600060208284031215610cad57600080fd5b5051919050565b7f7b226e616d65223a202200000000000000000000000000000000000000000000815260008651610cec81600a850160208b01610a82565b7f222c20226465736372697074696f6e223a220000000000000000000000000000600a918401918201528651610d2981601c840160208b01610a82565b7f2c20616e207765623320646f6d61696e206e616d6520666f7220706f702e222c601c92909101918201527f202261747472696275746573223a5b7b2274726169745f74797065223a224c65603c8201527f6e677468222c22646973706c61795f74797065223a226e756d626572222c2276605c8201527f616c7565223a2022000000000000000000000000000000000000000000000000607c8201528551610dd9816084840160208a01610a82565b7f227d2c7b2274726169745f74797065223a2245787069726174696f6e20446174608492909101918201527f65222c22646973706c61795f74797065223a2264617465222c2276616c75652260a48201527f3a2200000000000000000000000000000000000000000000000000000000000060c4820152610ee4610ebb610eb5610e6660c6850189610bb5565b7f227d5d2c2022696d616765223a2022646174613a696d6167652f7376672b786d81527f6c3b6261736536342c0000000000000000000000000000000000000000000000602082015260290190565b86610bb5565b7f227d000000000000000000000000000000000000000000000000000000000000815260020190565b98975050505050505050565b7f646174613a6170706c69636174696f6e2f6a736f6e3b6261736536342c000000815260008251610f2881601d850160208701610a82565b91909101601d0192915050565b7f4e487b7100000000000000000000000000000000000000000000000000000000600052601160045260246000fd5b80820180821115610f7757610f77610f35565b92915050565b60007fffffffffffffffffffffffffffffffffffffffffffffffffffffffffffffffff8203610fae57610fae610f35565b5060010190565b60008251610fc7818460208701610a82565b7f2e2e2e0000000000000000000000000000000000000000000000000000000000920191825250600301919050565b7f4e487b7100000000000000000000000000000000000000000000000000000000600052601260045260246000fd5b60008261103457611034610ff6565b500490565b81810381811115610f7757610f77610f35565b60008261105b5761105b610ff6565b500690565b8082028115828204841417610f7757610f77610f3556fe3c73766720786d6c6e733d22687474703a2f2f7777772e77332e6f72672f323030302f7376672220786d6c6e733a786c696e6b3d22687474703a2f2f7777772e77332e6f72672f313939392f786c696e6b222077696474683d2235303022206865696768743d22353030222076696577426f783d223020302035303020353030223e3c706174682069643d22612220643d224d302030683530307635303048307a222f3e3c672066696c6c3d226e6f6e65222066696c6c2d72756c653d226576656e6f6464223e3c706174682066696c6c3d22233030303030302220643d224d302030683530307635303048307a222f3e3c6d61736b2069643d2262222066696c6c3d2223666666223e3c75736520786c696e6b3a687265663d222361222f3e3c2f6d61736b3e3c67206d61736b3d2275726c28236229223e3c706174682066696c6c2d6f7061636974793d222e31222066696c6c3d22233030663238642220643d224d3235302d31326c3131312e3735203136302e3337354c35313220323530203336312e3735203335382032353020353132203133382e3235203335382d3132203235306c3135302e32352d3130312e3632357a222f3e3c706174682066696c6c2d6f7061636974793d222e31222066696c6c3d22234131393246462220643d224d3235302d3131352e37356c313536203232344c3631352e37352032353020343036203430302e37356c2d313536203231352d3135362d3231354c2d3131352e373520323530203934203130382e32357a222f3e3c706174682066696c6c2d6f7061636974793d222e31222066696c6c3d22233030663238642220643d224d3235302d3236302e354c3436372e37352035322e313235203736302e3520323530203436372e3735203436302e33373520323530203736302e352033322e3235203436302e3337352d3236302e35203235302033322e32352035322e3132357a222f3e3c2f673e3c7465787420666f6e742d66616d696c793d22617269616c2220666f6e742d73697a653d2233322220666f6e742d7765696768743d22353030222066696c6c3d2223303066323864223e3c747370616e20783d223530252220793d223236352220746578742d616e63686f723d226d6964646c65223e4142434445464748494a4b4c4d4e4f505152535455565758595a6162636465666768696a6b6c6d6e6f707172737475767778797a303132333435363738392b2fa26469706673582212209a96759ad405013d58eed1fb3ab40bc65d1f6ff785dcba832357ba50c67297a764736f6c63430008110033",
  "devdoc": {
    "kind": "dev",
    "methods": {},
    "version": 1
  },
  "userdoc": {
    "kind": "user",
    "methods": {},
    "version": 1
  },
  "storageLayout": {
    "storage": [
      {
        "astId": 9856,
        "contract": "contracts/registrar/TokenURIBuilder.sol:TokenURIBuilder",
        "label": "nft",
        "offset": 0,
        "slot": "0",
        "type": "t_contract(BaseRegistrarImplementation)7816"
      }
    ],
    "types": {
      "t_contract(BaseRegistrarImplementation)7816": {
        "encoding": "inplace",
        "label": "contract BaseRegistrarImplementation",
        "numberOfBytes": "20"
      }
    }
  }
}