{
  "_format": "hh-sol-artifact-1",
  "contractName": "TokenSaleDistributorProxyStorage",
  "sourceName": "contracts/vesting/TokenSaleDistributorProxyStorage.sol",
  "abi": [
    {
      "inputs": [],
      "name": "admin",
      "outputs": [
        {
          "internalType": "address",
          "name": "",
          "type": "address"
        }
      ],
      "stateMutability": "view",
      "type": "function"
    },
    {
      "inputs": [],
      "name": "implementation",
      "outputs": [
        {
          "internalType": "address",
          "name": "",
          "type": "address"
        }
      ],
      "stateMutability": "view",
      "type": "function"
    },
    {
      "inputs": [],
      "name": "pendingAdmin",
      "outputs": [
        {
          "internalType": "address",
          "name": "",
          "type": "address"
        }
      ],
      "stateMutability": "view",
      "type": "function"
    },
    {
      "inputs": [],
      "name": "pendingImplementation",
      "outputs": [
        {
          "internalType": "address",
          "name": "",
          "type": "address"
        }
      ],
      "stateMutability": "view",
      "type": "function"
    }
  ],
  "bytecode": "0x608060405234801561001057600080fd5b5060e58061001f6000396000f3fe6080604052348015600f57600080fd5b506004361060465760003560e01c80632678224714604b578063396f7b231460795780635c60da1b14608b578063f851a44014609d575b600080fd5b600154605d906001600160a01b031681565b6040516001600160a01b03909116815260200160405180910390f35b600354605d906001600160a01b031681565b600254605d906001600160a01b031681565b600054605d906001600160a01b03168156fea26469706673582212205ffd2801a2a72aa97d689893dc8251ea4c49fdb1d1c170d0137e81c37d91252164736f6c634300080a0033",
  "linkReferences": {},
  "deployedLinkReferences": {}
}