{
  "_format": "hh-sol-artifact-1",
  "contractName": "TokenSaleDistributorProxy",
  "sourceName": "contracts/vesting/TokenSaleDistributorProxy.sol",
  "abi": [
    {
      "inputs": [],
      "stateMutability": "nonpayable",
      "type": "constructor"
    },
    {
      "anonymous": false,
      "inputs": [
        {
          "indexed": false,
          "internalType": "address",
          "name": "newAdmin",
          "type": "address"
        }
      ],
      "name": "AdminChanged",
      "type": "event"
    },
    {
      "anonymous": false,
      "inputs": [
        {
          "indexed": false,
          "internalType": "address",
          "name": "newImpl",
          "type": "address"
        }
      ],
      "name": "ImplChanged",
      "type": "event"
    },
    {
      "stateMutability": "payable",
      "type": "fallback"
    },
    {
      "inputs": [],
      "name": "acceptPendingAdmin",
      "outputs": [],
      "stateMutability": "nonpayable",
      "type": "function"
    },
    {
      "inputs": [],
      "name": "acceptPendingImplementation",
      "outputs": [],
      "stateMutability": "nonpayable",
      "type": "function"
    },
    {
      "inputs": [],
      "name": "admin",
      "outputs": [
        {
          "internalType": "address",
          "name": "",
          "type": "address"
        }
      ],
      "stateMutability": "view",
      "type": "function"
    },
    {
      "inputs": [],
      "name": "implementation",
      "outputs": [
        {
          "internalType": "address",
          "name": "",
          "type": "address"
        }
      ],
      "stateMutability": "view",
      "type": "function"
    },
    {
      "inputs": [],
      "name": "pendingAdmin",
      "outputs": [
        {
          "internalType": "address",
          "name": "",
          "type": "address"
        }
      ],
      "stateMutability": "view",
      "type": "function"
    },
    {
      "inputs": [],
      "name": "pendingImplementation",
      "outputs": [
        {
          "internalType": "address",
          "name": "",
          "type": "address"
        }
      ],
      "stateMutability": "view",
      "type": "function"
    },
    {
      "inputs": [
        {
          "internalType": "address",
          "name": "newAdmin",
          "type": "address"
        }
      ],
      "name": "setPendingAdmin",
      "outputs": [],
      "stateMutability": "nonpayable",
      "type": "function"
    },
    {
      "inputs": [
        {
          "internalType": "address",
          "name": "newImplementation",
          "type": "address"
        }
      ],
      "name": "setPendingImplementation",
      "outputs": [],
      "stateMutability": "nonpayable",
      "type": "function"
    }
  ],
  "bytecode": "0x608060405234801561001057600080fd5b506001600081905580546001600160a01b031916331790556105af806100376000396000f3fe60806040526004361061007b5760003560e01c80634dd18bf51161004e5780634dd18bf51461018a5780635c60da1b146101aa578063709920c1146101ca578063f851a440146101df5761007b565b806309ed43c9146100f757806316ec205c14610119578063267822471461012e578063396f7b231461016a575b6003546040516000916001600160a01b03169061009b9083903690610539565b600060405180830381855af49150503d80600081146100d6576040519150601f19603f3d011682016040523d82523d6000602084013e6100db565b606091505b505090506040513d806000833e8280156100f3578183f35b8183fd5b34801561010357600080fd5b50610117610112366004610549565b6101ff565b005b34801561012557600080fd5b506101176102c3565b34801561013a57600080fd5b5060025461014e906001600160a01b031681565b6040516001600160a01b03909116815260200160405180910390f35b34801561017657600080fd5b5060045461014e906001600160a01b031681565b34801561019657600080fd5b506101176101a5366004610549565b6103b1565b3480156101b657600080fd5b5060035461014e906001600160a01b031681565b3480156101d657600080fd5b50610117610470565b3480156101eb57600080fd5b5060015461014e906001600160a01b031681565b6001546001600160a01b0316331461024b5760405162461bcd60e51b815260206004820152600a60248201526961646d696e206f6e6c7960b01b60448201526064015b60405180910390fd5b6001600160a01b0381166102a15760405162461bcd60e51b815260206004820152601a60248201527f43616e6e6f742073657420746f207a65726f20616464726573730000000000006044820152606401610242565b600480546001600160a01b0319166001600160a01b0392909216919091179055565b6004546001600160a01b0316331480156102e757506004546001600160a01b031615155b6103525760405162461bcd60e51b815260206004820152603660248201527f4f6e6c79207468652070656e64696e6720696d706c656d656e746174696f6e20604482015275636f6e74726163742063616e2063616c6c207468697360501b6064820152608401610242565b60048054600380546001600160a01b0383166001600160a01b031991821681179092559091169091556040519081527f71c6652673eb67790348b38b966a87b710bf7596bafa96d43f09f9c6872bd5a1906020015b60405180910390a1565b6001546001600160a01b031633146103f85760405162461bcd60e51b815260206004820152600a60248201526961646d696e206f6e6c7960b01b6044820152606401610242565b6001600160a01b03811661044e5760405162461bcd60e51b815260206004820152601a60248201527f43616e6e6f742073657420746f207a65726f20616464726573730000000000006044820152606401610242565b600280546001600160a01b0319166001600160a01b0392909216919091179055565b6002546001600160a01b03163314801561049457506002546001600160a01b031615155b6104e05760405162461bcd60e51b815260206004820181905260248201527f43616c6c6572206d757374206265207468652070656e64696e672061646d696e6044820152606401610242565b60028054600180546001600160a01b0383166001600160a01b031991821681179092559091169091556040519081527f7ce7ec0b50378fb6c0186ffb5f48325f6593fcb4ca4386f21861af3129188f5c906020016103a7565b8183823760009101908152919050565b60006020828403121561055b57600080fd5b81356001600160a01b038116811461057257600080fd5b939250505056fea26469706673582212200fa669f4e5e0814dc42cdee1373e2bee161d2f49766296f0d5eb32a4099ae60c64736f6c634300080a0033",
  "linkReferences": {},
  "deployedLinkReferences": {}
}