{"contracts/NFTs/GenesisNFT/Genesis.sol":{"Genesis":{"abi":[{"inputs":[],"stateMutability":"nonpayable","type":"constructor"},{"anonymous":false,"inputs":[{"indexed":true,"internalType":"address","name":"owner","type":"address"},{"indexed":true,"internalType":"address","name":"approved","type":"address"},{"indexed":true,"internalType":"uint256","name":"tokenId","type":"uint256"}],"name":"Approval","type":"event"},{"anonymous":false,"inputs":[{"indexed":true,"internalType":"address","name":"owner","type":"address"},{"indexed":true,"internalType":"address","name":"operator","type":"address"},{"indexed":false,"internalType":"bool","name":"approved","type":"bool"}],"name":"ApprovalForAll","type":"event"},{"anonymous":false,"inputs":[{"indexed":false,"internalType":"uint256","name":"_fromTokenId","type":"uint256"},{"indexed":false,"internalType":"uint256","name":"_toTokenId","type":"uint256"}],"name":"BatchMetadataUpdate","type":"event"},{"anonymous":false,"inputs":[{"indexed":false,"internalType":"uint8","name":"version","type":"uint8"}],"name":"Initialized","type":"event"},{"anonymous":false,"inputs":[{"indexed":false,"internalType":"uint256","name":"_tokenId","type":"uint256"}],"name":"MetadataUpdate","type":"event"},{"anonymous":false,"inputs":[{"indexed":true,"internalType":"bytes32","name":"role","type":"bytes32"},{"indexed":true,"internalType":"bytes32","name":"previousAdminRole","type":"bytes32"},{"indexed":true,"internalType":"bytes32","name":"newAdminRole","type":"bytes32"}],"name":"RoleAdminChanged","type":"event"},{"anonymous":false,"inputs":[{"indexed":true,"internalType":"bytes32","name":"role","type":"bytes32"},{"indexed":true,"internalType":"address","name":"account","type":"address"},{"indexed":true,"internalType":"address","name":"sender","type":"address"}],"name":"RoleGranted","type":"event"},{"anonymous":false,"inputs":[{"indexed":true,"internalType":"bytes32","name":"role","type":"bytes32"},{"indexed":true,"internalType":"address","name":"account","type":"address"},{"indexed":true,"internalType":"address","name":"sender","type":"address"}],"name":"RoleRevoked","type":"event"},{"anonymous":false,"inputs":[{"indexed":true,"internalType":"address","name":"from","type":"address"},{"indexed":true,"internalType":"address","name":"to","type":"address"},{"indexed":true,"internalType":"uint256","name":"tokenId","type":"uint256"}],"name":"Transfer","type":"event"},{"inputs":[],"name":"DEFAULT_ADMIN_ROLE","outputs":[{"internalType":"bytes32","name":"","type":"bytes32"}],"stateMutability":"view","type":"function"},{"inputs":[],"name":"MINTER_ROLE","outputs":[{"internalType":"bytes32","name":"","type":"bytes32"}],"stateMutability":"view","type":"function"},{"inputs":[{"internalType":"uint256","name":"","type":"uint256"}],"name":"accessoryOrder","outputs":[{"internalType":"address","name":"","type":"address"}],"stateMutability":"view","type":"function"},{"inputs":[],"name":"accessorySlots","outputs":[{"internalType":"uint8","name":"","type":"uint8"}],"stateMutability":"view","type":"function"},{"inputs":[{"internalType":"address[]","name":"_whitelistAddrs","type":"address[]"}],"name":"addToWhitelist","outputs":[],"stateMutability":"nonpayable","type":"function"},{"inputs":[{"internalType":"address","name":"_contractAddr","type":"address"}],"name":"addWhitelistedContract","outputs":[],"stateMutability":"nonpayable","type":"function"},{"inputs":[{"internalType":"address","name":"to","type":"address"},{"internalType":"uint256","name":"tokenId","type":"uint256"}],"name":"approve","outputs":[],"stateMutability":"nonpayable","type":"function"},{"inputs":[{"internalType":"address","name":"owner","type":"address"}],"name":"balanceOf","outputs":[{"internalType":"uint256","name":"","type":"uint256"}],"stateMutability":"view","type":"function"},{"inputs":[{"internalType":"uint256","name":"tokenId","type":"uint256"}],"name":"claim","outputs":[],"stateMutability":"nonpayable","type":"function"},{"inputs":[{"internalType":"uint256","name":"_tokenId","type":"uint256"},{"internalType":"uint256","name":"accessoryType","type":"uint256"}],"name":"deEquipAccessory","outputs":[],"stateMutability":"nonpayable","type":"function"},{"inputs":[{"internalType":"uint256","name":"_tokenId","type":"uint256"}],"name":"deEquipAllAccessories","outputs":[],"stateMutability":"nonpayable","type":"function"},{"inputs":[{"internalType":"uint256","name":"_tokenId","type":"uint256"},{"components":[{"internalType":"address","name":"contractAddr","type":"address"},{"internalType":"uint256","name":"accessoryId","type":"uint256"}],"internalType":"struct Genesis.Accessory[]","name":"_accessories","type":"tuple[]"},{"internalType":"string","name":"_uri","type":"string"}],"name":"equipAccessories","outputs":[],"stateMutability":"nonpayable","type":"function"},{"inputs":[{"internalType":"uint256","name":"","type":"uint256"},{"internalType":"uint256","name":"","type":"uint256"}],"name":"equippedAccessories","outputs":[{"internalType":"address","name":"contractAddr","type":"address"},{"internalType":"uint256","name":"accessoryId","type":"uint256"}],"stateMutability":"view","type":"function"},{"inputs":[{"internalType":"uint256","name":"tokenId","type":"uint256"}],"name":"getApproved","outputs":[{"internalType":"address","name":"","type":"address"}],"stateMutability":"view","type":"function"},{"inputs":[{"internalType":"bytes32","name":"role","type":"bytes32"}],"name":"getRoleAdmin","outputs":[{"internalType":"bytes32","name":"","type":"bytes32"}],"stateMutability":"view","type":"function"},{"inputs":[],"name":"getTotalSupply","outputs":[{"internalType":"uint256","name":"","type":"uint256"}],"stateMutability":"view","type":"function"},{"inputs":[{"internalType":"bytes32","name":"role","type":"bytes32"},{"internalType":"address","name":"account","type":"address"}],"name":"grantRole","outputs":[],"stateMutability":"nonpayable","type":"function"},{"inputs":[{"internalType":"bytes32","name":"role","type":"bytes32"},{"internalType":"address","name":"account","type":"address"}],"name":"hasRole","outputs":[{"internalType":"bool","name":"","type":"bool"}],"stateMutability":"view","type":"function"},{"inputs":[{"internalType":"address[]","name":"_whitelistedContracts","type":"address[]"}],"name":"initialize","outputs":[],"stateMutability":"nonpayable","type":"function"},{"inputs":[{"internalType":"address","name":"owner","type":"address"},{"internalType":"address","name":"operator","type":"address"}],"name":"isApprovedForAll","outputs":[{"internalType":"bool","name":"","type":"bool"}],"stateMutability":"view","type":"function"},{"inputs":[],"name":"name","outputs":[{"internalType":"string","name":"","type":"string"}],"stateMutability":"view","type":"function"},{"inputs":[{"internalType":"address","name":"","type":"address"},{"internalType":"address","name":"","type":"address"},{"internalType":"uint256[]","name":"","type":"uint256[]"},{"internalType":"uint256[]","name":"","type":"uint256[]"},{"internalType":"bytes","name":"","type":"bytes"}],"name":"onERC1155BatchReceived","outputs":[{"internalType":"bytes4","name":"","type":"bytes4"}],"stateMutability":"pure","type":"function"},{"inputs":[{"internalType":"address","name":"","type":"address"},{"internalType":"address","name":"","type":"address"},{"internalType":"uint256","name":"","type":"uint256"},{"internalType":"uint256","name":"","type":"uint256"},{"internalType":"bytes","name":"","type":"bytes"}],"name":"onERC1155Received","outputs":[{"internalType":"bytes4","name":"","type":"bytes4"}],"stateMutability":"pure","type":"function"},{"inputs":[{"internalType":"uint256","name":"tokenId","type":"uint256"}],"name":"ownerOf","outputs":[{"internalType":"address","name":"","type":"address"}],"stateMutability":"view","type":"function"},{"inputs":[{"internalType":"address[]","name":"_whitelistAddrs","type":"address[]"}],"name":"removeFromWhitelist","outputs":[],"stateMutability":"nonpayable","type":"function"},{"inputs":[{"internalType":"address[]","name":"_whitelistedContracts","type":"address[]"}],"name":"removeWhitelistedContracts","outputs":[],"stateMutability":"nonpayable","type":"function"},{"inputs":[{"internalType":"bytes32","name":"role","type":"bytes32"},{"internalType":"address","name":"account","type":"address"}],"name":"renounceRole","outputs":[],"stateMutability":"nonpayable","type":"function"},{"inputs":[{"internalType":"bytes32","name":"role","type":"bytes32"},{"internalType":"address","name":"account","type":"address"}],"name":"revokeRole","outputs":[],"stateMutability":"nonpayable","type":"function"},{"inputs":[{"internalType":"address","name":"to","type":"address"},{"internalType":"uint256","name":"tokenId","type":"uint256"}],"name":"safeMint","outputs":[],"stateMutability":"nonpayable","type":"function"},{"inputs":[{"internalType":"address","name":"from","type":"address"},{"internalType":"address","name":"to","type":"address"},{"internalType":"uint256","name":"tokenId","type":"uint256"}],"name":"safeTransferFrom","outputs":[],"stateMutability":"nonpayable","type":"function"},{"inputs":[{"internalType":"address","name":"from","type":"address"},{"internalType":"address","name":"to","type":"address"},{"internalType":"uint256","name":"tokenId","type":"uint256"},{"internalType":"bytes","name":"data","type":"bytes"}],"name":"safeTransferFrom","outputs":[],"stateMutability":"nonpayable","type":"function"},{"inputs":[{"internalType":"address[]","name":"accessoryContracts","type":"address[]"}],"name":"setAccessoryOrder","outputs":[],"stateMutability":"nonpayable","type":"function"},{"inputs":[{"internalType":"uint8","name":"_accessorySlots","type":"uint8"}],"name":"setAccessorySlots","outputs":[],"stateMutability":"nonpayable","type":"function"},{"inputs":[{"internalType":"address","name":"operator","type":"address"},{"internalType":"bool","name":"approved","type":"bool"}],"name":"setApprovalForAll","outputs":[],"stateMutability":"nonpayable","type":"function"},{"inputs":[{"internalType":"address[]","name":"_whitelistedContracts","type":"address[]"},{"internalType":"uint8","name":"_accessorySlots","type":"uint8"}],"name":"setWhitelisted","outputs":[],"stateMutability":"nonpayable","type":"function"},{"inputs":[{"internalType":"bytes4","name":"interfaceId","type":"bytes4"}],"name":"supportsInterface","outputs":[{"internalType":"bool","name":"","type":"bool"}],"stateMutability":"view","type":"function"},{"inputs":[],"name":"symbol","outputs":[{"internalType":"string","name":"","type":"string"}],"stateMutability":"view","type":"function"},{"inputs":[{"internalType":"uint256","name":"tokenId","type":"uint256"}],"name":"tokenURI","outputs":[{"internalType":"string","name":"","type":"string"}],"stateMutability":"view","type":"function"},{"inputs":[{"internalType":"address","name":"from","type":"address"},{"internalType":"address","name":"to","type":"address"},{"internalType":"uint256","name":"tokenId","type":"uint256"}],"name":"transferFrom","outputs":[],"stateMutability":"nonpayable","type":"function"},{"inputs":[{"internalType":"address","name":"","type":"address"}],"name":"whitelistedContracts","outputs":[{"internalType":"bool","name":"","type":"bool"}],"stateMutability":"view","type":"function"},{"inputs":[{"internalType":"address","name":"","type":"address"}],"name":"whitelistedEOA","outputs":[{"internalType":"bool","name":"","type":"bool"}],"stateMutability":"view","type":"function"}],"evm":{"bytecode":{"linkReferences":{},"object":"60806040523480156200001157600080fd5b506200001c62000022565b620000e3565b600054610100900460ff16156200008f5760405162461bcd60e51b815260206004820152602760248201527f496e697469616c697a61626c653a20636f6e747261637420697320696e697469604482015266616c697a696e6760c81b606482015260840160405180910390fd5b60005460ff90811614620000e1576000805460ff191660ff9081179091556040519081527f7f26b83ff96e1f2b6a682f133852f6798a09c465da95921460cefb38474024989060200160405180910390a15b565b6130b880620000f36000396000f3fe608060405234801561001057600080fd5b50600436106102535760003560e01c80637f64978311610146578063bc197c81116100c3578063d0475bad11610087578063d0475bad146105ed578063d539139314610600578063d547741f14610627578063e1b86d701461063a578063e985e9c51461064d578063f23a6e611461068957600080fd5b8063bc197c8114610532578063c4e41b2214610586578063c87b56dd1461058e578063ca0d6fa8146105a1578063ce5be08b146105ca57600080fd5b8063a14481941161010a578063a1448194146104de578063a217fddf146104f1578063a224cee7146104f9578063a22cb4651461050c578063b88d4fde1461051f57600080fd5b80637f6497831461048a5780638bcb67051461049d57806391d14854146104b057806395d89b41146104c35780639cf788cd146104cb57600080fd5b806336568abe116101d4578063508510b711610198578063508510b7146103e1578063548db174146103f45780635c1c22b2146104075780636352211e1461046457806370a082311461047757600080fd5b806336568abe14610372578063379607f514610385578063391feebb1461039857806342842e0e146103bb57806346704adb146103ce57600080fd5b806315c6e5631161021b57806315c6e563146102e857806315f972c01461030857806323b872dd1461031b578063248a9ca31461032e5780632f2ff15d1461035f57600080fd5b806301ffc9a71461025857806306fdde0314610280578063081812fc14610295578063095ea7b3146102c05780631307c936146102d5575b600080fd5b61026b6102663660046125eb565b6106c2565b60405190151581526020015b60405180910390f35b6102886106d3565b6040516102779190612660565b6102a86102a3366004612673565b610765565b6040516001600160a01b039091168152602001610277565b6102d36102ce3660046126a8565b61078c565b005b6102d36102e33660046126e3565b6108a7565b610100546102f69060ff1681565b60405160ff9091168152602001610277565b6102d3610316366004612673565b6108ca565b6102d36103293660046126fe565b61096b565b61035161033c366004612673565b60009081526097602052604090206001015490565b604051908152602001610277565b6102d361036d36600461273a565b61099c565b6102d361038036600461273a565b6109c1565b6102d3610393366004612673565b610a3f565b61026b6103a6366004612766565b60fc6020526000908152604090205460ff1681565b6102d36103c93660046126fe565b610af9565b6102d36103dc366004612766565b610b14565b6102d36103ef3660046127cc565b610b89565b6102d36104023660046127cc565b610c0a565b61044561041536600461280d565b60fe602090815260009283526040808420909152908252902080546001909101546001600160a01b039091169082565b604080516001600160a01b039093168352602083019190915201610277565b6102a8610472366004612673565b610c7e565b610351610485366004612766565b610cde565b6102d36104983660046127cc565b610d64565b6102d36104ab3660046128fb565b610de1565b61026b6104be36600461273a565b610eb0565b610288610edb565b6102d36104d93660046129b6565b610eea565b6102d36104ec3660046126a8565b6112a1565b610351600081565b6102d3610507366004612a59565b6112ee565b6102d361051a366004612a8d565b6114a5565b6102d361052d366004612ac9565b6114b0565b61056d610540366004612b79565b7fbc197c819b3e337a6f9652dd10becd7eef83032af3b9d958d3d42f669414662198975050505050505050565b6040516001600160e01b03199091168152602001610277565b6103516114e2565b61028861059c366004612673565b6114f2565b6102a86105af366004612673565b60ff602052600090815260409020546001600160a01b031681565b61026b6105d8366004612766565b60fd6020526000908152604090205460ff1681565b6102d36105fb366004612a59565b6114fd565b6103517f9f2df0fed2c77648de5860a4cc508cd0818c85b8b8a1ab4ceeef8d981c8956a681565b6102d361063536600461273a565b6115c5565b6102d361064836600461280d565b6115ea565b61026b61065b366004612c33565b6001600160a01b039182166000908152606a6020908152604080832093909416825291909152205460ff1690565b61056d610697366004612c5d565b7ff23a6e612e1ff4830e658fe43f4e3cb4a5f8170bd5d9e69fb5d7a7fa9e4fdf979695505050505050565b60006106cd826116b9565b92915050565b6060606580546106e290612cd4565b80601f016020809104026020016040519081016040528092919081815260200182805461070e90612cd4565b801561075b5780601f106107305761010080835404028352916020019161075b565b820191906000526020600020905b81548152906001019060200180831161073e57829003601f168201915b5050505050905090565b6000610770826116de565b506000908152606960205260409020546001600160a01b031690565b600061079782610c7e565b9050806001600160a01b0316836001600160a01b0316141561080a5760405162461bcd60e51b815260206004820152602160248201527f4552433732313a20617070726f76616c20746f2063757272656e74206f776e656044820152603960f91b60648201526084015b60405180910390fd5b336001600160a01b03821614806108265750610826813361065b565b6108985760405162461bcd60e51b815260206004820152603d60248201527f4552433732313a20617070726f76652063616c6c6572206973206e6f7420746f60448201527f6b656e206f776e6572206f7220617070726f76656420666f7220616c6c0000006064820152608401610801565b6108a2838361173d565b505050565b60006108b2816117ab565b50610100805460ff191660ff92909216919091179055565b80336108d582610c7e565b6001600160a01b0316146108fb5760405162461bcd60e51b815260040161080190612d0f565b60005b6101005460ff168110156108a2576040805180820182526000808252602080830182815287835260fe8252848320868452909152929020905181546001600160a01b0319166001600160a01b0390911617815590516001909101558061096381612d48565b9150506108fe565b61097533826117b5565b6109915760405162461bcd60e51b815260040161080190612d63565b6108a2838383611834565b6000828152609760205260409020600101546109b7816117ab565b6108a28383611998565b6001600160a01b0381163314610a315760405162461bcd60e51b815260206004820152602f60248201527f416363657373436f6e74726f6c3a2063616e206f6e6c792072656e6f756e636560448201526e103937b632b9903337b91039b2b63360891b6064820152608401610801565b610a3b8282611a1e565b5050565b33600090815260fd602052604090205460ff161515600114610a955760405162461bcd60e51b815260206004820152600f60248201526e1b9bdd081dda1a5d195b1a5cdd1959608a1b6044820152606401610801565b610a9e33610cde565b15610ade5760405162461bcd60e51b815260206004820152601060248201526f1b585e080c481c195c881dd85b1b195d60821b6044820152606401610801565b610aec60fb80546001019055565b610af63382611a85565b50565b6108a2838383604051806020016040528060008152506114b0565b6000610b1f816117ab565b6001600160a01b038216610b645760405162461bcd60e51b815260206004820152600c60248201526b06e6f206164647265737320360a41b6044820152606401610801565b506001600160a01b0316600090815260fc60205260409020805460ff19166001179055565b6000610b94816117ab565b60005b82811015610c0457838382818110610bb157610bb1612db0565b9050602002016020810190610bc69190612766565b600082815260ff6020526040902080546001600160a01b0319166001600160a01b039290921691909117905580610bfc81612d48565b915050610b97565b50505050565b6000610c15816117ab565b60005b82811015610c045760fd6000858584818110610c3657610c36612db0565b9050602002016020810190610c4b9190612766565b6001600160a01b031681526020810191909152604001600020805460ff1916905580610c7681612d48565b915050610c18565b6000818152606760205260408120546001600160a01b0316806106cd5760405162461bcd60e51b8152602060048201526018602482015277115490cdcc8c4e881a5b9d985b1a59081d1bdad95b88125160421b6044820152606401610801565b60006001600160a01b038216610d485760405162461bcd60e51b815260206004820152602960248201527f4552433732313a2061646472657373207a65726f206973206e6f7420612076616044820152683634b21037bbb732b960b91b6064820152608401610801565b506001600160a01b031660009081526068602052604090205490565b6000610d6f816117ab565b60005b82811015610c0457600160fd6000868685818110610d9257610d92612db0565b9050602002016020810190610da79190612766565b6001600160a01b031681526020810191909152604001600020805460ff191691151591909117905580610dd981612d48565b915050610d72565b6000610dec816117ab565b8160ff16835114610e2e5760405162461bcd60e51b815260206004820152600c60248201526b0eee4dedcce40d8cadccee8d60a31b6044820152606401610801565b60005b8351811015610e9657600160fc6000868481518110610e5257610e52612db0565b6020908102919091018101516001600160a01b03168252810191909152604001600020805460ff191691151591909117905580610e8e81612d48565b915050610e31565b5050610100805460ff191660ff9290921691909117905550565b60009182526097602090815260408084206001600160a01b0393909316845291905290205460ff1690565b6060606680546106e290612cd4565b8333610ef582610c7e565b6001600160a01b031614610f1b5760405162461bcd60e51b815260040161080190612d0f565b8383808060200260200160405190810160405280939291908181526020016000905b82821015610f6957610f5a60408302860136819003810190612dc6565b81526020019060010190610f3d565b505061010054845160ff90911610159250610fb89150505760405162461bcd60e51b815260206004820152600c60248201526b0eee4dedcce40d8cadccee8d60a31b6044820152606401610801565b60005b81518110156110ce5760fc6000838381518110610fda57610fda612db0565b602090810291909101810151516001600160a01b031682528101919091526040016000205460ff1615156001146110455760405162461bcd60e51b815260206004820152600f60248201526e1b9bdd081dda1a5d195b1a5cdd1959608a1b6044820152606401610801565b81818151811061105757611057612db0565b60209081029190910181015151600083815260ff9092526040909120546001600160a01b039081169116146110bc5760405162461bcd60e51b815260206004820152600b60248201526a3bb937b7339037b93232b960a91b6044820152606401610801565b806110c681612d48565b915050610fbb565b5060005b8481101561128e57600087815260fe60209081526040808320848452825291829020825180840190935280546001600160a01b031680845260019091015491830191909152158015906111285750602081015115155b156111995780516020820151604051637921219560e11b81526001600160a01b039092169163f242432a916111669130913391600190600401612e1c565b600060405180830381600087803b15801561118057600080fd5b505af1158015611194573d6000803e3d6000fd5b505050505b60008787848181106111ad576111ad612db0565b9050604002018036038101906111c39190612dc6565b9050806020015160001461123d5780516020820151604051637921219560e11b81526001600160a01b039092169163f242432a9161120a9133913091600190600401612e1c565b600060405180830381600087803b15801561122457600080fd5b505af1158015611238573d6000803e3d6000fd5b505050505b600089815260fe602090815260408083208684528252909120825181546001600160a01b0319166001600160a01b03909116178155910151600190910155508061128681612d48565b9150506110d2565b506112998684611a9f565b505050505050565b7f9f2df0fed2c77648de5860a4cc508cd0818c85b8b8a1ab4ceeef8d981c8956a66112cb816117ab565b60006112d6816117ab565b6112e460fb80546001019055565b610c048484611a85565b600054610100900460ff161580801561130e5750600054600160ff909116105b806113285750303b158015611328575060005460ff166001145b61138b5760405162461bcd60e51b815260206004820152602e60248201527f496e697469616c697a61626c653a20636f6e747261637420697320616c72656160448201526d191e481a5b9a5d1a585b1a5e995960921b6064820152608401610801565b6000805460ff1916600117905580156113ae576000805461ff0019166101001790555b6113fa6040518060400160405280600b81526020016a11d95b995cda5cc813919560aa1b8152506040518060400160405280600781526020016647454e4553495360c81b815250611b6a565b611402611b9b565b61140a611b9b565b611415600033611998565b61143f7f9f2df0fed2c77648de5860a4cc508cd0818c85b8b8a1ab4ceeef8d981c8956a633611998565b610100805460ff1916600490811790915561145b908390610de1565b8015610a3b576000805461ff0019169055604051600181527f7f26b83ff96e1f2b6a682f133852f6798a09c465da95921460cefb3847402498906020015b60405180910390a15050565b610a3b338383611bc4565b6114ba33836117b5565b6114d65760405162461bcd60e51b815260040161080190612d63565b610c0484848484611c93565b60006114ed60fb5490565b905090565b60606106cd82611cc6565b6000611508816117ab565b60005b82518110156108a25760fc600084838151811061152a5761152a612db0565b6020908102919091018101516001600160a01b031682528101919091526040016000205460ff161515600114156115b357600060fc600085848151811061157357611573612db0565b60200260200101516001600160a01b03166001600160a01b0316815260200190815260200160002060006101000a81548160ff0219169083151502179055505b806115bd81612d48565b91505061150b565b6000828152609760205260409020600101546115e0816117ab565b6108a28383611a1e565b81336115f582610c7e565b6001600160a01b03161461161b5760405162461bcd60e51b815260040161080190612d0f565b6101005460ff168211156116695760405162461bcd60e51b8152602060048201526015602482015274696e76616c6964206163636573736f72795479706560581b6044820152606401610801565b506040805180820182526000808252602080830182815295825260fe8152838220948252939093529120905181546001600160a01b0319166001600160a01b039091161781559051600190910155565b60006001600160e01b03198216632483248360e11b14806106cd57506106cd82611dcf565b6000818152606760205260409020546001600160a01b0316610af65760405162461bcd60e51b8152602060048201526018602482015277115490cdcc8c4e881a5b9d985b1a59081d1bdad95b88125160421b6044820152606401610801565b600081815260696020526040902080546001600160a01b0319166001600160a01b038416908117909155819061177282610c7e565b6001600160a01b03167f8c5be1e5ebec7d5bd14f71427d1e84f3dd0314c0f7b2291e5b200ac8c7c3b92560405160405180910390a45050565b610af68133611df4565b6000806117c183610c7e565b9050806001600160a01b0316846001600160a01b0316148061180857506001600160a01b038082166000908152606a602090815260408083209388168352929052205460ff165b8061182c5750836001600160a01b031661182184610765565b6001600160a01b0316145b949350505050565b826001600160a01b031661184782610c7e565b6001600160a01b03161461186d5760405162461bcd60e51b815260040161080190612e54565b6001600160a01b0382166118cf5760405162461bcd60e51b8152602060048201526024808201527f4552433732313a207472616e7366657220746f20746865207a65726f206164646044820152637265737360e01b6064820152608401610801565b826001600160a01b03166118e282610c7e565b6001600160a01b0316146119085760405162461bcd60e51b815260040161080190612e54565b600081815260696020908152604080832080546001600160a01b03199081169091556001600160a01b0387811680865260688552838620805460001901905590871680865283862080546001019055868652606790945282852080549092168417909155905184937fddf252ad1be2c89b69c2b068fc378daa952ba7f163c4a11628f55a4df523b3ef91a4505050565b6119a28282610eb0565b610a3b5760008281526097602090815260408083206001600160a01b03851684529091529020805460ff191660011790556119da3390565b6001600160a01b0316816001600160a01b0316837f2f8788117e7eff1d82e926ec794901d17c78024a50270940304540a733656f0d60405160405180910390a45050565b611a288282610eb0565b15610a3b5760008281526097602090815260408083206001600160a01b0385168085529252808320805460ff1916905551339285917ff6391f5c32d9c69d2a47ea670b442974b53935d1edc7fd64eb21e047a839171b9190a45050565b610a3b828260405180602001604052806000815250611e4d565b6000828152606760205260409020546001600160a01b0316611b1a5760405162461bcd60e51b815260206004820152602e60248201527f45524337323155524953746f726167653a2055524920736574206f66206e6f6e60448201526d32bc34b9ba32b73a103a37b5b2b760911b6064820152608401610801565b600082815260c9602090815260409091208251611b399284019061253c565b506040518281527ff8e1a15aba9398e019f0b49df1a4fde98ee17ae345cb5f6b5e2c27f5033e8ce790602001611499565b600054610100900460ff16611b915760405162461bcd60e51b815260040161080190612e99565b610a3b8282611e80565b600054610100900460ff16611bc25760405162461bcd60e51b815260040161080190612e99565b565b816001600160a01b0316836001600160a01b03161415611c265760405162461bcd60e51b815260206004820152601960248201527f4552433732313a20617070726f766520746f2063616c6c6572000000000000006044820152606401610801565b6001600160a01b038381166000818152606a6020908152604080832094871680845294825291829020805460ff191686151590811790915591519182527f17307eab39ab6107e8899845ad3d59bd9653f200f220920489ca2b5937696c31910160405180910390a3505050565b611c9e848484611834565b611caa84848484611ece565b610c045760405162461bcd60e51b815260040161080190612ee4565b6060611cd1826116de565b600082815260c9602052604081208054611cea90612cd4565b80601f0160208091040260200160405190810160405280929190818152602001828054611d1690612cd4565b8015611d635780601f10611d3857610100808354040283529160200191611d63565b820191906000526020600020905b815481529060010190602001808311611d4657829003601f168201915b505050505090506000611d8160408051602081019091526000815290565b9050805160001415611d94575092915050565b815115611dc6578082604051602001611dae929190612f36565b60405160208183030381529060405292505050919050565b61182c84611fcc565b60006001600160e01b03198216637965db0b60e01b14806106cd57506106cd82612040565b611dfe8282610eb0565b610a3b57611e0b81612090565b611e168360206120a2565b604051602001611e27929190612f65565b60408051601f198184030181529082905262461bcd60e51b825261080191600401612660565b611e57838361223d565b611e646000848484611ece565b6108a25760405162461bcd60e51b815260040161080190612ee4565b600054610100900460ff16611ea75760405162461bcd60e51b815260040161080190612e99565b8151611eba90606590602085019061253c565b5080516108a290606690602084019061253c565b60006001600160a01b0384163b15611fc157604051630a85bd0160e11b81526001600160a01b0385169063150b7a0290611f12903390899088908890600401612fda565b6020604051808303816000875af1925050508015611f4d575060408051601f3d908101601f19168201909252611f4a91810190613017565b60015b611fa7573d808015611f7b576040519150601f19603f3d011682016040523d82523d6000602084013e611f80565b606091505b508051611f9f5760405162461bcd60e51b815260040161080190612ee4565b805181602001fd5b6001600160e01b031916630a85bd0160e11b14905061182c565b506001949350505050565b6060611fd7826116de565b6000611fee60408051602081019091526000815290565b9050600081511161200e5760405180602001604052806000815250612039565b80612018846123c8565b604051602001612029929190612f36565b6040516020818303038152906040525b9392505050565b60006001600160e01b031982166380ac58cd60e01b148061207157506001600160e01b03198216635b5e139f60e01b145b806106cd57506301ffc9a760e01b6001600160e01b03198316146106cd565b60606106cd6001600160a01b03831660145b606060006120b1836002613034565b6120bc906002613053565b6001600160401b038111156120d3576120d361282f565b6040519080825280601f01601f1916602001820160405280156120fd576020820181803683370190505b509050600360fc1b8160008151811061211857612118612db0565b60200101906001600160f81b031916908160001a905350600f60fb1b8160018151811061214757612147612db0565b60200101906001600160f81b031916908160001a905350600061216b846002613034565b612176906001613053565b90505b60018111156121ee576f181899199a1a9b1b9c1cb0b131b232b360811b85600f16601081106121aa576121aa612db0565b1a60f81b8282815181106121c0576121c0612db0565b60200101906001600160f81b031916908160001a90535060049490941c936121e78161306b565b9050612179565b5083156120395760405162461bcd60e51b815260206004820181905260248201527f537472696e67733a20686578206c656e67746820696e73756666696369656e746044820152606401610801565b6001600160a01b0382166122935760405162461bcd60e51b815260206004820181905260248201527f4552433732313a206d696e7420746f20746865207a65726f20616464726573736044820152606401610801565b6000818152606760205260409020546001600160a01b0316156122f85760405162461bcd60e51b815260206004820152601c60248201527f4552433732313a20746f6b656e20616c7265616479206d696e746564000000006044820152606401610801565b6000818152606760205260409020546001600160a01b03161561235d5760405162461bcd60e51b815260206004820152601c60248201527f4552433732313a20746f6b656e20616c7265616479206d696e746564000000006044820152606401610801565b6001600160a01b038216600081815260686020908152604080832080546001019055848352606790915280822080546001600160a01b0319168417905551839291907fddf252ad1be2c89b69c2b068fc378daa952ba7f163c4a11628f55a4df523b3ef908290a45050565b606060006123d583612464565b60010190506000816001600160401b038111156123f4576123f461282f565b6040519080825280601f01601f19166020018201604052801561241e576020820181803683370190505b5090508181016020015b600019016f181899199a1a9b1b9c1cb0b131b232b360811b600a86061a8153600a85049450846124575761245c565b612428565b509392505050565b60008072184f03e93ff9f4daa797ed6e38ed64bf6a1f0160401b83106124a35772184f03e93ff9f4daa797ed6e38ed64bf6a1f0160401b830492506040015b6d04ee2d6d415b85acef810000000083106124cf576d04ee2d6d415b85acef8100000000830492506020015b662386f26fc1000083106124ed57662386f26fc10000830492506010015b6305f5e1008310612505576305f5e100830492506008015b612710831061251957612710830492506004015b6064831061252b576064830492506002015b600a83106106cd5760010192915050565b82805461254890612cd4565b90600052602060002090601f01602090048101928261256a57600085556125b0565b82601f1061258357805160ff19168380011785556125b0565b828001600101855582156125b0579182015b828111156125b0578251825591602001919060010190612595565b506125bc9291506125c0565b5090565b5b808211156125bc57600081556001016125c1565b6001600160e01b031981168114610af657600080fd5b6000602082840312156125fd57600080fd5b8135612039816125d5565b60005b8381101561262357818101518382015260200161260b565b83811115610c045750506000910152565b6000815180845261264c816020860160208601612608565b601f01601f19169290920160200192915050565b6020815260006120396020830184612634565b60006020828403121561268557600080fd5b5035919050565b80356001600160a01b03811681146126a357600080fd5b919050565b600080604083850312156126bb57600080fd5b6126c48361268c565b946020939093013593505050565b803560ff811681146126a357600080fd5b6000602082840312156126f557600080fd5b612039826126d2565b60008060006060848603121561271357600080fd5b61271c8461268c565b925061272a6020850161268c565b9150604084013590509250925092565b6000806040838503121561274d57600080fd5b8235915061275d6020840161268c565b90509250929050565b60006020828403121561277857600080fd5b6120398261268c565b60008083601f84011261279357600080fd5b5081356001600160401b038111156127aa57600080fd5b6020830191508360208260051b85010111156127c557600080fd5b9250929050565b600080602083850312156127df57600080fd5b82356001600160401b038111156127f557600080fd5b61280185828601612781565b90969095509350505050565b6000806040838503121561282057600080fd5b50508035926020909101359150565b634e487b7160e01b600052604160045260246000fd5b604051601f8201601f191681016001600160401b038111828210171561286d5761286d61282f565b604052919050565b600082601f83011261288657600080fd5b813560206001600160401b038211156128a1576128a161282f565b8160051b6128b0828201612845565b92835284810182019282810190878511156128ca57600080fd5b83870192505b848310156128f0576128e18361268c565b825291830191908301906128d0565b979650505050505050565b6000806040838503121561290e57600080fd5b82356001600160401b0381111561292457600080fd5b61293085828601612875565b92505061275d602084016126d2565b60006001600160401b038311156129585761295861282f565b61296b601f8401601f1916602001612845565b905082815283838301111561297f57600080fd5b828260208301376000602084830101529392505050565b600082601f8301126129a757600080fd5b6120398383356020850161293f565b600080600080606085870312156129cc57600080fd5b8435935060208501356001600160401b03808211156129ea57600080fd5b818701915087601f8301126129fe57600080fd5b813581811115612a0d57600080fd5b8860208260061b8501011115612a2257600080fd5b602083019550809450506040870135915080821115612a4057600080fd5b50612a4d87828801612996565b91505092959194509250565b600060208284031215612a6b57600080fd5b81356001600160401b03811115612a8157600080fd5b61182c84828501612875565b60008060408385031215612aa057600080fd5b612aa98361268c565b915060208301358015158114612abe57600080fd5b809150509250929050565b60008060008060808587031215612adf57600080fd5b612ae88561268c565b9350612af66020860161268c565b92506040850135915060608501356001600160401b03811115612b1857600080fd5b8501601f81018713612b2957600080fd5b612a4d8782356020840161293f565b60008083601f840112612b4a57600080fd5b5081356001600160401b03811115612b6157600080fd5b6020830191508360208285010111156127c557600080fd5b60008060008060008060008060a0898b031215612b9557600080fd5b612b9e8961268c565b9750612bac60208a0161268c565b965060408901356001600160401b0380821115612bc857600080fd5b612bd48c838d01612781565b909850965060608b0135915080821115612bed57600080fd5b612bf98c838d01612781565b909650945060808b0135915080821115612c1257600080fd5b50612c1f8b828c01612b38565b999c989b5096995094979396929594505050565b60008060408385031215612c4657600080fd5b612c4f8361268c565b915061275d6020840161268c565b60008060008060008060a08789031215612c7657600080fd5b612c7f8761268c565b9550612c8d6020880161268c565b9450604087013593506060870135925060808701356001600160401b03811115612cb657600080fd5b612cc289828a01612b38565b979a9699509497509295939492505050565b600181811c90821680612ce857607f821691505b60208210811415612d0957634e487b7160e01b600052602260045260246000fd5b50919050565b6020808252600990820152683737ba1037bbb732b960b91b604082015260600190565b634e487b7160e01b600052601160045260246000fd5b6000600019821415612d5c57612d5c612d32565b5060010190565b6020808252602d908201527f4552433732313a2063616c6c6572206973206e6f7420746f6b656e206f776e6560408201526c1c881bdc88185c1c1c9bdd9959609a1b606082015260800190565b634e487b7160e01b600052603260045260246000fd5b600060408284031215612dd857600080fd5b604051604081018181106001600160401b0382111715612dfa57612dfa61282f565b604052612e068361268c565b8152602083013560208201528091505092915050565b6001600160a01b0394851681529290931660208301526040820152606081019190915260a06080820181905260009082015260c00190565b60208082526025908201527f4552433732313a207472616e736665722066726f6d20696e636f72726563742060408201526437bbb732b960d91b606082015260800190565b6020808252602b908201527f496e697469616c697a61626c653a20636f6e7472616374206973206e6f74206960408201526a6e697469616c697a696e6760a81b606082015260800190565b60208082526032908201527f4552433732313a207472616e7366657220746f206e6f6e20455243373231526560408201527131b2b4bb32b91034b6b83632b6b2b73a32b960711b606082015260800190565b60008351612f48818460208801612608565b835190830190612f5c818360208801612608565b01949350505050565b7f416363657373436f6e74726f6c3a206163636f756e7420000000000000000000815260008351612f9d816017850160208801612608565b7001034b99036b4b9b9b4b733903937b6329607d1b6017918401918201528351612fce816028840160208801612608565b01602801949350505050565b6001600160a01b038581168252841660208201526040810183905260806060820181905260009061300d90830184612634565b9695505050505050565b60006020828403121561302957600080fd5b8151612039816125d5565b600081600019048311821515161561304e5761304e612d32565b500290565b6000821982111561306657613066612d32565b500190565b60008161307a5761307a612d32565b50600019019056fea2646970667358221220ea0fb3c9192e8c5b060fe838513ce35b0de7d2b36958860f62870d6d7c628f2264736f6c634300080a0033","opcodes":"PUSH1 0x80 PUSH1 0x40 MSTORE CALLVALUE DUP1 ISZERO PUSH3 0x11 JUMPI PUSH1 0x0 DUP1 REVERT JUMPDEST POP PUSH3 0x1C PUSH3 0x22 JUMP JUMPDEST PUSH3 0xE3 JUMP JUMPDEST PUSH1 0x0 SLOAD PUSH2 0x100 SWAP1 DIV PUSH1 0xFF AND ISZERO PUSH3 0x8F JUMPI PUSH1 0x40 MLOAD PUSH3 0x461BCD PUSH1 0xE5 SHL DUP2 MSTORE PUSH1 0x20 PUSH1 0x4 DUP3 ADD MSTORE PUSH1 0x27 PUSH1 0x24 DUP3 ADD MSTORE PUSH32 0x496E697469616C697A61626C653A20636F6E747261637420697320696E697469 PUSH1 0x44 DUP3 ADD MSTORE PUSH7 0x616C697A696E67 PUSH1 0xC8 SHL PUSH1 0x64 DUP3 ADD MSTORE PUSH1 0x84 ADD PUSH1 0x40 MLOAD DUP1 SWAP2 SUB SWAP1 REVERT JUMPDEST PUSH1 0x0 SLOAD PUSH1 0xFF SWAP1 DUP2 AND EQ PUSH3 0xE1 JUMPI PUSH1 0x0 DUP1 SLOAD PUSH1 0xFF NOT AND PUSH1 0xFF SWAP1 DUP2 OR SWAP1 SWAP2 SSTORE PUSH1 0x40 MLOAD SWAP1 DUP2 MSTORE PUSH32 0x7F26B83FF96E1F2B6A682F133852F6798A09C465DA95921460CEFB3847402498 SWAP1 PUSH1 0x20 ADD PUSH1 0x40 MLOAD DUP1 SWAP2 SUB SWAP1 LOG1 JUMPDEST JUMP JUMPDEST PUSH2 0x30B8 DUP1 PUSH3 0xF3 PUSH1 0x0 CODECOPY PUSH1 0x0 RETURN INVALID PUSH1 0x80 PUSH1 0x40 MSTORE CALLVALUE DUP1 ISZERO PUSH2 0x10 JUMPI PUSH1 0x0 DUP1 REVERT JUMPDEST POP PUSH1 0x4 CALLDATASIZE LT PUSH2 0x253 JUMPI PUSH1 0x0 CALLDATALOAD PUSH1 0xE0 SHR DUP1 PUSH4 0x7F649783 GT PUSH2 0x146 JUMPI DUP1 PUSH4 0xBC197C81 GT PUSH2 0xC3 JUMPI DUP1 PUSH4 0xD0475BAD GT PUSH2 0x87 JUMPI DUP1 PUSH4 0xD0475BAD EQ PUSH2 0x5ED JUMPI DUP1 PUSH4 0xD5391393 EQ PUSH2 0x600 JUMPI DUP1 PUSH4 0xD547741F EQ PUSH2 0x627 JUMPI DUP1 PUSH4 0xE1B86D70 EQ PUSH2 0x63A JUMPI DUP1 PUSH4 0xE985E9C5 EQ PUSH2 0x64D JUMPI DUP1 PUSH4 0xF23A6E61 EQ PUSH2 0x689 JUMPI PUSH1 0x0 DUP1 REVERT JUMPDEST DUP1 PUSH4 0xBC197C81 EQ PUSH2 0x532 JUMPI DUP1 PUSH4 0xC4E41B22 EQ PUSH2 0x586 JUMPI DUP1 PUSH4 0xC87B56DD EQ PUSH2 0x58E JUMPI DUP1 PUSH4 0xCA0D6FA8 EQ PUSH2 0x5A1 JUMPI DUP1 PUSH4 0xCE5BE08B EQ PUSH2 0x5CA JUMPI PUSH1 0x0 DUP1 REVERT JUMPDEST DUP1 PUSH4 0xA1448194 GT PUSH2 0x10A JUMPI DUP1 PUSH4 0xA1448194 EQ PUSH2 0x4DE JUMPI DUP1 PUSH4 0xA217FDDF EQ PUSH2 0x4F1 JUMPI DUP1 PUSH4 0xA224CEE7 EQ PUSH2 0x4F9 JUMPI DUP1 PUSH4 0xA22CB465 EQ PUSH2 0x50C JUMPI DUP1 PUSH4 0xB88D4FDE EQ PUSH2 0x51F JUMPI PUSH1 0x0 DUP1 REVERT JUMPDEST DUP1 PUSH4 0x7F649783 EQ PUSH2 0x48A JUMPI DUP1 PUSH4 0x8BCB6705 EQ PUSH2 0x49D JUMPI DUP1 PUSH4 0x91D14854 EQ PUSH2 0x4B0 JUMPI DUP1 PUSH4 0x95D89B41 EQ PUSH2 0x4C3 JUMPI DUP1 PUSH4 0x9CF788CD EQ PUSH2 0x4CB JUMPI PUSH1 0x0 DUP1 REVERT JUMPDEST DUP1 PUSH4 0x36568ABE GT PUSH2 0x1D4 JUMPI DUP1 PUSH4 0x508510B7 GT PUSH2 0x198 JUMPI DUP1 PUSH4 0x508510B7 EQ PUSH2 0x3E1 JUMPI DUP1 PUSH4 0x548DB174 EQ PUSH2 0x3F4 JUMPI DUP1 PUSH4 0x5C1C22B2 EQ PUSH2 0x407 JUMPI DUP1 PUSH4 0x6352211E EQ PUSH2 0x464 JUMPI DUP1 PUSH4 0x70A08231 EQ PUSH2 0x477 JUMPI PUSH1 0x0 DUP1 REVERT JUMPDEST DUP1 PUSH4 0x36568ABE EQ PUSH2 0x372 JUMPI DUP1 PUSH4 0x379607F5 EQ PUSH2 0x385 JUMPI DUP1 PUSH4 0x391FEEBB EQ PUSH2 0x398 JUMPI DUP1 PUSH4 0x42842E0E EQ PUSH2 0x3BB JUMPI DUP1 PUSH4 0x46704ADB EQ PUSH2 0x3CE JUMPI PUSH1 0x0 DUP1 REVERT JUMPDEST DUP1 PUSH4 0x15C6E563 GT PUSH2 0x21B JUMPI DUP1 PUSH4 0x15C6E563 EQ PUSH2 0x2E8 JUMPI DUP1 PUSH4 0x15F972C0 EQ PUSH2 0x308 JUMPI DUP1 PUSH4 0x23B872DD EQ PUSH2 0x31B JUMPI DUP1 PUSH4 0x248A9CA3 EQ PUSH2 0x32E JUMPI DUP1 PUSH4 0x2F2FF15D EQ PUSH2 0x35F JUMPI PUSH1 0x0 DUP1 REVERT JUMPDEST DUP1 PUSH4 0x1FFC9A7 EQ PUSH2 0x258 JUMPI DUP1 PUSH4 0x6FDDE03 EQ PUSH2 0x280 JUMPI DUP1 PUSH4 0x81812FC EQ PUSH2 0x295 JUMPI DUP1 PUSH4 0x95EA7B3 EQ PUSH2 0x2C0 JUMPI DUP1 PUSH4 0x1307C936 EQ PUSH2 0x2D5 JUMPI JUMPDEST PUSH1 0x0 DUP1 REVERT JUMPDEST PUSH2 0x26B PUSH2 0x266 CALLDATASIZE PUSH1 0x4 PUSH2 0x25EB JUMP JUMPDEST PUSH2 0x6C2 JUMP JUMPDEST PUSH1 0x40 MLOAD SWAP1 ISZERO ISZERO DUP2 MSTORE PUSH1 0x20 ADD JUMPDEST PUSH1 0x40 MLOAD DUP1 SWAP2 SUB SWAP1 RETURN JUMPDEST PUSH2 0x288 PUSH2 0x6D3 JUMP JUMPDEST PUSH1 0x40 MLOAD PUSH2 0x277 SWAP2 SWAP1 PUSH2 0x2660 JUMP JUMPDEST PUSH2 0x2A8 PUSH2 0x2A3 CALLDATASIZE PUSH1 0x4 PUSH2 0x2673 JUMP JUMPDEST PUSH2 0x765 JUMP JUMPDEST PUSH1 0x40 MLOAD PUSH1 0x1 PUSH1 0x1 PUSH1 0xA0 SHL SUB SWAP1 SWAP2 AND DUP2 MSTORE PUSH1 0x20 ADD PUSH2 0x277 JUMP JUMPDEST PUSH2 0x2D3 PUSH2 0x2CE CALLDATASIZE PUSH1 0x4 PUSH2 0x26A8 JUMP JUMPDEST PUSH2 0x78C JUMP JUMPDEST STOP JUMPDEST PUSH2 0x2D3 PUSH2 0x2E3 CALLDATASIZE PUSH1 0x4 PUSH2 0x26E3 JUMP JUMPDEST PUSH2 0x8A7 JUMP JUMPDEST PUSH2 0x100 SLOAD PUSH2 0x2F6 SWAP1 PUSH1 0xFF AND DUP2 JUMP JUMPDEST PUSH1 0x40 MLOAD PUSH1 0xFF SWAP1 SWAP2 AND DUP2 MSTORE PUSH1 0x20 ADD PUSH2 0x277 JUMP JUMPDEST PUSH2 0x2D3 PUSH2 0x316 CALLDATASIZE PUSH1 0x4 PUSH2 0x2673 JUMP JUMPDEST PUSH2 0x8CA JUMP JUMPDEST PUSH2 0x2D3 PUSH2 0x329 CALLDATASIZE PUSH1 0x4 PUSH2 0x26FE JUMP JUMPDEST PUSH2 0x96B JUMP JUMPDEST PUSH2 0x351 PUSH2 0x33C CALLDATASIZE PUSH1 0x4 PUSH2 0x2673 JUMP JUMPDEST PUSH1 0x0 SWAP1 DUP2 MSTORE PUSH1 0x97 PUSH1 0x20 MSTORE PUSH1 0x40 SWAP1 KECCAK256 PUSH1 0x1 ADD SLOAD SWAP1 JUMP JUMPDEST PUSH1 0x40 MLOAD SWAP1 DUP2 MSTORE PUSH1 0x20 ADD PUSH2 0x277 JUMP JUMPDEST PUSH2 0x2D3 PUSH2 0x36D CALLDATASIZE PUSH1 0x4 PUSH2 0x273A JUMP JUMPDEST PUSH2 0x99C JUMP JUMPDEST PUSH2 0x2D3 PUSH2 0x380 CALLDATASIZE PUSH1 0x4 PUSH2 0x273A JUMP JUMPDEST PUSH2 0x9C1 JUMP JUMPDEST PUSH2 0x2D3 PUSH2 0x393 CALLDATASIZE PUSH1 0x4 PUSH2 0x2673 JUMP JUMPDEST PUSH2 0xA3F JUMP JUMPDEST PUSH2 0x26B PUSH2 0x3A6 CALLDATASIZE PUSH1 0x4 PUSH2 0x2766 JUMP JUMPDEST PUSH1 0xFC PUSH1 0x20 MSTORE PUSH1 0x0 SWAP1 DUP2 MSTORE PUSH1 0x40 SWAP1 KECCAK256 SLOAD PUSH1 0xFF AND DUP2 JUMP JUMPDEST PUSH2 0x2D3 PUSH2 0x3C9 CALLDATASIZE PUSH1 0x4 PUSH2 0x26FE JUMP JUMPDEST PUSH2 0xAF9 JUMP JUMPDEST PUSH2 0x2D3 PUSH2 0x3DC CALLDATASIZE PUSH1 0x4 PUSH2 0x2766 JUMP JUMPDEST PUSH2 0xB14 JUMP JUMPDEST PUSH2 0x2D3 PUSH2 0x3EF CALLDATASIZE PUSH1 0x4 PUSH2 0x27CC JUMP JUMPDEST PUSH2 0xB89 JUMP JUMPDEST PUSH2 0x2D3 PUSH2 0x402 CALLDATASIZE PUSH1 0x4 PUSH2 0x27CC JUMP JUMPDEST PUSH2 0xC0A JUMP JUMPDEST PUSH2 0x445 PUSH2 0x415 CALLDATASIZE PUSH1 0x4 PUSH2 0x280D JUMP JUMPDEST PUSH1 0xFE PUSH1 0x20 SWAP1 DUP2 MSTORE PUSH1 0x0 SWAP3 DUP4 MSTORE PUSH1 0x40 DUP1 DUP5 KECCAK256 SWAP1 SWAP2 MSTORE SWAP1 DUP3 MSTORE SWAP1 KECCAK256 DUP1 SLOAD PUSH1 0x1 SWAP1 SWAP2 ADD SLOAD PUSH1 0x1 PUSH1 0x1 PUSH1 0xA0 SHL SUB SWAP1 SWAP2 AND SWAP1 DUP3 JUMP JUMPDEST PUSH1 0x40 DUP1 MLOAD PUSH1 0x1 PUSH1 0x1 PUSH1 0xA0 SHL SUB SWAP1 SWAP4 AND DUP4 MSTORE PUSH1 0x20 DUP4 ADD SWAP2 SWAP1 SWAP2 MSTORE ADD PUSH2 0x277 JUMP JUMPDEST PUSH2 0x2A8 PUSH2 0x472 CALLDATASIZE PUSH1 0x4 PUSH2 0x2673 JUMP JUMPDEST PUSH2 0xC7E JUMP JUMPDEST PUSH2 0x351 PUSH2 0x485 CALLDATASIZE PUSH1 0x4 PUSH2 0x2766 JUMP JUMPDEST PUSH2 0xCDE JUMP JUMPDEST PUSH2 0x2D3 PUSH2 0x498 CALLDATASIZE PUSH1 0x4 PUSH2 0x27CC JUMP JUMPDEST PUSH2 0xD64 JUMP JUMPDEST PUSH2 0x2D3 PUSH2 0x4AB CALLDATASIZE PUSH1 0x4 PUSH2 0x28FB JUMP JUMPDEST PUSH2 0xDE1 JUMP JUMPDEST PUSH2 0x26B PUSH2 0x4BE CALLDATASIZE PUSH1 0x4 PUSH2 0x273A JUMP JUMPDEST PUSH2 0xEB0 JUMP JUMPDEST PUSH2 0x288 PUSH2 0xEDB JUMP JUMPDEST PUSH2 0x2D3 PUSH2 0x4D9 CALLDATASIZE PUSH1 0x4 PUSH2 0x29B6 JUMP JUMPDEST PUSH2 0xEEA JUMP JUMPDEST PUSH2 0x2D3 PUSH2 0x4EC CALLDATASIZE PUSH1 0x4 PUSH2 0x26A8 JUMP JUMPDEST PUSH2 0x12A1 JUMP JUMPDEST PUSH2 0x351 PUSH1 0x0 DUP2 JUMP JUMPDEST PUSH2 0x2D3 PUSH2 0x507 CALLDATASIZE PUSH1 0x4 PUSH2 0x2A59 JUMP JUMPDEST PUSH2 0x12EE JUMP JUMPDEST PUSH2 0x2D3 PUSH2 0x51A CALLDATASIZE PUSH1 0x4 PUSH2 0x2A8D JUMP JUMPDEST PUSH2 0x14A5 JUMP JUMPDEST PUSH2 0x2D3 PUSH2 0x52D CALLDATASIZE PUSH1 0x4 PUSH2 0x2AC9 JUMP JUMPDEST PUSH2 0x14B0 JUMP JUMPDEST PUSH2 0x56D PUSH2 0x540 CALLDATASIZE PUSH1 0x4 PUSH2 0x2B79 JUMP JUMPDEST PUSH32 0xBC197C819B3E337A6F9652DD10BECD7EEF83032AF3B9D958D3D42F6694146621 SWAP9 SWAP8 POP POP POP POP POP POP POP POP JUMP JUMPDEST PUSH1 0x40 MLOAD PUSH1 0x1 PUSH1 0x1 PUSH1 0xE0 SHL SUB NOT SWAP1 SWAP2 AND DUP2 MSTORE PUSH1 0x20 ADD PUSH2 0x277 JUMP JUMPDEST PUSH2 0x351 PUSH2 0x14E2 JUMP JUMPDEST PUSH2 0x288 PUSH2 0x59C CALLDATASIZE PUSH1 0x4 PUSH2 0x2673 JUMP JUMPDEST PUSH2 0x14F2 JUMP JUMPDEST PUSH2 0x2A8 PUSH2 0x5AF CALLDATASIZE PUSH1 0x4 PUSH2 0x2673 JUMP JUMPDEST PUSH1 0xFF PUSH1 0x20 MSTORE PUSH1 0x0 SWAP1 DUP2 MSTORE PUSH1 0x40 SWAP1 KECCAK256 SLOAD PUSH1 0x1 PUSH1 0x1 PUSH1 0xA0 SHL SUB AND DUP2 JUMP JUMPDEST PUSH2 0x26B PUSH2 0x5D8 CALLDATASIZE PUSH1 0x4 PUSH2 0x2766 JUMP JUMPDEST PUSH1 0xFD PUSH1 0x20 MSTORE PUSH1 0x0 SWAP1 DUP2 MSTORE PUSH1 0x40 SWAP1 KECCAK256 SLOAD PUSH1 0xFF AND DUP2 JUMP JUMPDEST PUSH2 0x2D3 PUSH2 0x5FB CALLDATASIZE PUSH1 0x4 PUSH2 0x2A59 JUMP JUMPDEST PUSH2 0x14FD JUMP JUMPDEST PUSH2 0x351 PUSH32 0x9F2DF0FED2C77648DE5860A4CC508CD0818C85B8B8A1AB4CEEEF8D981C8956A6 DUP2 JUMP JUMPDEST PUSH2 0x2D3 PUSH2 0x635 CALLDATASIZE PUSH1 0x4 PUSH2 0x273A JUMP JUMPDEST PUSH2 0x15C5 JUMP JUMPDEST PUSH2 0x2D3 PUSH2 0x648 CALLDATASIZE PUSH1 0x4 PUSH2 0x280D JUMP JUMPDEST PUSH2 0x15EA JUMP JUMPDEST PUSH2 0x26B PUSH2 0x65B CALLDATASIZE PUSH1 0x4 PUSH2 0x2C33 JUMP JUMPDEST PUSH1 0x1 PUSH1 0x1 PUSH1 0xA0 SHL SUB SWAP2 DUP3 AND PUSH1 0x0 SWAP1 DUP2 MSTORE PUSH1 0x6A PUSH1 0x20 SWAP1 DUP2 MSTORE PUSH1 0x40 DUP1 DUP4 KECCAK256 SWAP4 SWAP1 SWAP5 AND DUP3 MSTORE SWAP2 SWAP1 SWAP2 MSTORE KECCAK256 SLOAD PUSH1 0xFF AND SWAP1 JUMP JUMPDEST PUSH2 0x56D PUSH2 0x697 CALLDATASIZE PUSH1 0x4 PUSH2 0x2C5D JUMP JUMPDEST PUSH32 0xF23A6E612E1FF4830E658FE43F4E3CB4A5F8170BD5D9E69FB5D7A7FA9E4FDF97 SWAP7 SWAP6 POP POP POP POP POP POP JUMP JUMPDEST PUSH1 0x0 PUSH2 0x6CD DUP3 PUSH2 0x16B9 JUMP JUMPDEST SWAP3 SWAP2 POP POP JUMP JUMPDEST PUSH1 0x60 PUSH1 0x65 DUP1 SLOAD PUSH2 0x6E2 SWAP1 PUSH2 0x2CD4 JUMP JUMPDEST DUP1 PUSH1 0x1F ADD PUSH1 0x20 DUP1 SWAP2 DIV MUL PUSH1 0x20 ADD PUSH1 0x40 MLOAD SWAP1 DUP2 ADD PUSH1 0x40 MSTORE DUP1 SWAP3 SWAP2 SWAP1 DUP2 DUP2 MSTORE PUSH1 0x20 ADD DUP3 DUP1 SLOAD PUSH2 0x70E SWAP1 PUSH2 0x2CD4 JUMP JUMPDEST DUP1 ISZERO PUSH2 0x75B JUMPI DUP1 PUSH1 0x1F LT PUSH2 0x730 JUMPI PUSH2 0x100 DUP1 DUP4 SLOAD DIV MUL DUP4 MSTORE SWAP2 PUSH1 0x20 ADD SWAP2 PUSH2 0x75B JUMP JUMPDEST DUP3 ADD SWAP2 SWAP1 PUSH1 0x0 MSTORE PUSH1 0x20 PUSH1 0x0 KECCAK256 SWAP1 JUMPDEST DUP2 SLOAD DUP2 MSTORE SWAP1 PUSH1 0x1 ADD SWAP1 PUSH1 0x20 ADD DUP1 DUP4 GT PUSH2 0x73E JUMPI DUP3 SWAP1 SUB PUSH1 0x1F AND DUP3 ADD SWAP2 JUMPDEST POP POP POP POP POP SWAP1 POP SWAP1 JUMP JUMPDEST PUSH1 0x0 PUSH2 0x770 DUP3 PUSH2 0x16DE JUMP JUMPDEST POP PUSH1 0x0 SWAP1 DUP2 MSTORE PUSH1 0x69 PUSH1 0x20 MSTORE PUSH1 0x40 SWAP1 KECCAK256 SLOAD PUSH1 0x1 PUSH1 0x1 PUSH1 0xA0 SHL SUB AND SWAP1 JUMP JUMPDEST PUSH1 0x0 PUSH2 0x797 DUP3 PUSH2 0xC7E JUMP JUMPDEST SWAP1 POP DUP1 PUSH1 0x1 PUSH1 0x1 PUSH1 0xA0 SHL SUB AND DUP4 PUSH1 0x1 PUSH1 0x1 PUSH1 0xA0 SHL SUB AND EQ ISZERO PUSH2 0x80A JUMPI PUSH1 0x40 MLOAD PUSH3 0x461BCD PUSH1 0xE5 SHL DUP2 MSTORE PUSH1 0x20 PUSH1 0x4 DUP3 ADD MSTORE PUSH1 0x21 PUSH1 0x24 DUP3 ADD MSTORE PUSH32 0x4552433732313A20617070726F76616C20746F2063757272656E74206F776E65 PUSH1 0x44 DUP3 ADD MSTORE PUSH1 0x39 PUSH1 0xF9 SHL PUSH1 0x64 DUP3 ADD MSTORE PUSH1 0x84 ADD JUMPDEST PUSH1 0x40 MLOAD DUP1 SWAP2 SUB SWAP1 REVERT JUMPDEST CALLER PUSH1 0x1 PUSH1 0x1 PUSH1 0xA0 SHL SUB DUP3 AND EQ DUP1 PUSH2 0x826 JUMPI POP PUSH2 0x826 DUP2 CALLER PUSH2 0x65B JUMP JUMPDEST PUSH2 0x898 JUMPI PUSH1 0x40 MLOAD PUSH3 0x461BCD PUSH1 0xE5 SHL DUP2 MSTORE PUSH1 0x20 PUSH1 0x4 DUP3 ADD MSTORE PUSH1 0x3D PUSH1 0x24 DUP3 ADD MSTORE PUSH32 0x4552433732313A20617070726F76652063616C6C6572206973206E6F7420746F PUSH1 0x44 DUP3 ADD MSTORE PUSH32 0x6B656E206F776E6572206F7220617070726F76656420666F7220616C6C000000 PUSH1 0x64 DUP3 ADD MSTORE PUSH1 0x84 ADD PUSH2 0x801 JUMP JUMPDEST PUSH2 0x8A2 DUP4 DUP4 PUSH2 0x173D JUMP JUMPDEST POP POP POP JUMP JUMPDEST PUSH1 0x0 PUSH2 0x8B2 DUP2 PUSH2 0x17AB JUMP JUMPDEST POP PUSH2 0x100 DUP1 SLOAD PUSH1 0xFF NOT AND PUSH1 0xFF SWAP3 SWAP1 SWAP3 AND SWAP2 SWAP1 SWAP2 OR SWAP1 SSTORE JUMP JUMPDEST DUP1 CALLER PUSH2 0x8D5 DUP3 PUSH2 0xC7E JUMP JUMPDEST PUSH1 0x1 PUSH1 0x1 PUSH1 0xA0 SHL SUB AND EQ PUSH2 0x8FB JUMPI PUSH1 0x40 MLOAD PUSH3 0x461BCD PUSH1 0xE5 SHL DUP2 MSTORE PUSH1 0x4 ADD PUSH2 0x801 SWAP1 PUSH2 0x2D0F JUMP JUMPDEST PUSH1 0x0 JUMPDEST PUSH2 0x100 SLOAD PUSH1 0xFF AND DUP2 LT ISZERO PUSH2 0x8A2 JUMPI PUSH1 0x40 DUP1 MLOAD DUP1 DUP3 ADD DUP3 MSTORE PUSH1 0x0 DUP1 DUP3 MSTORE PUSH1 0x20 DUP1 DUP4 ADD DUP3 DUP2 MSTORE DUP8 DUP4 MSTORE PUSH1 0xFE DUP3 MSTORE DUP5 DUP4 KECCAK256 DUP7 DUP5 MSTORE SWAP1 SWAP2 MSTORE SWAP3 SWAP1 KECCAK256 SWAP1 MLOAD DUP2 SLOAD PUSH1 0x1 PUSH1 0x1 PUSH1 0xA0 SHL SUB NOT AND PUSH1 0x1 PUSH1 0x1 PUSH1 0xA0 SHL SUB SWAP1 SWAP2 AND OR DUP2 SSTORE SWAP1 MLOAD PUSH1 0x1 SWAP1 SWAP2 ADD SSTORE DUP1 PUSH2 0x963 DUP2 PUSH2 0x2D48 JUMP JUMPDEST SWAP2 POP POP PUSH2 0x8FE JUMP JUMPDEST PUSH2 0x975 CALLER DUP3 PUSH2 0x17B5 JUMP JUMPDEST PUSH2 0x991 JUMPI PUSH1 0x40 MLOAD PUSH3 0x461BCD PUSH1 0xE5 SHL DUP2 MSTORE PUSH1 0x4 ADD PUSH2 0x801 SWAP1 PUSH2 0x2D63 JUMP JUMPDEST PUSH2 0x8A2 DUP4 DUP4 DUP4 PUSH2 0x1834 JUMP JUMPDEST PUSH1 0x0 DUP3 DUP2 MSTORE PUSH1 0x97 PUSH1 0x20 MSTORE PUSH1 0x40 SWAP1 KECCAK256 PUSH1 0x1 ADD SLOAD PUSH2 0x9B7 DUP2 PUSH2 0x17AB JUMP JUMPDEST PUSH2 0x8A2 DUP4 DUP4 PUSH2 0x1998 JUMP JUMPDEST PUSH1 0x1 PUSH1 0x1 PUSH1 0xA0 SHL SUB DUP2 AND CALLER EQ PUSH2 0xA31 JUMPI PUSH1 0x40 MLOAD PUSH3 0x461BCD PUSH1 0xE5 SHL DUP2 MSTORE PUSH1 0x20 PUSH1 0x4 DUP3 ADD MSTORE PUSH1 0x2F PUSH1 0x24 DUP3 ADD MSTORE PUSH32 0x416363657373436F6E74726F6C3A2063616E206F6E6C792072656E6F756E6365 PUSH1 0x44 DUP3 ADD MSTORE PUSH15 0x103937B632B9903337B91039B2B633 PUSH1 0x89 SHL PUSH1 0x64 DUP3 ADD MSTORE PUSH1 0x84 ADD PUSH2 0x801 JUMP JUMPDEST PUSH2 0xA3B DUP3 DUP3 PUSH2 0x1A1E JUMP JUMPDEST POP POP JUMP JUMPDEST CALLER PUSH1 0x0 SWAP1 DUP2 MSTORE PUSH1 0xFD PUSH1 0x20 MSTORE PUSH1 0x40 SWAP1 KECCAK256 SLOAD PUSH1 0xFF AND ISZERO ISZERO PUSH1 0x1 EQ PUSH2 0xA95 JUMPI PUSH1 0x40 MLOAD PUSH3 0x461BCD PUSH1 0xE5 SHL DUP2 MSTORE PUSH1 0x20 PUSH1 0x4 DUP3 ADD MSTORE PUSH1 0xF PUSH1 0x24 DUP3 ADD MSTORE PUSH15 0x1B9BDD081DDA1A5D195B1A5CDD1959 PUSH1 0x8A SHL PUSH1 0x44 DUP3 ADD MSTORE PUSH1 0x64 ADD PUSH2 0x801 JUMP JUMPDEST PUSH2 0xA9E CALLER PUSH2 0xCDE JUMP JUMPDEST ISZERO PUSH2 0xADE JUMPI PUSH1 0x40 MLOAD PUSH3 0x461BCD PUSH1 0xE5 SHL DUP2 MSTORE PUSH1 0x20 PUSH1 0x4 DUP3 ADD MSTORE PUSH1 0x10 PUSH1 0x24 DUP3 ADD MSTORE PUSH16 0x1B585E080C481C195C881DD85B1B195D PUSH1 0x82 SHL PUSH1 0x44 DUP3 ADD MSTORE PUSH1 0x64 ADD PUSH2 0x801 JUMP JUMPDEST PUSH2 0xAEC PUSH1 0xFB DUP1 SLOAD PUSH1 0x1 ADD SWAP1 SSTORE JUMP JUMPDEST PUSH2 0xAF6 CALLER DUP3 PUSH2 0x1A85 JUMP JUMPDEST POP JUMP JUMPDEST PUSH2 0x8A2 DUP4 DUP4 DUP4 PUSH1 0x40 MLOAD DUP1 PUSH1 0x20 ADD PUSH1 0x40 MSTORE DUP1 PUSH1 0x0 DUP2 MSTORE POP PUSH2 0x14B0 JUMP JUMPDEST PUSH1 0x0 PUSH2 0xB1F DUP2 PUSH2 0x17AB JUMP JUMPDEST PUSH1 0x1 PUSH1 0x1 PUSH1 0xA0 SHL SUB DUP3 AND PUSH2 0xB64 JUMPI PUSH1 0x40 MLOAD PUSH3 0x461BCD PUSH1 0xE5 SHL DUP2 MSTORE PUSH1 0x20 PUSH1 0x4 DUP3 ADD MSTORE PUSH1 0xC PUSH1 0x24 DUP3 ADD MSTORE PUSH12 0x6E6F2061646472657373203 PUSH1 0xA4 SHL PUSH1 0x44 DUP3 ADD MSTORE PUSH1 0x64 ADD PUSH2 0x801 JUMP JUMPDEST POP PUSH1 0x1 PUSH1 0x1 PUSH1 0xA0 SHL SUB AND PUSH1 0x0 SWAP1 DUP2 MSTORE PUSH1 0xFC PUSH1 0x20 MSTORE PUSH1 0x40 SWAP1 KECCAK256 DUP1 SLOAD PUSH1 0xFF NOT AND PUSH1 0x1 OR SWAP1 SSTORE JUMP JUMPDEST PUSH1 0x0 PUSH2 0xB94 DUP2 PUSH2 0x17AB JUMP JUMPDEST PUSH1 0x0 JUMPDEST DUP3 DUP2 LT ISZERO PUSH2 0xC04 JUMPI DUP4 DUP4 DUP3 DUP2 DUP2 LT PUSH2 0xBB1 JUMPI PUSH2 0xBB1 PUSH2 0x2DB0 JUMP JUMPDEST SWAP1 POP PUSH1 0x20 MUL ADD PUSH1 0x20 DUP2 ADD SWAP1 PUSH2 0xBC6 SWAP2 SWAP1 PUSH2 0x2766 JUMP JUMPDEST PUSH1 0x0 DUP3 DUP2 MSTORE PUSH1 0xFF PUSH1 0x20 MSTORE PUSH1 0x40 SWAP1 KECCAK256 DUP1 SLOAD PUSH1 0x1 PUSH1 0x1 PUSH1 0xA0 SHL SUB NOT AND PUSH1 0x1 PUSH1 0x1 PUSH1 0xA0 SHL SUB SWAP3 SWAP1 SWAP3 AND SWAP2 SWAP1 SWAP2 OR SWAP1 SSTORE DUP1 PUSH2 0xBFC DUP2 PUSH2 0x2D48 JUMP JUMPDEST SWAP2 POP POP PUSH2 0xB97 JUMP JUMPDEST POP POP POP POP JUMP JUMPDEST PUSH1 0x0 PUSH2 0xC15 DUP2 PUSH2 0x17AB JUMP JUMPDEST PUSH1 0x0 JUMPDEST DUP3 DUP2 LT ISZERO PUSH2 0xC04 JUMPI PUSH1 0xFD PUSH1 0x0 DUP6 DUP6 DUP5 DUP2 DUP2 LT PUSH2 0xC36 JUMPI PUSH2 0xC36 PUSH2 0x2DB0 JUMP JUMPDEST SWAP1 POP PUSH1 0x20 MUL ADD PUSH1 0x20 DUP2 ADD SWAP1 PUSH2 0xC4B SWAP2 SWAP1 PUSH2 0x2766 JUMP JUMPDEST PUSH1 0x1 PUSH1 0x1 PUSH1 0xA0 SHL SUB AND DUP2 MSTORE PUSH1 0x20 DUP2 ADD SWAP2 SWAP1 SWAP2 MSTORE PUSH1 0x40 ADD PUSH1 0x0 KECCAK256 DUP1 SLOAD PUSH1 0xFF NOT AND SWAP1 SSTORE DUP1 PUSH2 0xC76 DUP2 PUSH2 0x2D48 JUMP JUMPDEST SWAP2 POP POP PUSH2 0xC18 JUMP JUMPDEST PUSH1 0x0 DUP2 DUP2 MSTORE PUSH1 0x67 PUSH1 0x20 MSTORE PUSH1 0x40 DUP2 KECCAK256 SLOAD PUSH1 0x1 PUSH1 0x1 PUSH1 0xA0 SHL SUB AND DUP1 PUSH2 0x6CD JUMPI PUSH1 0x40 MLOAD PUSH3 0x461BCD PUSH1 0xE5 SHL DUP2 MSTORE PUSH1 0x20 PUSH1 0x4 DUP3 ADD MSTORE PUSH1 0x18 PUSH1 0x24 DUP3 ADD MSTORE PUSH24 0x115490CDCC8C4E881A5B9D985B1A59081D1BDAD95B881251 PUSH1 0x42 SHL PUSH1 0x44 DUP3 ADD MSTORE PUSH1 0x64 ADD PUSH2 0x801 JUMP JUMPDEST PUSH1 0x0 PUSH1 0x1 PUSH1 0x1 PUSH1 0xA0 SHL SUB DUP3 AND PUSH2 0xD48 JUMPI PUSH1 0x40 MLOAD PUSH3 0x461BCD PUSH1 0xE5 SHL DUP2 MSTORE PUSH1 0x20 PUSH1 0x4 DUP3 ADD MSTORE PUSH1 0x29 PUSH1 0x24 DUP3 ADD MSTORE PUSH32 0x4552433732313A2061646472657373207A65726F206973206E6F742061207661 PUSH1 0x44 DUP3 ADD MSTORE PUSH9 0x3634B21037BBB732B9 PUSH1 0xB9 SHL PUSH1 0x64 DUP3 ADD MSTORE PUSH1 0x84 ADD PUSH2 0x801 JUMP JUMPDEST POP PUSH1 0x1 PUSH1 0x1 PUSH1 0xA0 SHL SUB AND PUSH1 0x0 SWAP1 DUP2 MSTORE PUSH1 0x68 PUSH1 0x20 MSTORE PUSH1 0x40 SWAP1 KECCAK256 SLOAD SWAP1 JUMP JUMPDEST PUSH1 0x0 PUSH2 0xD6F DUP2 PUSH2 0x17AB JUMP JUMPDEST PUSH1 0x0 JUMPDEST DUP3 DUP2 LT ISZERO PUSH2 0xC04 JUMPI PUSH1 0x1 PUSH1 0xFD PUSH1 0x0 DUP7 DUP7 DUP6 DUP2 DUP2 LT PUSH2 0xD92 JUMPI PUSH2 0xD92 PUSH2 0x2DB0 JUMP JUMPDEST SWAP1 POP PUSH1 0x20 MUL ADD PUSH1 0x20 DUP2 ADD SWAP1 PUSH2 0xDA7 SWAP2 SWAP1 PUSH2 0x2766 JUMP JUMPDEST PUSH1 0x1 PUSH1 0x1 PUSH1 0xA0 SHL SUB AND DUP2 MSTORE PUSH1 0x20 DUP2 ADD SWAP2 SWAP1 SWAP2 MSTORE PUSH1 0x40 ADD PUSH1 0x0 KECCAK256 DUP1 SLOAD PUSH1 0xFF NOT AND SWAP2 ISZERO ISZERO SWAP2 SWAP1 SWAP2 OR SWAP1 SSTORE DUP1 PUSH2 0xDD9 DUP2 PUSH2 0x2D48 JUMP JUMPDEST SWAP2 POP POP PUSH2 0xD72 JUMP JUMPDEST PUSH1 0x0 PUSH2 0xDEC DUP2 PUSH2 0x17AB JUMP JUMPDEST DUP2 PUSH1 0xFF AND DUP4 MLOAD EQ PUSH2 0xE2E JUMPI PUSH1 0x40 MLOAD PUSH3 0x461BCD PUSH1 0xE5 SHL DUP2 MSTORE PUSH1 0x20 PUSH1 0x4 DUP3 ADD MSTORE PUSH1 0xC PUSH1 0x24 DUP3 ADD MSTORE PUSH12 0xEEE4DEDCCE40D8CADCCEE8D PUSH1 0xA3 SHL PUSH1 0x44 DUP3 ADD MSTORE PUSH1 0x64 ADD PUSH2 0x801 JUMP JUMPDEST PUSH1 0x0 JUMPDEST DUP4 MLOAD DUP2 LT ISZERO PUSH2 0xE96 JUMPI PUSH1 0x1 PUSH1 0xFC PUSH1 0x0 DUP7 DUP5 DUP2 MLOAD DUP2 LT PUSH2 0xE52 JUMPI PUSH2 0xE52 PUSH2 0x2DB0 JUMP JUMPDEST PUSH1 0x20 SWAP1 DUP2 MUL SWAP2 SWAP1 SWAP2 ADD DUP2 ADD MLOAD PUSH1 0x1 PUSH1 0x1 PUSH1 0xA0 SHL SUB AND DUP3 MSTORE DUP2 ADD SWAP2 SWAP1 SWAP2 MSTORE PUSH1 0x40 ADD PUSH1 0x0 KECCAK256 DUP1 SLOAD PUSH1 0xFF NOT AND SWAP2 ISZERO ISZERO SWAP2 SWAP1 SWAP2 OR SWAP1 SSTORE DUP1 PUSH2 0xE8E DUP2 PUSH2 0x2D48 JUMP JUMPDEST SWAP2 POP POP PUSH2 0xE31 JUMP JUMPDEST POP POP PUSH2 0x100 DUP1 SLOAD PUSH1 0xFF NOT AND PUSH1 0xFF SWAP3 SWAP1 SWAP3 AND SWAP2 SWAP1 SWAP2 OR SWAP1 SSTORE POP JUMP JUMPDEST PUSH1 0x0 SWAP2 DUP3 MSTORE PUSH1 0x97 PUSH1 0x20 SWAP1 DUP2 MSTORE PUSH1 0x40 DUP1 DUP5 KECCAK256 PUSH1 0x1 PUSH1 0x1 PUSH1 0xA0 SHL SUB SWAP4 SWAP1 SWAP4 AND DUP5 MSTORE SWAP2 SWAP1 MSTORE SWAP1 KECCAK256 SLOAD PUSH1 0xFF AND SWAP1 JUMP JUMPDEST PUSH1 0x60 PUSH1 0x66 DUP1 SLOAD PUSH2 0x6E2 SWAP1 PUSH2 0x2CD4 JUMP JUMPDEST DUP4 CALLER PUSH2 0xEF5 DUP3 PUSH2 0xC7E JUMP JUMPDEST PUSH1 0x1 PUSH1 0x1 PUSH1 0xA0 SHL SUB AND EQ PUSH2 0xF1B JUMPI PUSH1 0x40 MLOAD PUSH3 0x461BCD PUSH1 0xE5 SHL DUP2 MSTORE PUSH1 0x4 ADD PUSH2 0x801 SWAP1 PUSH2 0x2D0F JUMP JUMPDEST DUP4 DUP4 DUP1 DUP1 PUSH1 0x20 MUL PUSH1 0x20 ADD PUSH1 0x40 MLOAD SWAP1 DUP2 ADD PUSH1 0x40 MSTORE DUP1 SWAP4 SWAP3 SWAP2 SWAP1 DUP2 DUP2 MSTORE PUSH1 0x20 ADD PUSH1 0x0 SWAP1 JUMPDEST DUP3 DUP3 LT ISZERO PUSH2 0xF69 JUMPI PUSH2 0xF5A PUSH1 0x40 DUP4 MUL DUP7 ADD CALLDATASIZE DUP2 SWAP1 SUB DUP2 ADD SWAP1 PUSH2 0x2DC6 JUMP JUMPDEST DUP2 MSTORE PUSH1 0x20 ADD SWAP1 PUSH1 0x1 ADD SWAP1 PUSH2 0xF3D JUMP JUMPDEST POP POP PUSH2 0x100 SLOAD DUP5 MLOAD PUSH1 0xFF SWAP1 SWAP2 AND LT ISZERO SWAP3 POP PUSH2 0xFB8 SWAP2 POP POP JUMPI PUSH1 0x40 MLOAD PUSH3 0x461BCD PUSH1 0xE5 SHL DUP2 MSTORE PUSH1 0x20 PUSH1 0x4 DUP3 ADD MSTORE PUSH1 0xC PUSH1 0x24 DUP3 ADD MSTORE PUSH12 0xEEE4DEDCCE40D8CADCCEE8D PUSH1 0xA3 SHL PUSH1 0x44 DUP3 ADD MSTORE PUSH1 0x64 ADD PUSH2 0x801 JUMP JUMPDEST PUSH1 0x0 JUMPDEST DUP2 MLOAD DUP2 LT ISZERO PUSH2 0x10CE JUMPI PUSH1 0xFC PUSH1 0x0 DUP4 DUP4 DUP2 MLOAD DUP2 LT PUSH2 0xFDA JUMPI PUSH2 0xFDA PUSH2 0x2DB0 JUMP JUMPDEST PUSH1 0x20 SWAP1 DUP2 MUL SWAP2 SWAP1 SWAP2 ADD DUP2 ADD MLOAD MLOAD PUSH1 0x1 PUSH1 0x1 PUSH1 0xA0 SHL SUB AND DUP3 MSTORE DUP2 ADD SWAP2 SWAP1 SWAP2 MSTORE PUSH1 0x40 ADD PUSH1 0x0 KECCAK256 SLOAD PUSH1 0xFF AND ISZERO ISZERO PUSH1 0x1 EQ PUSH2 0x1045 JUMPI PUSH1 0x40 MLOAD PUSH3 0x461BCD PUSH1 0xE5 SHL DUP2 MSTORE PUSH1 0x20 PUSH1 0x4 DUP3 ADD MSTORE PUSH1 0xF PUSH1 0x24 DUP3 ADD MSTORE PUSH15 0x1B9BDD081DDA1A5D195B1A5CDD1959 PUSH1 0x8A SHL PUSH1 0x44 DUP3 ADD MSTORE PUSH1 0x64 ADD PUSH2 0x801 JUMP JUMPDEST DUP2 DUP2 DUP2 MLOAD DUP2 LT PUSH2 0x1057 JUMPI PUSH2 0x1057 PUSH2 0x2DB0 JUMP JUMPDEST PUSH1 0x20 SWAP1 DUP2 MUL SWAP2 SWAP1 SWAP2 ADD DUP2 ADD MLOAD MLOAD PUSH1 0x0 DUP4 DUP2 MSTORE PUSH1 0xFF SWAP1 SWAP3 MSTORE PUSH1 0x40 SWAP1 SWAP2 KECCAK256 SLOAD PUSH1 0x1 PUSH1 0x1 PUSH1 0xA0 SHL SUB SWAP1 DUP2 AND SWAP2 AND EQ PUSH2 0x10BC JUMPI PUSH1 0x40 MLOAD PUSH3 0x461BCD PUSH1 0xE5 SHL DUP2 MSTORE PUSH1 0x20 PUSH1 0x4 DUP3 ADD MSTORE PUSH1 0xB PUSH1 0x24 DUP3 ADD MSTORE PUSH11 0x3BB937B7339037B93232B9 PUSH1 0xA9 SHL PUSH1 0x44 DUP3 ADD MSTORE PUSH1 0x64 ADD PUSH2 0x801 JUMP JUMPDEST DUP1 PUSH2 0x10C6 DUP2 PUSH2 0x2D48 JUMP JUMPDEST SWAP2 POP POP PUSH2 0xFBB JUMP JUMPDEST POP PUSH1 0x0 JUMPDEST DUP5 DUP2 LT ISZERO PUSH2 0x128E JUMPI PUSH1 0x0 DUP8 DUP2 MSTORE PUSH1 0xFE PUSH1 0x20 SWAP1 DUP2 MSTORE PUSH1 0x40 DUP1 DUP4 KECCAK256 DUP5 DUP5 MSTORE DUP3 MSTORE SWAP2 DUP3 SWAP1 KECCAK256 DUP3 MLOAD DUP1 DUP5 ADD SWAP1 SWAP4 MSTORE DUP1 SLOAD PUSH1 0x1 PUSH1 0x1 PUSH1 0xA0 SHL SUB AND DUP1 DUP5 MSTORE PUSH1 0x1 SWAP1 SWAP2 ADD SLOAD SWAP2 DUP4 ADD SWAP2 SWAP1 SWAP2 MSTORE ISZERO DUP1 ISZERO SWAP1 PUSH2 0x1128 JUMPI POP PUSH1 0x20 DUP2 ADD MLOAD ISZERO ISZERO JUMPDEST ISZERO PUSH2 0x1199 JUMPI DUP1 MLOAD PUSH1 0x20 DUP3 ADD MLOAD PUSH1 0x40 MLOAD PUSH4 0x79212195 PUSH1 0xE1 SHL DUP2 MSTORE PUSH1 0x1 PUSH1 0x1 PUSH1 0xA0 SHL SUB SWAP1 SWAP3 AND SWAP2 PUSH4 0xF242432A SWAP2 PUSH2 0x1166 SWAP2 ADDRESS SWAP2 CALLER SWAP2 PUSH1 0x1 SWAP1 PUSH1 0x4 ADD PUSH2 0x2E1C JUMP JUMPDEST PUSH1 0x0 PUSH1 0x40 MLOAD DUP1 DUP4 SUB DUP2 PUSH1 0x0 DUP8 DUP1 EXTCODESIZE ISZERO DUP1 ISZERO PUSH2 0x1180 JUMPI PUSH1 0x0 DUP1 REVERT JUMPDEST POP GAS CALL ISZERO DUP1 ISZERO PUSH2 0x1194 JUMPI RETURNDATASIZE PUSH1 0x0 DUP1 RETURNDATACOPY RETURNDATASIZE PUSH1 0x0 REVERT JUMPDEST POP POP POP POP JUMPDEST PUSH1 0x0 DUP8 DUP8 DUP5 DUP2 DUP2 LT PUSH2 0x11AD JUMPI PUSH2 0x11AD PUSH2 0x2DB0 JUMP JUMPDEST SWAP1 POP PUSH1 0x40 MUL ADD DUP1 CALLDATASIZE SUB DUP2 ADD SWAP1 PUSH2 0x11C3 SWAP2 SWAP1 PUSH2 0x2DC6 JUMP JUMPDEST SWAP1 POP DUP1 PUSH1 0x20 ADD MLOAD PUSH1 0x0 EQ PUSH2 0x123D JUMPI DUP1 MLOAD PUSH1 0x20 DUP3 ADD MLOAD PUSH1 0x40 MLOAD PUSH4 0x79212195 PUSH1 0xE1 SHL DUP2 MSTORE PUSH1 0x1 PUSH1 0x1 PUSH1 0xA0 SHL SUB SWAP1 SWAP3 AND SWAP2 PUSH4 0xF242432A SWAP2 PUSH2 0x120A SWAP2 CALLER SWAP2 ADDRESS SWAP2 PUSH1 0x1 SWAP1 PUSH1 0x4 ADD PUSH2 0x2E1C JUMP JUMPDEST PUSH1 0x0 PUSH1 0x40 MLOAD DUP1 DUP4 SUB DUP2 PUSH1 0x0 DUP8 DUP1 EXTCODESIZE ISZERO DUP1 ISZERO PUSH2 0x1224 JUMPI PUSH1 0x0 DUP1 REVERT JUMPDEST POP GAS CALL ISZERO DUP1 ISZERO PUSH2 0x1238 JUMPI RETURNDATASIZE PUSH1 0x0 DUP1 RETURNDATACOPY RETURNDATASIZE PUSH1 0x0 REVERT JUMPDEST POP POP POP POP JUMPDEST PUSH1 0x0 DUP10 DUP2 MSTORE PUSH1 0xFE PUSH1 0x20 SWAP1 DUP2 MSTORE PUSH1 0x40 DUP1 DUP4 KECCAK256 DUP7 DUP5 MSTORE DUP3 MSTORE SWAP1 SWAP2 KECCAK256 DUP3 MLOAD DUP2 SLOAD PUSH1 0x1 PUSH1 0x1 PUSH1 0xA0 SHL SUB NOT AND PUSH1 0x1 PUSH1 0x1 PUSH1 0xA0 SHL SUB SWAP1 SWAP2 AND OR DUP2 SSTORE SWAP2 ADD MLOAD PUSH1 0x1 SWAP1 SWAP2 ADD SSTORE POP DUP1 PUSH2 0x1286 DUP2 PUSH2 0x2D48 JUMP JUMPDEST SWAP2 POP POP PUSH2 0x10D2 JUMP JUMPDEST POP PUSH2 0x1299 DUP7 DUP5 PUSH2 0x1A9F JUMP JUMPDEST POP POP POP POP POP POP JUMP JUMPDEST PUSH32 0x9F2DF0FED2C77648DE5860A4CC508CD0818C85B8B8A1AB4CEEEF8D981C8956A6 PUSH2 0x12CB DUP2 PUSH2 0x17AB JUMP JUMPDEST PUSH1 0x0 PUSH2 0x12D6 DUP2 PUSH2 0x17AB JUMP JUMPDEST PUSH2 0x12E4 PUSH1 0xFB DUP1 SLOAD PUSH1 0x1 ADD SWAP1 SSTORE JUMP JUMPDEST PUSH2 0xC04 DUP5 DUP5 PUSH2 0x1A85 JUMP JUMPDEST PUSH1 0x0 SLOAD PUSH2 0x100 SWAP1 DIV PUSH1 0xFF AND ISZERO DUP1 DUP1 ISZERO PUSH2 0x130E JUMPI POP PUSH1 0x0 SLOAD PUSH1 0x1 PUSH1 0xFF SWAP1 SWAP2 AND LT JUMPDEST DUP1 PUSH2 0x1328 JUMPI POP ADDRESS EXTCODESIZE ISZERO DUP1 ISZERO PUSH2 0x1328 JUMPI POP PUSH1 0x0 SLOAD PUSH1 0xFF AND PUSH1 0x1 EQ JUMPDEST PUSH2 0x138B JUMPI PUSH1 0x40 MLOAD PUSH3 0x461BCD PUSH1 0xE5 SHL DUP2 MSTORE PUSH1 0x20 PUSH1 0x4 DUP3 ADD MSTORE PUSH1 0x2E PUSH1 0x24 DUP3 ADD MSTORE PUSH32 0x496E697469616C697A61626C653A20636F6E747261637420697320616C726561 PUSH1 0x44 DUP3 ADD MSTORE PUSH14 0x191E481A5B9A5D1A585B1A5E9959 PUSH1 0x92 SHL PUSH1 0x64 DUP3 ADD MSTORE PUSH1 0x84 ADD PUSH2 0x801 JUMP JUMPDEST PUSH1 0x0 DUP1 SLOAD PUSH1 0xFF NOT AND PUSH1 0x1 OR SWAP1 SSTORE DUP1 ISZERO PUSH2 0x13AE JUMPI PUSH1 0x0 DUP1 SLOAD PUSH2 0xFF00 NOT AND PUSH2 0x100 OR SWAP1 SSTORE JUMPDEST PUSH2 0x13FA PUSH1 0x40 MLOAD DUP1 PUSH1 0x40 ADD PUSH1 0x40 MSTORE DUP1 PUSH1 0xB DUP2 MSTORE PUSH1 0x20 ADD PUSH11 0x11D95B995CDA5CC8139195 PUSH1 0xAA SHL DUP2 MSTORE POP PUSH1 0x40 MLOAD DUP1 PUSH1 0x40 ADD PUSH1 0x40 MSTORE DUP1 PUSH1 0x7 DUP2 MSTORE PUSH1 0x20 ADD PUSH7 0x47454E45534953 PUSH1 0xC8 SHL DUP2 MSTORE POP PUSH2 0x1B6A JUMP JUMPDEST PUSH2 0x1402 PUSH2 0x1B9B JUMP JUMPDEST PUSH2 0x140A PUSH2 0x1B9B JUMP JUMPDEST PUSH2 0x1415 PUSH1 0x0 CALLER PUSH2 0x1998 JUMP JUMPDEST PUSH2 0x143F PUSH32 0x9F2DF0FED2C77648DE5860A4CC508CD0818C85B8B8A1AB4CEEEF8D981C8956A6 CALLER PUSH2 0x1998 JUMP JUMPDEST PUSH2 0x100 DUP1 SLOAD PUSH1 0xFF NOT AND PUSH1 0x4 SWAP1 DUP2 OR SWAP1 SWAP2 SSTORE PUSH2 0x145B SWAP1 DUP4 SWAP1 PUSH2 0xDE1 JUMP JUMPDEST DUP1 ISZERO PUSH2 0xA3B JUMPI PUSH1 0x0 DUP1 SLOAD PUSH2 0xFF00 NOT AND SWAP1 SSTORE PUSH1 0x40 MLOAD PUSH1 0x1 DUP2 MSTORE PUSH32 0x7F26B83FF96E1F2B6A682F133852F6798A09C465DA95921460CEFB3847402498 SWAP1 PUSH1 0x20 ADD JUMPDEST PUSH1 0x40 MLOAD DUP1 SWAP2 SUB SWAP1 LOG1 POP POP JUMP JUMPDEST PUSH2 0xA3B CALLER DUP4 DUP4 PUSH2 0x1BC4 JUMP JUMPDEST PUSH2 0x14BA CALLER DUP4 PUSH2 0x17B5 JUMP JUMPDEST PUSH2 0x14D6 JUMPI PUSH1 0x40 MLOAD PUSH3 0x461BCD PUSH1 0xE5 SHL DUP2 MSTORE PUSH1 0x4 ADD PUSH2 0x801 SWAP1 PUSH2 0x2D63 JUMP JUMPDEST PUSH2 0xC04 DUP5 DUP5 DUP5 DUP5 PUSH2 0x1C93 JUMP JUMPDEST PUSH1 0x0 PUSH2 0x14ED PUSH1 0xFB SLOAD SWAP1 JUMP JUMPDEST SWAP1 POP SWAP1 JUMP JUMPDEST PUSH1 0x60 PUSH2 0x6CD DUP3 PUSH2 0x1CC6 JUMP JUMPDEST PUSH1 0x0 PUSH2 0x1508 DUP2 PUSH2 0x17AB JUMP JUMPDEST PUSH1 0x0 JUMPDEST DUP3 MLOAD DUP2 LT ISZERO PUSH2 0x8A2 JUMPI PUSH1 0xFC PUSH1 0x0 DUP5 DUP4 DUP2 MLOAD DUP2 LT PUSH2 0x152A JUMPI PUSH2 0x152A PUSH2 0x2DB0 JUMP JUMPDEST PUSH1 0x20 SWAP1 DUP2 MUL SWAP2 SWAP1 SWAP2 ADD DUP2 ADD MLOAD PUSH1 0x1 PUSH1 0x1 PUSH1 0xA0 SHL SUB AND DUP3 MSTORE DUP2 ADD SWAP2 SWAP1 SWAP2 MSTORE PUSH1 0x40 ADD PUSH1 0x0 KECCAK256 SLOAD PUSH1 0xFF AND ISZERO ISZERO PUSH1 0x1 EQ ISZERO PUSH2 0x15B3 JUMPI PUSH1 0x0 PUSH1 0xFC PUSH1 0x0 DUP6 DUP5 DUP2 MLOAD DUP2 LT PUSH2 0x1573 JUMPI PUSH2 0x1573 PUSH2 0x2DB0 JUMP JUMPDEST PUSH1 0x20 MUL PUSH1 0x20 ADD ADD MLOAD PUSH1 0x1 PUSH1 0x1 PUSH1 0xA0 SHL SUB AND PUSH1 0x1 PUSH1 0x1 PUSH1 0xA0 SHL SUB AND DUP2 MSTORE PUSH1 0x20 ADD SWAP1 DUP2 MSTORE PUSH1 0x20 ADD PUSH1 0x0 KECCAK256 PUSH1 0x0 PUSH2 0x100 EXP DUP2 SLOAD DUP2 PUSH1 0xFF MUL NOT AND SWAP1 DUP4 ISZERO ISZERO MUL OR SWAP1 SSTORE POP JUMPDEST DUP1 PUSH2 0x15BD DUP2 PUSH2 0x2D48 JUMP JUMPDEST SWAP2 POP POP PUSH2 0x150B JUMP JUMPDEST PUSH1 0x0 DUP3 DUP2 MSTORE PUSH1 0x97 PUSH1 0x20 MSTORE PUSH1 0x40 SWAP1 KECCAK256 PUSH1 0x1 ADD SLOAD PUSH2 0x15E0 DUP2 PUSH2 0x17AB JUMP JUMPDEST PUSH2 0x8A2 DUP4 DUP4 PUSH2 0x1A1E JUMP JUMPDEST DUP2 CALLER PUSH2 0x15F5 DUP3 PUSH2 0xC7E JUMP JUMPDEST PUSH1 0x1 PUSH1 0x1 PUSH1 0xA0 SHL SUB AND EQ PUSH2 0x161B JUMPI PUSH1 0x40 MLOAD PUSH3 0x461BCD PUSH1 0xE5 SHL DUP2 MSTORE PUSH1 0x4 ADD PUSH2 0x801 SWAP1 PUSH2 0x2D0F JUMP JUMPDEST PUSH2 0x100 SLOAD PUSH1 0xFF AND DUP3 GT ISZERO PUSH2 0x1669 JUMPI PUSH1 0x40 MLOAD PUSH3 0x461BCD PUSH1 0xE5 SHL DUP2 MSTORE PUSH1 0x20 PUSH1 0x4 DUP3 ADD MSTORE PUSH1 0x15 PUSH1 0x24 DUP3 ADD MSTORE PUSH21 0x696E76616C6964206163636573736F727954797065 PUSH1 0x58 SHL PUSH1 0x44 DUP3 ADD MSTORE PUSH1 0x64 ADD PUSH2 0x801 JUMP JUMPDEST POP PUSH1 0x40 DUP1 MLOAD DUP1 DUP3 ADD DUP3 MSTORE PUSH1 0x0 DUP1 DUP3 MSTORE PUSH1 0x20 DUP1 DUP4 ADD DUP3 DUP2 MSTORE SWAP6 DUP3 MSTORE PUSH1 0xFE DUP2 MSTORE DUP4 DUP3 KECCAK256 SWAP5 DUP3 MSTORE SWAP4 SWAP1 SWAP4 MSTORE SWAP2 KECCAK256 SWAP1 MLOAD DUP2 SLOAD PUSH1 0x1 PUSH1 0x1 PUSH1 0xA0 SHL SUB NOT AND PUSH1 0x1 PUSH1 0x1 PUSH1 0xA0 SHL SUB SWAP1 SWAP2 AND OR DUP2 SSTORE SWAP1 MLOAD PUSH1 0x1 SWAP1 SWAP2 ADD SSTORE JUMP JUMPDEST PUSH1 0x0 PUSH1 0x1 PUSH1 0x1 PUSH1 0xE0 SHL SUB NOT DUP3 AND PUSH4 0x24832483 PUSH1 0xE1 SHL EQ DUP1 PUSH2 0x6CD JUMPI POP PUSH2 0x6CD DUP3 PUSH2 0x1DCF JUMP JUMPDEST PUSH1 0x0 DUP2 DUP2 MSTORE PUSH1 0x67 PUSH1 0x20 MSTORE PUSH1 0x40 SWAP1 KECCAK256 SLOAD PUSH1 0x1 PUSH1 0x1 PUSH1 0xA0 SHL SUB AND PUSH2 0xAF6 JUMPI PUSH1 0x40 MLOAD PUSH3 0x461BCD PUSH1 0xE5 SHL DUP2 MSTORE PUSH1 0x20 PUSH1 0x4 DUP3 ADD MSTORE PUSH1 0x18 PUSH1 0x24 DUP3 ADD MSTORE PUSH24 0x115490CDCC8C4E881A5B9D985B1A59081D1BDAD95B881251 PUSH1 0x42 SHL PUSH1 0x44 DUP3 ADD MSTORE PUSH1 0x64 ADD PUSH2 0x801 JUMP JUMPDEST PUSH1 0x0 DUP2 DUP2 MSTORE PUSH1 0x69 PUSH1 0x20 MSTORE PUSH1 0x40 SWAP1 KECCAK256 DUP1 SLOAD PUSH1 0x1 PUSH1 0x1 PUSH1 0xA0 SHL SUB NOT AND PUSH1 0x1 PUSH1 0x1 PUSH1 0xA0 SHL SUB DUP5 AND SWAP1 DUP2 OR SWAP1 SWAP2 SSTORE DUP2 SWAP1 PUSH2 0x1772 DUP3 PUSH2 0xC7E JUMP JUMPDEST PUSH1 0x1 PUSH1 0x1 PUSH1 0xA0 SHL SUB AND PUSH32 0x8C5BE1E5EBEC7D5BD14F71427D1E84F3DD0314C0F7B2291E5B200AC8C7C3B925 PUSH1 0x40 MLOAD PUSH1 0x40 MLOAD DUP1 SWAP2 SUB SWAP1 LOG4 POP POP JUMP JUMPDEST PUSH2 0xAF6 DUP2 CALLER PUSH2 0x1DF4 JUMP JUMPDEST PUSH1 0x0 DUP1 PUSH2 0x17C1 DUP4 PUSH2 0xC7E JUMP JUMPDEST SWAP1 POP DUP1 PUSH1 0x1 PUSH1 0x1 PUSH1 0xA0 SHL SUB AND DUP5 PUSH1 0x1 PUSH1 0x1 PUSH1 0xA0 SHL SUB AND EQ DUP1 PUSH2 0x1808 JUMPI POP PUSH1 0x1 PUSH1 0x1 PUSH1 0xA0 SHL SUB DUP1 DUP3 AND PUSH1 0x0 SWAP1 DUP2 MSTORE PUSH1 0x6A PUSH1 0x20 SWAP1 DUP2 MSTORE PUSH1 0x40 DUP1 DUP4 KECCAK256 SWAP4 DUP9 AND DUP4 MSTORE SWAP3 SWAP1 MSTORE KECCAK256 SLOAD PUSH1 0xFF AND JUMPDEST DUP1 PUSH2 0x182C JUMPI POP DUP4 PUSH1 0x1 PUSH1 0x1 PUSH1 0xA0 SHL SUB AND PUSH2 0x1821 DUP5 PUSH2 0x765 JUMP JUMPDEST PUSH1 0x1 PUSH1 0x1 PUSH1 0xA0 SHL SUB AND EQ JUMPDEST SWAP5 SWAP4 POP POP POP POP JUMP JUMPDEST DUP3 PUSH1 0x1 PUSH1 0x1 PUSH1 0xA0 SHL SUB AND PUSH2 0x1847 DUP3 PUSH2 0xC7E JUMP JUMPDEST PUSH1 0x1 PUSH1 0x1 PUSH1 0xA0 SHL SUB AND EQ PUSH2 0x186D JUMPI PUSH1 0x40 MLOAD PUSH3 0x461BCD PUSH1 0xE5 SHL DUP2 MSTORE PUSH1 0x4 ADD PUSH2 0x801 SWAP1 PUSH2 0x2E54 JUMP JUMPDEST PUSH1 0x1 PUSH1 0x1 PUSH1 0xA0 SHL SUB DUP3 AND PUSH2 0x18CF JUMPI PUSH1 0x40 MLOAD PUSH3 0x461BCD PUSH1 0xE5 SHL DUP2 MSTORE PUSH1 0x20 PUSH1 0x4 DUP3 ADD MSTORE PUSH1 0x24 DUP1 DUP3 ADD MSTORE PUSH32 0x4552433732313A207472616E7366657220746F20746865207A65726F20616464 PUSH1 0x44 DUP3 ADD MSTORE PUSH4 0x72657373 PUSH1 0xE0 SHL PUSH1 0x64 DUP3 ADD MSTORE PUSH1 0x84 ADD PUSH2 0x801 JUMP JUMPDEST DUP3 PUSH1 0x1 PUSH1 0x1 PUSH1 0xA0 SHL SUB AND PUSH2 0x18E2 DUP3 PUSH2 0xC7E JUMP JUMPDEST PUSH1 0x1 PUSH1 0x1 PUSH1 0xA0 SHL SUB AND EQ PUSH2 0x1908 JUMPI PUSH1 0x40 MLOAD PUSH3 0x461BCD PUSH1 0xE5 SHL DUP2 MSTORE PUSH1 0x4 ADD PUSH2 0x801 SWAP1 PUSH2 0x2E54 JUMP JUMPDEST PUSH1 0x0 DUP2 DUP2 MSTORE PUSH1 0x69 PUSH1 0x20 SWAP1 DUP2 MSTORE PUSH1 0x40 DUP1 DUP4 KECCAK256 DUP1 SLOAD PUSH1 0x1 PUSH1 0x1 PUSH1 0xA0 SHL SUB NOT SWAP1 DUP2 AND SWAP1 SWAP2 SSTORE PUSH1 0x1 PUSH1 0x1 PUSH1 0xA0 SHL SUB DUP8 DUP2 AND DUP1 DUP7 MSTORE PUSH1 0x68 DUP6 MSTORE DUP4 DUP7 KECCAK256 DUP1 SLOAD PUSH1 0x0 NOT ADD SWAP1 SSTORE SWAP1 DUP8 AND DUP1 DUP7 MSTORE DUP4 DUP7 KECCAK256 DUP1 SLOAD PUSH1 0x1 ADD SWAP1 SSTORE DUP7 DUP7 MSTORE PUSH1 0x67 SWAP1 SWAP5 MSTORE DUP3 DUP6 KECCAK256 DUP1 SLOAD SWAP1 SWAP3 AND DUP5 OR SWAP1 SWAP2 SSTORE SWAP1 MLOAD DUP5 SWAP4 PUSH32 0xDDF252AD1BE2C89B69C2B068FC378DAA952BA7F163C4A11628F55A4DF523B3EF SWAP2 LOG4 POP POP POP JUMP JUMPDEST PUSH2 0x19A2 DUP3 DUP3 PUSH2 0xEB0 JUMP JUMPDEST PUSH2 0xA3B JUMPI PUSH1 0x0 DUP3 DUP2 MSTORE PUSH1 0x97 PUSH1 0x20 SWAP1 DUP2 MSTORE PUSH1 0x40 DUP1 DUP4 KECCAK256 PUSH1 0x1 PUSH1 0x1 PUSH1 0xA0 SHL SUB DUP6 AND DUP5 MSTORE SWAP1 SWAP2 MSTORE SWAP1 KECCAK256 DUP1 SLOAD PUSH1 0xFF NOT AND PUSH1 0x1 OR SWAP1 SSTORE PUSH2 0x19DA CALLER SWAP1 JUMP JUMPDEST PUSH1 0x1 PUSH1 0x1 PUSH1 0xA0 SHL SUB AND DUP2 PUSH1 0x1 PUSH1 0x1 PUSH1 0xA0 SHL SUB AND DUP4 PUSH32 0x2F8788117E7EFF1D82E926EC794901D17C78024A50270940304540A733656F0D PUSH1 0x40 MLOAD PUSH1 0x40 MLOAD DUP1 SWAP2 SUB SWAP1 LOG4 POP POP JUMP JUMPDEST PUSH2 0x1A28 DUP3 DUP3 PUSH2 0xEB0 JUMP JUMPDEST ISZERO PUSH2 0xA3B JUMPI PUSH1 0x0 DUP3 DUP2 MSTORE PUSH1 0x97 PUSH1 0x20 SWAP1 DUP2 MSTORE PUSH1 0x40 DUP1 DUP4 KECCAK256 PUSH1 0x1 PUSH1 0x1 PUSH1 0xA0 SHL SUB DUP6 AND DUP1 DUP6 MSTORE SWAP3 MSTORE DUP1 DUP4 KECCAK256 DUP1 SLOAD PUSH1 0xFF NOT AND SWAP1 SSTORE MLOAD CALLER SWAP3 DUP6 SWAP2 PUSH32 0xF6391F5C32D9C69D2A47EA670B442974B53935D1EDC7FD64EB21E047A839171B SWAP2 SWAP1 LOG4 POP POP JUMP JUMPDEST PUSH2 0xA3B DUP3 DUP3 PUSH1 0x40 MLOAD DUP1 PUSH1 0x20 ADD PUSH1 0x40 MSTORE DUP1 PUSH1 0x0 DUP2 MSTORE POP PUSH2 0x1E4D JUMP JUMPDEST PUSH1 0x0 DUP3 DUP2 MSTORE PUSH1 0x67 PUSH1 0x20 MSTORE PUSH1 0x40 SWAP1 KECCAK256 SLOAD PUSH1 0x1 PUSH1 0x1 PUSH1 0xA0 SHL SUB AND PUSH2 0x1B1A JUMPI PUSH1 0x40 MLOAD PUSH3 0x461BCD PUSH1 0xE5 SHL DUP2 MSTORE PUSH1 0x20 PUSH1 0x4 DUP3 ADD MSTORE PUSH1 0x2E PUSH1 0x24 DUP3 ADD MSTORE PUSH32 0x45524337323155524953746F726167653A2055524920736574206F66206E6F6E PUSH1 0x44 DUP3 ADD MSTORE PUSH14 0x32BC34B9BA32B73A103A37B5B2B7 PUSH1 0x91 SHL PUSH1 0x64 DUP3 ADD MSTORE PUSH1 0x84 ADD PUSH2 0x801 JUMP JUMPDEST PUSH1 0x0 DUP3 DUP2 MSTORE PUSH1 0xC9 PUSH1 0x20 SWAP1 DUP2 MSTORE PUSH1 0x40 SWAP1 SWAP2 KECCAK256 DUP3 MLOAD PUSH2 0x1B39 SWAP3 DUP5 ADD SWAP1 PUSH2 0x253C JUMP JUMPDEST POP PUSH1 0x40 MLOAD DUP3 DUP2 MSTORE PUSH32 0xF8E1A15ABA9398E019F0B49DF1A4FDE98EE17AE345CB5F6B5E2C27F5033E8CE7 SWAP1 PUSH1 0x20 ADD PUSH2 0x1499 JUMP JUMPDEST PUSH1 0x0 SLOAD PUSH2 0x100 SWAP1 DIV PUSH1 0xFF AND PUSH2 0x1B91 JUMPI PUSH1 0x40 MLOAD PUSH3 0x461BCD PUSH1 0xE5 SHL DUP2 MSTORE PUSH1 0x4 ADD PUSH2 0x801 SWAP1 PUSH2 0x2E99 JUMP JUMPDEST PUSH2 0xA3B DUP3 DUP3 PUSH2 0x1E80 JUMP JUMPDEST PUSH1 0x0 SLOAD PUSH2 0x100 SWAP1 DIV PUSH1 0xFF AND PUSH2 0x1BC2 JUMPI PUSH1 0x40 MLOAD PUSH3 0x461BCD PUSH1 0xE5 SHL DUP2 MSTORE PUSH1 0x4 ADD PUSH2 0x801 SWAP1 PUSH2 0x2E99 JUMP JUMPDEST JUMP JUMPDEST DUP2 PUSH1 0x1 PUSH1 0x1 PUSH1 0xA0 SHL SUB AND DUP4 PUSH1 0x1 PUSH1 0x1 PUSH1 0xA0 SHL SUB AND EQ ISZERO PUSH2 0x1C26 JUMPI PUSH1 0x40 MLOAD PUSH3 0x461BCD PUSH1 0xE5 SHL DUP2 MSTORE PUSH1 0x20 PUSH1 0x4 DUP3 ADD MSTORE PUSH1 0x19 PUSH1 0x24 DUP3 ADD MSTORE PUSH32 0x4552433732313A20617070726F766520746F2063616C6C657200000000000000 PUSH1 0x44 DUP3 ADD MSTORE PUSH1 0x64 ADD PUSH2 0x801 JUMP JUMPDEST PUSH1 0x1 PUSH1 0x1 PUSH1 0xA0 SHL SUB DUP4 DUP2 AND PUSH1 0x0 DUP2 DUP2 MSTORE PUSH1 0x6A PUSH1 0x20 SWAP1 DUP2 MSTORE PUSH1 0x40 DUP1 DUP4 KECCAK256 SWAP5 DUP8 AND DUP1 DUP5 MSTORE SWAP5 DUP3 MSTORE SWAP2 DUP3 SWAP1 KECCAK256 DUP1 SLOAD PUSH1 0xFF NOT AND DUP7 ISZERO ISZERO SWAP1 DUP2 OR SWAP1 SWAP2 SSTORE SWAP2 MLOAD SWAP2 DUP3 MSTORE PUSH32 0x17307EAB39AB6107E8899845AD3D59BD9653F200F220920489CA2B5937696C31 SWAP2 ADD PUSH1 0x40 MLOAD DUP1 SWAP2 SUB SWAP1 LOG3 POP POP POP JUMP JUMPDEST PUSH2 0x1C9E DUP5 DUP5 DUP5 PUSH2 0x1834 JUMP JUMPDEST PUSH2 0x1CAA DUP5 DUP5 DUP5 DUP5 PUSH2 0x1ECE JUMP JUMPDEST PUSH2 0xC04 JUMPI PUSH1 0x40 MLOAD PUSH3 0x461BCD PUSH1 0xE5 SHL DUP2 MSTORE PUSH1 0x4 ADD PUSH2 0x801 SWAP1 PUSH2 0x2EE4 JUMP JUMPDEST PUSH1 0x60 PUSH2 0x1CD1 DUP3 PUSH2 0x16DE JUMP JUMPDEST PUSH1 0x0 DUP3 DUP2 MSTORE PUSH1 0xC9 PUSH1 0x20 MSTORE PUSH1 0x40 DUP2 KECCAK256 DUP1 SLOAD PUSH2 0x1CEA SWAP1 PUSH2 0x2CD4 JUMP JUMPDEST DUP1 PUSH1 0x1F ADD PUSH1 0x20 DUP1 SWAP2 DIV MUL PUSH1 0x20 ADD PUSH1 0x40 MLOAD SWAP1 DUP2 ADD PUSH1 0x40 MSTORE DUP1 SWAP3 SWAP2 SWAP1 DUP2 DUP2 MSTORE PUSH1 0x20 ADD DUP3 DUP1 SLOAD PUSH2 0x1D16 SWAP1 PUSH2 0x2CD4 JUMP JUMPDEST DUP1 ISZERO PUSH2 0x1D63 JUMPI DUP1 PUSH1 0x1F LT PUSH2 0x1D38 JUMPI PUSH2 0x100 DUP1 DUP4 SLOAD DIV MUL DUP4 MSTORE SWAP2 PUSH1 0x20 ADD SWAP2 PUSH2 0x1D63 JUMP JUMPDEST DUP3 ADD SWAP2 SWAP1 PUSH1 0x0 MSTORE PUSH1 0x20 PUSH1 0x0 KECCAK256 SWAP1 JUMPDEST DUP2 SLOAD DUP2 MSTORE SWAP1 PUSH1 0x1 ADD SWAP1 PUSH1 0x20 ADD DUP1 DUP4 GT PUSH2 0x1D46 JUMPI DUP3 SWAP1 SUB PUSH1 0x1F AND DUP3 ADD SWAP2 JUMPDEST POP POP POP POP POP SWAP1 POP PUSH1 0x0 PUSH2 0x1D81 PUSH1 0x40 DUP1 MLOAD PUSH1 0x20 DUP2 ADD SWAP1 SWAP2 MSTORE PUSH1 0x0 DUP2 MSTORE SWAP1 JUMP JUMPDEST SWAP1 POP DUP1 MLOAD PUSH1 0x0 EQ ISZERO PUSH2 0x1D94 JUMPI POP SWAP3 SWAP2 POP POP JUMP JUMPDEST DUP2 MLOAD ISZERO PUSH2 0x1DC6 JUMPI DUP1 DUP3 PUSH1 0x40 MLOAD PUSH1 0x20 ADD PUSH2 0x1DAE SWAP3 SWAP2 SWAP1 PUSH2 0x2F36 JUMP JUMPDEST PUSH1 0x40 MLOAD PUSH1 0x20 DUP2 DUP4 SUB SUB DUP2 MSTORE SWAP1 PUSH1 0x40 MSTORE SWAP3 POP POP POP SWAP2 SWAP1 POP JUMP JUMPDEST PUSH2 0x182C DUP5 PUSH2 0x1FCC JUMP JUMPDEST PUSH1 0x0 PUSH1 0x1 PUSH1 0x1 PUSH1 0xE0 SHL SUB NOT DUP3 AND PUSH4 0x7965DB0B PUSH1 0xE0 SHL EQ DUP1 PUSH2 0x6CD JUMPI POP PUSH2 0x6CD DUP3 PUSH2 0x2040 JUMP JUMPDEST PUSH2 0x1DFE DUP3 DUP3 PUSH2 0xEB0 JUMP JUMPDEST PUSH2 0xA3B JUMPI PUSH2 0x1E0B DUP2 PUSH2 0x2090 JUMP JUMPDEST PUSH2 0x1E16 DUP4 PUSH1 0x20 PUSH2 0x20A2 JUMP JUMPDEST PUSH1 0x40 MLOAD PUSH1 0x20 ADD PUSH2 0x1E27 SWAP3 SWAP2 SWAP1 PUSH2 0x2F65 JUMP JUMPDEST PUSH1 0x40 DUP1 MLOAD PUSH1 0x1F NOT DUP2 DUP5 SUB ADD DUP2 MSTORE SWAP1 DUP3 SWAP1 MSTORE PUSH3 0x461BCD PUSH1 0xE5 SHL DUP3 MSTORE PUSH2 0x801 SWAP2 PUSH1 0x4 ADD PUSH2 0x2660 JUMP JUMPDEST PUSH2 0x1E57 DUP4 DUP4 PUSH2 0x223D JUMP JUMPDEST PUSH2 0x1E64 PUSH1 0x0 DUP5 DUP5 DUP5 PUSH2 0x1ECE JUMP JUMPDEST PUSH2 0x8A2 JUMPI PUSH1 0x40 MLOAD PUSH3 0x461BCD PUSH1 0xE5 SHL DUP2 MSTORE PUSH1 0x4 ADD PUSH2 0x801 SWAP1 PUSH2 0x2EE4 JUMP JUMPDEST PUSH1 0x0 SLOAD PUSH2 0x100 SWAP1 DIV PUSH1 0xFF AND PUSH2 0x1EA7 JUMPI PUSH1 0x40 MLOAD PUSH3 0x461BCD PUSH1 0xE5 SHL DUP2 MSTORE PUSH1 0x4 ADD PUSH2 0x801 SWAP1 PUSH2 0x2E99 JUMP JUMPDEST DUP2 MLOAD PUSH2 0x1EBA SWAP1 PUSH1 0x65 SWAP1 PUSH1 0x20 DUP6 ADD SWAP1 PUSH2 0x253C JUMP JUMPDEST POP DUP1 MLOAD PUSH2 0x8A2 SWAP1 PUSH1 0x66 SWAP1 PUSH1 0x20 DUP5 ADD SWAP1 PUSH2 0x253C JUMP JUMPDEST PUSH1 0x0 PUSH1 0x1 PUSH1 0x1 PUSH1 0xA0 SHL SUB DUP5 AND EXTCODESIZE ISZERO PUSH2 0x1FC1 JUMPI PUSH1 0x40 MLOAD PUSH4 0xA85BD01 PUSH1 0xE1 SHL DUP2 MSTORE PUSH1 0x1 PUSH1 0x1 PUSH1 0xA0 SHL SUB DUP6 AND SWAP1 PUSH4 0x150B7A02 SWAP1 PUSH2 0x1F12 SWAP1 CALLER SWAP1 DUP10 SWAP1 DUP9 SWAP1 DUP9 SWAP1 PUSH1 0x4 ADD PUSH2 0x2FDA JUMP JUMPDEST PUSH1 0x20 PUSH1 0x40 MLOAD DUP1 DUP4 SUB DUP2 PUSH1 0x0 DUP8 GAS CALL SWAP3 POP POP POP DUP1 ISZERO PUSH2 0x1F4D JUMPI POP PUSH1 0x40 DUP1 MLOAD PUSH1 0x1F RETURNDATASIZE SWAP1 DUP2 ADD PUSH1 0x1F NOT AND DUP3 ADD SWAP1 SWAP3 MSTORE PUSH2 0x1F4A SWAP2 DUP2 ADD SWAP1 PUSH2 0x3017 JUMP JUMPDEST PUSH1 0x1 JUMPDEST PUSH2 0x1FA7 JUMPI RETURNDATASIZE DUP1 DUP1 ISZERO PUSH2 0x1F7B JUMPI PUSH1 0x40 MLOAD SWAP2 POP PUSH1 0x1F NOT PUSH1 0x3F RETURNDATASIZE ADD AND DUP3 ADD PUSH1 0x40 MSTORE RETURNDATASIZE DUP3 MSTORE RETURNDATASIZE PUSH1 0x0 PUSH1 0x20 DUP5 ADD RETURNDATACOPY PUSH2 0x1F80 JUMP JUMPDEST PUSH1 0x60 SWAP2 POP JUMPDEST POP DUP1 MLOAD PUSH2 0x1F9F JUMPI PUSH1 0x40 MLOAD PUSH3 0x461BCD PUSH1 0xE5 SHL DUP2 MSTORE PUSH1 0x4 ADD PUSH2 0x801 SWAP1 PUSH2 0x2EE4 JUMP JUMPDEST DUP1 MLOAD DUP2 PUSH1 0x20 ADD REVERT JUMPDEST PUSH1 0x1 PUSH1 0x1 PUSH1 0xE0 SHL SUB NOT AND PUSH4 0xA85BD01 PUSH1 0xE1 SHL EQ SWAP1 POP PUSH2 0x182C JUMP JUMPDEST POP PUSH1 0x1 SWAP5 SWAP4 POP POP POP POP JUMP JUMPDEST PUSH1 0x60 PUSH2 0x1FD7 DUP3 PUSH2 0x16DE JUMP JUMPDEST PUSH1 0x0 PUSH2 0x1FEE PUSH1 0x40 DUP1 MLOAD PUSH1 0x20 DUP2 ADD SWAP1 SWAP2 MSTORE PUSH1 0x0 DUP2 MSTORE SWAP1 JUMP JUMPDEST SWAP1 POP PUSH1 0x0 DUP2 MLOAD GT PUSH2 0x200E JUMPI PUSH1 0x40 MLOAD DUP1 PUSH1 0x20 ADD PUSH1 0x40 MSTORE DUP1 PUSH1 0x0 DUP2 MSTORE POP PUSH2 0x2039 JUMP JUMPDEST DUP1 PUSH2 0x2018 DUP5 PUSH2 0x23C8 JUMP JUMPDEST PUSH1 0x40 MLOAD PUSH1 0x20 ADD PUSH2 0x2029 SWAP3 SWAP2 SWAP1 PUSH2 0x2F36 JUMP JUMPDEST PUSH1 0x40 MLOAD PUSH1 0x20 DUP2 DUP4 SUB SUB DUP2 MSTORE SWAP1 PUSH1 0x40 MSTORE JUMPDEST SWAP4 SWAP3 POP POP POP JUMP JUMPDEST PUSH1 0x0 PUSH1 0x1 PUSH1 0x1 PUSH1 0xE0 SHL SUB NOT DUP3 AND PUSH4 0x80AC58CD PUSH1 0xE0 SHL EQ DUP1 PUSH2 0x2071 JUMPI POP PUSH1 0x1 PUSH1 0x1 PUSH1 0xE0 SHL SUB NOT DUP3 AND PUSH4 0x5B5E139F PUSH1 0xE0 SHL EQ JUMPDEST DUP1 PUSH2 0x6CD JUMPI POP PUSH4 0x1FFC9A7 PUSH1 0xE0 SHL PUSH1 0x1 PUSH1 0x1 PUSH1 0xE0 SHL SUB NOT DUP4 AND EQ PUSH2 0x6CD JUMP JUMPDEST PUSH1 0x60 PUSH2 0x6CD PUSH1 0x1 PUSH1 0x1 PUSH1 0xA0 SHL SUB DUP4 AND PUSH1 0x14 JUMPDEST PUSH1 0x60 PUSH1 0x0 PUSH2 0x20B1 DUP4 PUSH1 0x2 PUSH2 0x3034 JUMP JUMPDEST PUSH2 0x20BC SWAP1 PUSH1 0x2 PUSH2 0x3053 JUMP JUMPDEST PUSH1 0x1 PUSH1 0x1 PUSH1 0x40 SHL SUB DUP2 GT ISZERO PUSH2 0x20D3 JUMPI PUSH2 0x20D3 PUSH2 0x282F JUMP JUMPDEST PUSH1 0x40 MLOAD SWAP1 DUP1 DUP3 MSTORE DUP1 PUSH1 0x1F ADD PUSH1 0x1F NOT AND PUSH1 0x20 ADD DUP3 ADD PUSH1 0x40 MSTORE DUP1 ISZERO PUSH2 0x20FD JUMPI PUSH1 0x20 DUP3 ADD DUP2 DUP1 CALLDATASIZE DUP4 CALLDATACOPY ADD SWAP1 POP JUMPDEST POP SWAP1 POP PUSH1 0x3 PUSH1 0xFC SHL DUP2 PUSH1 0x0 DUP2 MLOAD DUP2 LT PUSH2 0x2118 JUMPI PUSH2 0x2118 PUSH2 0x2DB0 JUMP JUMPDEST PUSH1 0x20 ADD ADD SWAP1 PUSH1 0x1 PUSH1 0x1 PUSH1 0xF8 SHL SUB NOT AND SWAP1 DUP2 PUSH1 0x0 BYTE SWAP1 MSTORE8 POP PUSH1 0xF PUSH1 0xFB SHL DUP2 PUSH1 0x1 DUP2 MLOAD DUP2 LT PUSH2 0x2147 JUMPI PUSH2 0x2147 PUSH2 0x2DB0 JUMP JUMPDEST PUSH1 0x20 ADD ADD SWAP1 PUSH1 0x1 PUSH1 0x1 PUSH1 0xF8 SHL SUB NOT AND SWAP1 DUP2 PUSH1 0x0 BYTE SWAP1 MSTORE8 POP PUSH1 0x0 PUSH2 0x216B DUP5 PUSH1 0x2 PUSH2 0x3034 JUMP JUMPDEST PUSH2 0x2176 SWAP1 PUSH1 0x1 PUSH2 0x3053 JUMP JUMPDEST SWAP1 POP JUMPDEST PUSH1 0x1 DUP2 GT ISZERO PUSH2 0x21EE JUMPI PUSH16 0x181899199A1A9B1B9C1CB0B131B232B3 PUSH1 0x81 SHL DUP6 PUSH1 0xF AND PUSH1 0x10 DUP2 LT PUSH2 0x21AA JUMPI PUSH2 0x21AA PUSH2 0x2DB0 JUMP JUMPDEST BYTE PUSH1 0xF8 SHL DUP3 DUP3 DUP2 MLOAD DUP2 LT PUSH2 0x21C0 JUMPI PUSH2 0x21C0 PUSH2 0x2DB0 JUMP JUMPDEST PUSH1 0x20 ADD ADD SWAP1 PUSH1 0x1 PUSH1 0x1 PUSH1 0xF8 SHL SUB NOT AND SWAP1 DUP2 PUSH1 0x0 BYTE SWAP1 MSTORE8 POP PUSH1 0x4 SWAP5 SWAP1 SWAP5 SHR SWAP4 PUSH2 0x21E7 DUP2 PUSH2 0x306B JUMP JUMPDEST SWAP1 POP PUSH2 0x2179 JUMP JUMPDEST POP DUP4 ISZERO PUSH2 0x2039 JUMPI PUSH1 0x40 MLOAD PUSH3 0x461BCD PUSH1 0xE5 SHL DUP2 MSTORE PUSH1 0x20 PUSH1 0x4 DUP3 ADD DUP2 SWAP1 MSTORE PUSH1 0x24 DUP3 ADD MSTORE PUSH32 0x537472696E67733A20686578206C656E67746820696E73756666696369656E74 PUSH1 0x44 DUP3 ADD MSTORE PUSH1 0x64 ADD PUSH2 0x801 JUMP JUMPDEST PUSH1 0x1 PUSH1 0x1 PUSH1 0xA0 SHL SUB DUP3 AND PUSH2 0x2293 JUMPI PUSH1 0x40 MLOAD PUSH3 0x461BCD PUSH1 0xE5 SHL DUP2 MSTORE PUSH1 0x20 PUSH1 0x4 DUP3 ADD DUP2 SWAP1 MSTORE PUSH1 0x24 DUP3 ADD MSTORE PUSH32 0x4552433732313A206D696E7420746F20746865207A65726F2061646472657373 PUSH1 0x44 DUP3 ADD MSTORE PUSH1 0x64 ADD PUSH2 0x801 JUMP JUMPDEST PUSH1 0x0 DUP2 DUP2 MSTORE PUSH1 0x67 PUSH1 0x20 MSTORE PUSH1 0x40 SWAP1 KECCAK256 SLOAD PUSH1 0x1 PUSH1 0x1 PUSH1 0xA0 SHL SUB AND ISZERO PUSH2 0x22F8 JUMPI PUSH1 0x40 MLOAD PUSH3 0x461BCD PUSH1 0xE5 SHL DUP2 MSTORE PUSH1 0x20 PUSH1 0x4 DUP3 ADD MSTORE PUSH1 0x1C PUSH1 0x24 DUP3 ADD MSTORE PUSH32 0x4552433732313A20746F6B656E20616C7265616479206D696E74656400000000 PUSH1 0x44 DUP3 ADD MSTORE PUSH1 0x64 ADD PUSH2 0x801 JUMP JUMPDEST PUSH1 0x0 DUP2 DUP2 MSTORE PUSH1 0x67 PUSH1 0x20 MSTORE PUSH1 0x40 SWAP1 KECCAK256 SLOAD PUSH1 0x1 PUSH1 0x1 PUSH1 0xA0 SHL SUB AND ISZERO PUSH2 0x235D JUMPI PUSH1 0x40 MLOAD PUSH3 0x461BCD PUSH1 0xE5 SHL DUP2 MSTORE PUSH1 0x20 PUSH1 0x4 DUP3 ADD MSTORE PUSH1 0x1C PUSH1 0x24 DUP3 ADD MSTORE PUSH32 0x4552433732313A20746F6B656E20616C7265616479206D696E74656400000000 PUSH1 0x44 DUP3 ADD MSTORE PUSH1 0x64 ADD PUSH2 0x801 JUMP JUMPDEST PUSH1 0x1 PUSH1 0x1 PUSH1 0xA0 SHL SUB DUP3 AND PUSH1 0x0 DUP2 DUP2 MSTORE PUSH1 0x68 PUSH1 0x20 SWAP1 DUP2 MSTORE PUSH1 0x40 DUP1 DUP4 KECCAK256 DUP1 SLOAD PUSH1 0x1 ADD SWAP1 SSTORE DUP5 DUP4 MSTORE PUSH1 0x67 SWAP1 SWAP2 MSTORE DUP1 DUP3 KECCAK256 DUP1 SLOAD PUSH1 0x1 PUSH1 0x1 PUSH1 0xA0 SHL SUB NOT AND DUP5 OR SWAP1 SSTORE MLOAD DUP4 SWAP3 SWAP2 SWAP1 PUSH32 0xDDF252AD1BE2C89B69C2B068FC378DAA952BA7F163C4A11628F55A4DF523B3EF SWAP1 DUP3 SWAP1 LOG4 POP POP JUMP JUMPDEST PUSH1 0x60 PUSH1 0x0 PUSH2 0x23D5 DUP4 PUSH2 0x2464 JUMP JUMPDEST PUSH1 0x1 ADD SWAP1 POP PUSH1 0x0 DUP2 PUSH1 0x1 PUSH1 0x1 PUSH1 0x40 SHL SUB DUP2 GT ISZERO PUSH2 0x23F4 JUMPI PUSH2 0x23F4 PUSH2 0x282F JUMP JUMPDEST PUSH1 0x40 MLOAD SWAP1 DUP1 DUP3 MSTORE DUP1 PUSH1 0x1F ADD PUSH1 0x1F NOT AND PUSH1 0x20 ADD DUP3 ADD PUSH1 0x40 MSTORE DUP1 ISZERO PUSH2 0x241E JUMPI PUSH1 0x20 DUP3 ADD DUP2 DUP1 CALLDATASIZE DUP4 CALLDATACOPY ADD SWAP1 POP JUMPDEST POP SWAP1 POP DUP2 DUP2 ADD PUSH1 0x20 ADD JUMPDEST PUSH1 0x0 NOT ADD PUSH16 0x181899199A1A9B1B9C1CB0B131B232B3 PUSH1 0x81 SHL PUSH1 0xA DUP7 MOD BYTE DUP2 MSTORE8 PUSH1 0xA DUP6 DIV SWAP5 POP DUP5 PUSH2 0x2457 JUMPI PUSH2 0x245C JUMP JUMPDEST PUSH2 0x2428 JUMP JUMPDEST POP SWAP4 SWAP3 POP POP POP JUMP JUMPDEST PUSH1 0x0 DUP1 PUSH19 0x184F03E93FF9F4DAA797ED6E38ED64BF6A1F01 PUSH1 0x40 SHL DUP4 LT PUSH2 0x24A3 JUMPI PUSH19 0x184F03E93FF9F4DAA797ED6E38ED64BF6A1F01 PUSH1 0x40 SHL DUP4 DIV SWAP3 POP PUSH1 0x40 ADD JUMPDEST PUSH14 0x4EE2D6D415B85ACEF8100000000 DUP4 LT PUSH2 0x24CF JUMPI PUSH14 0x4EE2D6D415B85ACEF8100000000 DUP4 DIV SWAP3 POP PUSH1 0x20 ADD JUMPDEST PUSH7 0x2386F26FC10000 DUP4 LT PUSH2 0x24ED JUMPI PUSH7 0x2386F26FC10000 DUP4 DIV SWAP3 POP PUSH1 0x10 ADD JUMPDEST PUSH4 0x5F5E100 DUP4 LT PUSH2 0x2505 JUMPI PUSH4 0x5F5E100 DUP4 DIV SWAP3 POP PUSH1 0x8 ADD JUMPDEST PUSH2 0x2710 DUP4 LT PUSH2 0x2519 JUMPI PUSH2 0x2710 DUP4 DIV SWAP3 POP PUSH1 0x4 ADD JUMPDEST PUSH1 0x64 DUP4 LT PUSH2 0x252B JUMPI PUSH1 0x64 DUP4 DIV SWAP3 POP PUSH1 0x2 ADD JUMPDEST PUSH1 0xA DUP4 LT PUSH2 0x6CD JUMPI PUSH1 0x1 ADD SWAP3 SWAP2 POP POP JUMP JUMPDEST DUP3 DUP1 SLOAD PUSH2 0x2548 SWAP1 PUSH2 0x2CD4 JUMP JUMPDEST SWAP1 PUSH1 0x0 MSTORE PUSH1 0x20 PUSH1 0x0 KECCAK256 SWAP1 PUSH1 0x1F ADD PUSH1 0x20 SWAP1 DIV DUP2 ADD SWAP3 DUP3 PUSH2 0x256A JUMPI PUSH1 0x0 DUP6 SSTORE PUSH2 0x25B0 JUMP JUMPDEST DUP3 PUSH1 0x1F LT PUSH2 0x2583 JUMPI DUP1 MLOAD PUSH1 0xFF NOT AND DUP4 DUP1 ADD OR DUP6 SSTORE PUSH2 0x25B0 JUMP JUMPDEST DUP3 DUP1 ADD PUSH1 0x1 ADD DUP6 SSTORE DUP3 ISZERO PUSH2 0x25B0 JUMPI SWAP2 DUP3 ADD JUMPDEST DUP3 DUP2 GT ISZERO PUSH2 0x25B0 JUMPI DUP3 MLOAD DUP3 SSTORE SWAP2 PUSH1 0x20 ADD SWAP2 SWAP1 PUSH1 0x1 ADD SWAP1 PUSH2 0x2595 JUMP JUMPDEST POP PUSH2 0x25BC SWAP3 SWAP2 POP PUSH2 0x25C0 JUMP JUMPDEST POP SWAP1 JUMP JUMPDEST JUMPDEST DUP1 DUP3 GT ISZERO PUSH2 0x25BC JUMPI PUSH1 0x0 DUP2 SSTORE PUSH1 0x1 ADD PUSH2 0x25C1 JUMP JUMPDEST PUSH1 0x1 PUSH1 0x1 PUSH1 0xE0 SHL SUB NOT DUP2 AND DUP2 EQ PUSH2 0xAF6 JUMPI PUSH1 0x0 DUP1 REVERT JUMPDEST PUSH1 0x0 PUSH1 0x20 DUP3 DUP5 SUB SLT ISZERO PUSH2 0x25FD JUMPI PUSH1 0x0 DUP1 REVERT JUMPDEST DUP2 CALLDATALOAD PUSH2 0x2039 DUP2 PUSH2 0x25D5 JUMP JUMPDEST PUSH1 0x0 JUMPDEST DUP4 DUP2 LT ISZERO PUSH2 0x2623 JUMPI DUP2 DUP2 ADD MLOAD DUP4 DUP3 ADD MSTORE PUSH1 0x20 ADD PUSH2 0x260B JUMP JUMPDEST DUP4 DUP2 GT ISZERO PUSH2 0xC04 JUMPI POP POP PUSH1 0x0 SWAP2 ADD MSTORE JUMP JUMPDEST PUSH1 0x0 DUP2 MLOAD DUP1 DUP5 MSTORE PUSH2 0x264C DUP2 PUSH1 0x20 DUP7 ADD PUSH1 0x20 DUP7 ADD PUSH2 0x2608 JUMP JUMPDEST PUSH1 0x1F ADD PUSH1 0x1F NOT AND SWAP3 SWAP1 SWAP3 ADD PUSH1 0x20 ADD SWAP3 SWAP2 POP POP JUMP JUMPDEST PUSH1 0x20 DUP2 MSTORE PUSH1 0x0 PUSH2 0x2039 PUSH1 0x20 DUP4 ADD DUP5 PUSH2 0x2634 JUMP JUMPDEST PUSH1 0x0 PUSH1 0x20 DUP3 DUP5 SUB SLT ISZERO PUSH2 0x2685 JUMPI PUSH1 0x0 DUP1 REVERT JUMPDEST POP CALLDATALOAD SWAP2 SWAP1 POP JUMP JUMPDEST DUP1 CALLDATALOAD PUSH1 0x1 PUSH1 0x1 PUSH1 0xA0 SHL SUB DUP2 AND DUP2 EQ PUSH2 0x26A3 JUMPI PUSH1 0x0 DUP1 REVERT JUMPDEST SWAP2 SWAP1 POP JUMP JUMPDEST PUSH1 0x0 DUP1 PUSH1 0x40 DUP4 DUP6 SUB SLT ISZERO PUSH2 0x26BB JUMPI PUSH1 0x0 DUP1 REVERT JUMPDEST PUSH2 0x26C4 DUP4 PUSH2 0x268C JUMP JUMPDEST SWAP5 PUSH1 0x20 SWAP4 SWAP1 SWAP4 ADD CALLDATALOAD SWAP4 POP POP POP JUMP JUMPDEST DUP1 CALLDATALOAD PUSH1 0xFF DUP2 AND DUP2 EQ PUSH2 0x26A3 JUMPI PUSH1 0x0 DUP1 REVERT JUMPDEST PUSH1 0x0 PUSH1 0x20 DUP3 DUP5 SUB SLT ISZERO PUSH2 0x26F5 JUMPI PUSH1 0x0 DUP1 REVERT JUMPDEST PUSH2 0x2039 DUP3 PUSH2 0x26D2 JUMP JUMPDEST PUSH1 0x0 DUP1 PUSH1 0x0 PUSH1 0x60 DUP5 DUP7 SUB SLT ISZERO PUSH2 0x2713 JUMPI PUSH1 0x0 DUP1 REVERT JUMPDEST PUSH2 0x271C DUP5 PUSH2 0x268C JUMP JUMPDEST SWAP3 POP PUSH2 0x272A PUSH1 0x20 DUP6 ADD PUSH2 0x268C JUMP JUMPDEST SWAP2 POP PUSH1 0x40 DUP5 ADD CALLDATALOAD SWAP1 POP SWAP3 POP SWAP3 POP SWAP3 JUMP JUMPDEST PUSH1 0x0 DUP1 PUSH1 0x40 DUP4 DUP6 SUB SLT ISZERO PUSH2 0x274D JUMPI PUSH1 0x0 DUP1 REVERT JUMPDEST DUP3 CALLDATALOAD SWAP2 POP PUSH2 0x275D PUSH1 0x20 DUP5 ADD PUSH2 0x268C JUMP JUMPDEST SWAP1 POP SWAP3 POP SWAP3 SWAP1 POP JUMP JUMPDEST PUSH1 0x0 PUSH1 0x20 DUP3 DUP5 SUB SLT ISZERO PUSH2 0x2778 JUMPI PUSH1 0x0 DUP1 REVERT JUMPDEST PUSH2 0x2039 DUP3 PUSH2 0x268C JUMP JUMPDEST PUSH1 0x0 DUP1 DUP4 PUSH1 0x1F DUP5 ADD SLT PUSH2 0x2793 JUMPI PUSH1 0x0 DUP1 REVERT JUMPDEST POP DUP2 CALLDATALOAD PUSH1 0x1 PUSH1 0x1 PUSH1 0x40 SHL SUB DUP2 GT ISZERO PUSH2 0x27AA JUMPI PUSH1 0x0 DUP1 REVERT JUMPDEST PUSH1 0x20 DUP4 ADD SWAP2 POP DUP4 PUSH1 0x20 DUP3 PUSH1 0x5 SHL DUP6 ADD ADD GT ISZERO PUSH2 0x27C5 JUMPI PUSH1 0x0 DUP1 REVERT JUMPDEST SWAP3 POP SWAP3 SWAP1 POP JUMP JUMPDEST PUSH1 0x0 DUP1 PUSH1 0x20 DUP4 DUP6 SUB SLT ISZERO PUSH2 0x27DF JUMPI PUSH1 0x0 DUP1 REVERT JUMPDEST DUP3 CALLDATALOAD PUSH1 0x1 PUSH1 0x1 PUSH1 0x40 SHL SUB DUP2 GT ISZERO PUSH2 0x27F5 JUMPI PUSH1 0x0 DUP1 REVERT JUMPDEST PUSH2 0x2801 DUP6 DUP3 DUP7 ADD PUSH2 0x2781 JUMP JUMPDEST SWAP1 SWAP7 SWAP1 SWAP6 POP SWAP4 POP POP POP POP JUMP JUMPDEST PUSH1 0x0 DUP1 PUSH1 0x40 DUP4 DUP6 SUB SLT ISZERO PUSH2 0x2820 JUMPI PUSH1 0x0 DUP1 REVERT JUMPDEST POP POP DUP1 CALLDATALOAD SWAP3 PUSH1 0x20 SWAP1 SWAP2 ADD CALLDATALOAD SWAP2 POP JUMP JUMPDEST PUSH4 0x4E487B71 PUSH1 0xE0 SHL PUSH1 0x0 MSTORE PUSH1 0x41 PUSH1 0x4 MSTORE PUSH1 0x24 PUSH1 0x0 REVERT JUMPDEST PUSH1 0x40 MLOAD PUSH1 0x1F DUP3 ADD PUSH1 0x1F NOT AND DUP2 ADD PUSH1 0x1 PUSH1 0x1 PUSH1 0x40 SHL SUB DUP2 GT DUP3 DUP3 LT OR ISZERO PUSH2 0x286D JUMPI PUSH2 0x286D PUSH2 0x282F JUMP JUMPDEST PUSH1 0x40 MSTORE SWAP2 SWAP1 POP JUMP JUMPDEST PUSH1 0x0 DUP3 PUSH1 0x1F DUP4 ADD SLT PUSH2 0x2886 JUMPI PUSH1 0x0 DUP1 REVERT JUMPDEST DUP2 CALLDATALOAD PUSH1 0x20 PUSH1 0x1 PUSH1 0x1 PUSH1 0x40 SHL SUB DUP3 GT ISZERO PUSH2 0x28A1 JUMPI PUSH2 0x28A1 PUSH2 0x282F JUMP JUMPDEST DUP2 PUSH1 0x5 SHL PUSH2 0x28B0 DUP3 DUP3 ADD PUSH2 0x2845 JUMP JUMPDEST SWAP3 DUP4 MSTORE DUP5 DUP2 ADD DUP3 ADD SWAP3 DUP3 DUP2 ADD SWAP1 DUP8 DUP6 GT ISZERO PUSH2 0x28CA JUMPI PUSH1 0x0 DUP1 REVERT JUMPDEST DUP4 DUP8 ADD SWAP3 POP JUMPDEST DUP5 DUP4 LT ISZERO PUSH2 0x28F0 JUMPI PUSH2 0x28E1 DUP4 PUSH2 0x268C JUMP JUMPDEST DUP3 MSTORE SWAP2 DUP4 ADD SWAP2 SWAP1 DUP4 ADD SWAP1 PUSH2 0x28D0 JUMP JUMPDEST SWAP8 SWAP7 POP POP POP POP POP POP POP JUMP JUMPDEST PUSH1 0x0 DUP1 PUSH1 0x40 DUP4 DUP6 SUB SLT ISZERO PUSH2 0x290E JUMPI PUSH1 0x0 DUP1 REVERT JUMPDEST DUP3 CALLDATALOAD PUSH1 0x1 PUSH1 0x1 PUSH1 0x40 SHL SUB DUP2 GT ISZERO PUSH2 0x2924 JUMPI PUSH1 0x0 DUP1 REVERT JUMPDEST PUSH2 0x2930 DUP6 DUP3 DUP7 ADD PUSH2 0x2875 JUMP JUMPDEST SWAP3 POP POP PUSH2 0x275D PUSH1 0x20 DUP5 ADD PUSH2 0x26D2 JUMP JUMPDEST PUSH1 0x0 PUSH1 0x1 PUSH1 0x1 PUSH1 0x40 SHL SUB DUP4 GT ISZERO PUSH2 0x2958 JUMPI PUSH2 0x2958 PUSH2 0x282F JUMP JUMPDEST PUSH2 0x296B PUSH1 0x1F DUP5 ADD PUSH1 0x1F NOT AND PUSH1 0x20 ADD PUSH2 0x2845 JUMP JUMPDEST SWAP1 POP DUP3 DUP2 MSTORE DUP4 DUP4 DUP4 ADD GT ISZERO PUSH2 0x297F JUMPI PUSH1 0x0 DUP1 REVERT JUMPDEST DUP3 DUP3 PUSH1 0x20 DUP4 ADD CALLDATACOPY PUSH1 0x0 PUSH1 0x20 DUP5 DUP4 ADD ADD MSTORE SWAP4 SWAP3 POP POP POP JUMP JUMPDEST PUSH1 0x0 DUP3 PUSH1 0x1F DUP4 ADD SLT PUSH2 0x29A7 JUMPI PUSH1 0x0 DUP1 REVERT JUMPDEST PUSH2 0x2039 DUP4 DUP4 CALLDATALOAD PUSH1 0x20 DUP6 ADD PUSH2 0x293F JUMP JUMPDEST PUSH1 0x0 DUP1 PUSH1 0x0 DUP1 PUSH1 0x60 DUP6 DUP8 SUB SLT ISZERO PUSH2 0x29CC JUMPI PUSH1 0x0 DUP1 REVERT JUMPDEST DUP5 CALLDATALOAD SWAP4 POP PUSH1 0x20 DUP6 ADD CALLDATALOAD PUSH1 0x1 PUSH1 0x1 PUSH1 0x40 SHL SUB DUP1 DUP3 GT ISZERO PUSH2 0x29EA JUMPI PUSH1 0x0 DUP1 REVERT JUMPDEST DUP2 DUP8 ADD SWAP2 POP DUP8 PUSH1 0x1F DUP4 ADD SLT PUSH2 0x29FE JUMPI PUSH1 0x0 DUP1 REVERT JUMPDEST DUP2 CALLDATALOAD DUP2 DUP2 GT ISZERO PUSH2 0x2A0D JUMPI PUSH1 0x0 DUP1 REVERT JUMPDEST DUP9 PUSH1 0x20 DUP3 PUSH1 0x6 SHL DUP6 ADD ADD GT ISZERO PUSH2 0x2A22 JUMPI PUSH1 0x0 DUP1 REVERT JUMPDEST PUSH1 0x20 DUP4 ADD SWAP6 POP DUP1 SWAP5 POP POP PUSH1 0x40 DUP8 ADD CALLDATALOAD SWAP2 POP DUP1 DUP3 GT ISZERO PUSH2 0x2A40 JUMPI PUSH1 0x0 DUP1 REVERT JUMPDEST POP PUSH2 0x2A4D DUP8 DUP3 DUP9 ADD PUSH2 0x2996 JUMP JUMPDEST SWAP2 POP POP SWAP3 SWAP6 SWAP2 SWAP5 POP SWAP3 POP JUMP JUMPDEST PUSH1 0x0 PUSH1 0x20 DUP3 DUP5 SUB SLT ISZERO PUSH2 0x2A6B JUMPI PUSH1 0x0 DUP1 REVERT JUMPDEST DUP2 CALLDATALOAD PUSH1 0x1 PUSH1 0x1 PUSH1 0x40 SHL SUB DUP2 GT ISZERO PUSH2 0x2A81 JUMPI PUSH1 0x0 DUP1 REVERT JUMPDEST PUSH2 0x182C DUP5 DUP3 DUP6 ADD PUSH2 0x2875 JUMP JUMPDEST PUSH1 0x0 DUP1 PUSH1 0x40 DUP4 DUP6 SUB SLT ISZERO PUSH2 0x2AA0 JUMPI PUSH1 0x0 DUP1 REVERT JUMPDEST PUSH2 0x2AA9 DUP4 PUSH2 0x268C JUMP JUMPDEST SWAP2 POP PUSH1 0x20 DUP4 ADD CALLDATALOAD DUP1 ISZERO ISZERO DUP2 EQ PUSH2 0x2ABE JUMPI PUSH1 0x0 DUP1 REVERT JUMPDEST DUP1 SWAP2 POP POP SWAP3 POP SWAP3 SWAP1 POP JUMP JUMPDEST PUSH1 0x0 DUP1 PUSH1 0x0 DUP1 PUSH1 0x80 DUP6 DUP8 SUB SLT ISZERO PUSH2 0x2ADF JUMPI PUSH1 0x0 DUP1 REVERT JUMPDEST PUSH2 0x2AE8 DUP6 PUSH2 0x268C JUMP JUMPDEST SWAP4 POP PUSH2 0x2AF6 PUSH1 0x20 DUP7 ADD PUSH2 0x268C JUMP JUMPDEST SWAP3 POP PUSH1 0x40 DUP6 ADD CALLDATALOAD SWAP2 POP PUSH1 0x60 DUP6 ADD CALLDATALOAD PUSH1 0x1 PUSH1 0x1 PUSH1 0x40 SHL SUB DUP2 GT ISZERO PUSH2 0x2B18 JUMPI PUSH1 0x0 DUP1 REVERT JUMPDEST DUP6 ADD PUSH1 0x1F DUP2 ADD DUP8 SGT PUSH2 0x2B29 JUMPI PUSH1 0x0 DUP1 REVERT JUMPDEST PUSH2 0x2A4D DUP8 DUP3 CALLDATALOAD PUSH1 0x20 DUP5 ADD PUSH2 0x293F JUMP JUMPDEST PUSH1 0x0 DUP1 DUP4 PUSH1 0x1F DUP5 ADD SLT PUSH2 0x2B4A JUMPI PUSH1 0x0 DUP1 REVERT JUMPDEST POP DUP2 CALLDATALOAD PUSH1 0x1 PUSH1 0x1 PUSH1 0x40 SHL SUB DUP2 GT ISZERO PUSH2 0x2B61 JUMPI PUSH1 0x0 DUP1 REVERT JUMPDEST PUSH1 0x20 DUP4 ADD SWAP2 POP DUP4 PUSH1 0x20 DUP3 DUP6 ADD ADD GT ISZERO PUSH2 0x27C5 JUMPI PUSH1 0x0 DUP1 REVERT JUMPDEST PUSH1 0x0 DUP1 PUSH1 0x0 DUP1 PUSH1 0x0 DUP1 PUSH1 0x0 DUP1 PUSH1 0xA0 DUP10 DUP12 SUB SLT ISZERO PUSH2 0x2B95 JUMPI PUSH1 0x0 DUP1 REVERT JUMPDEST PUSH2 0x2B9E DUP10 PUSH2 0x268C JUMP JUMPDEST SWAP8 POP PUSH2 0x2BAC PUSH1 0x20 DUP11 ADD PUSH2 0x268C JUMP JUMPDEST SWAP7 POP PUSH1 0x40 DUP10 ADD CALLDATALOAD PUSH1 0x1 PUSH1 0x1 PUSH1 0x40 SHL SUB DUP1 DUP3 GT ISZERO PUSH2 0x2BC8 JUMPI PUSH1 0x0 DUP1 REVERT JUMPDEST PUSH2 0x2BD4 DUP13 DUP4 DUP14 ADD PUSH2 0x2781 JUMP JUMPDEST SWAP1 SWAP9 POP SWAP7 POP PUSH1 0x60 DUP12 ADD CALLDATALOAD SWAP2 POP DUP1 DUP3 GT ISZERO PUSH2 0x2BED JUMPI PUSH1 0x0 DUP1 REVERT JUMPDEST PUSH2 0x2BF9 DUP13 DUP4 DUP14 ADD PUSH2 0x2781 JUMP JUMPDEST SWAP1 SWAP7 POP SWAP5 POP PUSH1 0x80 DUP12 ADD CALLDATALOAD SWAP2 POP DUP1 DUP3 GT ISZERO PUSH2 0x2C12 JUMPI PUSH1 0x0 DUP1 REVERT JUMPDEST POP PUSH2 0x2C1F DUP12 DUP3 DUP13 ADD PUSH2 0x2B38 JUMP JUMPDEST SWAP10 SWAP13 SWAP9 SWAP12 POP SWAP7 SWAP10 POP SWAP5 SWAP8 SWAP4 SWAP7 SWAP3 SWAP6 SWAP5 POP POP POP JUMP JUMPDEST PUSH1 0x0 DUP1 PUSH1 0x40 DUP4 DUP6 SUB SLT ISZERO PUSH2 0x2C46 JUMPI PUSH1 0x0 DUP1 REVERT JUMPDEST PUSH2 0x2C4F DUP4 PUSH2 0x268C JUMP JUMPDEST SWAP2 POP PUSH2 0x275D PUSH1 0x20 DUP5 ADD PUSH2 0x268C JUMP JUMPDEST PUSH1 0x0 DUP1 PUSH1 0x0 DUP1 PUSH1 0x0 DUP1 PUSH1 0xA0 DUP8 DUP10 SUB SLT ISZERO PUSH2 0x2C76 JUMPI PUSH1 0x0 DUP1 REVERT JUMPDEST PUSH2 0x2C7F DUP8 PUSH2 0x268C JUMP JUMPDEST SWAP6 POP PUSH2 0x2C8D PUSH1 0x20 DUP9 ADD PUSH2 0x268C JUMP JUMPDEST SWAP5 POP PUSH1 0x40 DUP8 ADD CALLDATALOAD SWAP4 POP PUSH1 0x60 DUP8 ADD CALLDATALOAD SWAP3 POP PUSH1 0x80 DUP8 ADD CALLDATALOAD PUSH1 0x1 PUSH1 0x1 PUSH1 0x40 SHL SUB DUP2 GT ISZERO PUSH2 0x2CB6 JUMPI PUSH1 0x0 DUP1 REVERT JUMPDEST PUSH2 0x2CC2 DUP10 DUP3 DUP11 ADD PUSH2 0x2B38 JUMP JUMPDEST SWAP8 SWAP11 SWAP7 SWAP10 POP SWAP5 SWAP8 POP SWAP3 SWAP6 SWAP4 SWAP5 SWAP3 POP POP POP JUMP JUMPDEST PUSH1 0x1 DUP2 DUP2 SHR SWAP1 DUP3 AND DUP1 PUSH2 0x2CE8 JUMPI PUSH1 0x7F DUP3 AND SWAP2 POP JUMPDEST PUSH1 0x20 DUP3 LT DUP2 EQ ISZERO PUSH2 0x2D09 JUMPI PUSH4 0x4E487B71 PUSH1 0xE0 SHL PUSH1 0x0 MSTORE PUSH1 0x22 PUSH1 0x4 MSTORE PUSH1 0x24 PUSH1 0x0 REVERT JUMPDEST POP SWAP2 SWAP1 POP JUMP JUMPDEST PUSH1 0x20 DUP1 DUP3 MSTORE PUSH1 0x9 SWAP1 DUP3 ADD MSTORE PUSH9 0x3737BA1037BBB732B9 PUSH1 0xB9 SHL PUSH1 0x40 DUP3 ADD MSTORE PUSH1 0x60 ADD SWAP1 JUMP JUMPDEST PUSH4 0x4E487B71 PUSH1 0xE0 SHL PUSH1 0x0 MSTORE PUSH1 0x11 PUSH1 0x4 MSTORE PUSH1 0x24 PUSH1 0x0 REVERT JUMPDEST PUSH1 0x0 PUSH1 0x0 NOT DUP3 EQ ISZERO PUSH2 0x2D5C JUMPI PUSH2 0x2D5C PUSH2 0x2D32 JUMP JUMPDEST POP PUSH1 0x1 ADD SWAP1 JUMP JUMPDEST PUSH1 0x20 DUP1 DUP3 MSTORE PUSH1 0x2D SWAP1 DUP3 ADD MSTORE PUSH32 0x4552433732313A2063616C6C6572206973206E6F7420746F6B656E206F776E65 PUSH1 0x40 DUP3 ADD MSTORE PUSH13 0x1C881BDC88185C1C1C9BDD9959 PUSH1 0x9A SHL PUSH1 0x60 DUP3 ADD MSTORE PUSH1 0x80 ADD SWAP1 JUMP JUMPDEST PUSH4 0x4E487B71 PUSH1 0xE0 SHL PUSH1 0x0 MSTORE PUSH1 0x32 PUSH1 0x4 MSTORE PUSH1 0x24 PUSH1 0x0 REVERT JUMPDEST PUSH1 0x0 PUSH1 0x40 DUP3 DUP5 SUB SLT ISZERO PUSH2 0x2DD8 JUMPI PUSH1 0x0 DUP1 REVERT JUMPDEST PUSH1 0x40 MLOAD PUSH1 0x40 DUP2 ADD DUP2 DUP2 LT PUSH1 0x1 PUSH1 0x1 PUSH1 0x40 SHL SUB DUP3 GT OR ISZERO PUSH2 0x2DFA JUMPI PUSH2 0x2DFA PUSH2 0x282F JUMP JUMPDEST PUSH1 0x40 MSTORE PUSH2 0x2E06 DUP4 PUSH2 0x268C JUMP JUMPDEST DUP2 MSTORE PUSH1 0x20 DUP4 ADD CALLDATALOAD PUSH1 0x20 DUP3 ADD MSTORE DUP1 SWAP2 POP POP SWAP3 SWAP2 POP POP JUMP JUMPDEST PUSH1 0x1 PUSH1 0x1 PUSH1 0xA0 SHL SUB SWAP5 DUP6 AND DUP2 MSTORE SWAP3 SWAP1 SWAP4 AND PUSH1 0x20 DUP4 ADD MSTORE PUSH1 0x40 DUP3 ADD MSTORE PUSH1 0x60 DUP2 ADD SWAP2 SWAP1 SWAP2 MSTORE PUSH1 0xA0 PUSH1 0x80 DUP3 ADD DUP2 SWAP1 MSTORE PUSH1 0x0 SWAP1 DUP3 ADD MSTORE PUSH1 0xC0 ADD SWAP1 JUMP JUMPDEST PUSH1 0x20 DUP1 DUP3 MSTORE PUSH1 0x25 SWAP1 DUP3 ADD MSTORE PUSH32 0x4552433732313A207472616E736665722066726F6D20696E636F727265637420 PUSH1 0x40 DUP3 ADD MSTORE PUSH5 0x37BBB732B9 PUSH1 0xD9 SHL PUSH1 0x60 DUP3 ADD MSTORE PUSH1 0x80 ADD SWAP1 JUMP JUMPDEST PUSH1 0x20 DUP1 DUP3 MSTORE PUSH1 0x2B SWAP1 DUP3 ADD MSTORE PUSH32 0x496E697469616C697A61626C653A20636F6E7472616374206973206E6F742069 PUSH1 0x40 DUP3 ADD MSTORE PUSH11 0x6E697469616C697A696E67 PUSH1 0xA8 SHL PUSH1 0x60 DUP3 ADD MSTORE PUSH1 0x80 ADD SWAP1 JUMP JUMPDEST PUSH1 0x20 DUP1 DUP3 MSTORE PUSH1 0x32 SWAP1 DUP3 ADD MSTORE PUSH32 0x4552433732313A207472616E7366657220746F206E6F6E204552433732315265 PUSH1 0x40 DUP3 ADD MSTORE PUSH18 0x31B2B4BB32B91034B6B83632B6B2B73A32B9 PUSH1 0x71 SHL PUSH1 0x60 DUP3 ADD MSTORE PUSH1 0x80 ADD SWAP1 JUMP JUMPDEST PUSH1 0x0 DUP4 MLOAD PUSH2 0x2F48 DUP2 DUP5 PUSH1 0x20 DUP9 ADD PUSH2 0x2608 JUMP JUMPDEST DUP4 MLOAD SWAP1 DUP4 ADD SWAP1 PUSH2 0x2F5C DUP2 DUP4 PUSH1 0x20 DUP9 ADD PUSH2 0x2608 JUMP JUMPDEST ADD SWAP5 SWAP4 POP POP POP POP JUMP JUMPDEST PUSH32 0x416363657373436F6E74726F6C3A206163636F756E7420000000000000000000 DUP2 MSTORE PUSH1 0x0 DUP4 MLOAD PUSH2 0x2F9D DUP2 PUSH1 0x17 DUP6 ADD PUSH1 0x20 DUP9 ADD PUSH2 0x2608 JUMP JUMPDEST PUSH17 0x1034B99036B4B9B9B4B733903937B6329 PUSH1 0x7D SHL PUSH1 0x17 SWAP2 DUP5 ADD SWAP2 DUP3 ADD MSTORE DUP4 MLOAD PUSH2 0x2FCE DUP2 PUSH1 0x28 DUP5 ADD PUSH1 0x20 DUP9 ADD PUSH2 0x2608 JUMP JUMPDEST ADD PUSH1 0x28 ADD SWAP5 SWAP4 POP POP POP POP JUMP JUMPDEST PUSH1 0x1 PUSH1 0x1 PUSH1 0xA0 SHL SUB DUP6 DUP2 AND DUP3 MSTORE DUP5 AND PUSH1 0x20 DUP3 ADD MSTORE PUSH1 0x40 DUP2 ADD DUP4 SWAP1 MSTORE PUSH1 0x80 PUSH1 0x60 DUP3 ADD DUP2 SWAP1 MSTORE PUSH1 0x0 SWAP1 PUSH2 0x300D SWAP1 DUP4 ADD DUP5 PUSH2 0x2634 JUMP JUMPDEST SWAP7 SWAP6 POP POP POP POP POP POP JUMP JUMPDEST PUSH1 0x0 PUSH1 0x20 DUP3 DUP5 SUB SLT ISZERO PUSH2 0x3029 JUMPI PUSH1 0x0 DUP1 REVERT JUMPDEST DUP2 MLOAD PUSH2 0x2039 DUP2 PUSH2 0x25D5 JUMP JUMPDEST PUSH1 0x0 DUP2 PUSH1 0x0 NOT DIV DUP4 GT DUP3 ISZERO ISZERO AND ISZERO PUSH2 0x304E JUMPI PUSH2 0x304E PUSH2 0x2D32 JUMP JUMPDEST POP MUL SWAP1 JUMP JUMPDEST PUSH1 0x0 DUP3 NOT DUP3 GT ISZERO PUSH2 0x3066 JUMPI PUSH2 0x3066 PUSH2 0x2D32 JUMP JUMPDEST POP ADD SWAP1 JUMP JUMPDEST PUSH1 0x0 DUP2 PUSH2 0x307A JUMPI PUSH2 0x307A PUSH2 0x2D32 JUMP JUMPDEST POP PUSH1 0x0 NOT ADD SWAP1 JUMP INVALID LOG2 PUSH5 0x6970667358 0x22 SLT KECCAK256 0xEA 0xF 0xB3 0xC9 NOT 0x2E DUP13 JUMPDEST MOD 0xF 0xE8 CODESIZE MLOAD EXTCODECOPY 0xE3 JUMPDEST 0xD 0xE7 0xD2 0xB3 PUSH10 0x58860F62870D6D7C628F 0x22 PUSH5 0x736F6C6343 STOP ADDMOD EXP STOP CALLER "},"methodIdentifiers":{"DEFAULT_ADMIN_ROLE()":"a217fddf","MINTER_ROLE()":"d5391393","accessoryOrder(uint256)":"ca0d6fa8","accessorySlots()":"15c6e563","addToWhitelist(address[])":"7f649783","addWhitelistedContract(address)":"46704adb","approve(address,uint256)":"095ea7b3","balanceOf(address)":"70a08231","claim(uint256)":"379607f5","deEquipAccessory(uint256,uint256)":"e1b86d70","deEquipAllAccessories(uint256)":"15f972c0","equipAccessories(uint256,(address,uint256)[],string)":"9cf788cd","equippedAccessories(uint256,uint256)":"5c1c22b2","getApproved(uint256)":"081812fc","getRoleAdmin(bytes32)":"248a9ca3","getTotalSupply()":"c4e41b22","grantRole(bytes32,address)":"2f2ff15d","hasRole(bytes32,address)":"91d14854","initialize(address[])":"a224cee7","isApprovedForAll(address,address)":"e985e9c5","name()":"06fdde03","onERC1155BatchReceived(address,address,uint256[],uint256[],bytes)":"bc197c81","onERC1155Received(address,address,uint256,uint256,bytes)":"f23a6e61","ownerOf(uint256)":"6352211e","removeFromWhitelist(address[])":"548db174","removeWhitelistedContracts(address[])":"d0475bad","renounceRole(bytes32,address)":"36568abe","revokeRole(bytes32,address)":"d547741f","safeMint(address,uint256)":"a1448194","safeTransferFrom(address,address,uint256)":"42842e0e","safeTransferFrom(address,address,uint256,bytes)":"b88d4fde","setAccessoryOrder(address[])":"508510b7","setAccessorySlots(uint8)":"1307c936","setApprovalForAll(address,bool)":"a22cb465","setWhitelisted(address[],uint8)":"8bcb6705","supportsInterface(bytes4)":"01ffc9a7","symbol()":"95d89b41","tokenURI(uint256)":"c87b56dd","transferFrom(address,address,uint256)":"23b872dd","whitelistedContracts(address)":"391feebb","whitelistedEOA(address)":"ce5be08b"}},"storageLayout":{"storage":[{"astId":575,"contract":"contracts/NFTs/GenesisNFT/Genesis.sol:Genesis","label":"_initialized","offset":0,"slot":"0","type":"t_uint8"},{"astId":578,"contract":"contracts/NFTs/GenesisNFT/Genesis.sol:Genesis","label":"_initializing","offset":1,"slot":"0","type":"t_bool"},{"astId":3820,"contract":"contracts/NFTs/GenesisNFT/Genesis.sol:Genesis","label":"__gap","offset":0,"slot":"1","type":"t_array(t_uint256)50_storage"},{"astId":4093,"contract":"contracts/NFTs/GenesisNFT/Genesis.sol:Genesis","label":"__gap","offset":0,"slot":"51","type":"t_array(t_uint256)50_storage"},{"astId":2189,"contract":"contracts/NFTs/GenesisNFT/Genesis.sol:Genesis","label":"_name","offset":0,"slot":"101","type":"t_string_storage"},{"astId":2191,"contract":"contracts/NFTs/GenesisNFT/Genesis.sol:Genesis","label":"_symbol","offset":0,"slot":"102","type":"t_string_storage"},{"astId":2195,"contract":"contracts/NFTs/GenesisNFT/Genesis.sol:Genesis","label":"_owners","offset":0,"slot":"103","type":"t_mapping(t_uint256,t_address)"},{"astId":2199,"contract":"contracts/NFTs/GenesisNFT/Genesis.sol:Genesis","label":"_balances","offset":0,"slot":"104","type":"t_mapping(t_address,t_uint256)"},{"astId":2203,"contract":"contracts/NFTs/GenesisNFT/Genesis.sol:Genesis","label":"_tokenApprovals","offset":0,"slot":"105","type":"t_mapping(t_uint256,t_address)"},{"astId":2209,"contract":"contracts/NFTs/GenesisNFT/Genesis.sol:Genesis","label":"_operatorApprovals","offset":0,"slot":"106","type":"t_mapping(t_address,t_mapping(t_address,t_bool))"},{"astId":3111,"contract":"contracts/NFTs/GenesisNFT/Genesis.sol:Genesis","label":"__gap","offset":0,"slot":"107","type":"t_array(t_uint256)44_storage"},{"astId":39,"contract":"contracts/NFTs/GenesisNFT/Genesis.sol:Genesis","label":"_roles","offset":0,"slot":"151","type":"t_mapping(t_bytes32,t_struct(RoleData)34_storage)"},{"astId":334,"contract":"contracts/NFTs/GenesisNFT/Genesis.sol:Genesis","label":"__gap","offset":0,"slot":"152","type":"t_array(t_uint256)49_storage"},{"astId":3277,"contract":"contracts/NFTs/GenesisNFT/Genesis.sol:Genesis","label":"_tokenURIs","offset":0,"slot":"201","type":"t_mapping(t_uint256,t_string_storage)"},{"astId":3421,"contract":"contracts/NFTs/GenesisNFT/Genesis.sol:Genesis","label":"__gap","offset":0,"slot":"202","type":"t_array(t_uint256)49_storage"},{"astId":5327,"contract":"contracts/NFTs/GenesisNFT/Genesis.sol:Genesis","label":"_tokenIdCounter","offset":0,"slot":"251","type":"t_struct(Counter)5083_storage"},{"astId":5331,"contract":"contracts/NFTs/GenesisNFT/Genesis.sol:Genesis","label":"whitelistedContracts","offset":0,"slot":"252","type":"t_mapping(t_address,t_bool)"},{"astId":5335,"contract":"contracts/NFTs/GenesisNFT/Genesis.sol:Genesis","label":"whitelistedEOA","offset":0,"slot":"253","type":"t_mapping(t_address,t_bool)"},{"astId":5342,"contract":"contracts/NFTs/GenesisNFT/Genesis.sol:Genesis","label":"equippedAccessories","offset":0,"slot":"254","type":"t_mapping(t_uint256,t_mapping(t_uint256,t_struct(Accessory)5324_storage))"},{"astId":5346,"contract":"contracts/NFTs/GenesisNFT/Genesis.sol:Genesis","label":"accessoryOrder","offset":0,"slot":"255","type":"t_mapping(t_uint256,t_address)"},{"astId":5348,"contract":"contracts/NFTs/GenesisNFT/Genesis.sol:Genesis","label":"accessorySlots","offset":0,"slot":"256","type":"t_uint8"}],"types":{"t_address":{"encoding":"inplace","label":"address","numberOfBytes":"20"},"t_array(t_uint256)44_storage":{"base":"t_uint256","encoding":"inplace","label":"uint256[44]","numberOfBytes":"1408"},"t_array(t_uint256)49_storage":{"base":"t_uint256","encoding":"inplace","label":"uint256[49]","numberOfBytes":"1568"},"t_array(t_uint256)50_storage":{"base":"t_uint256","encoding":"inplace","label":"uint256[50]","numberOfBytes":"1600"},"t_bool":{"encoding":"inplace","label":"bool","numberOfBytes":"1"},"t_bytes32":{"encoding":"inplace","label":"bytes32","numberOfBytes":"32"},"t_mapping(t_address,t_bool)":{"encoding":"mapping","key":"t_address","label":"mapping(address => bool)","numberOfBytes":"32","value":"t_bool"},"t_mapping(t_address,t_mapping(t_address,t_bool))":{"encoding":"mapping","key":"t_address","label":"mapping(address => mapping(address => bool))","numberOfBytes":"32","value":"t_mapping(t_address,t_bool)"},"t_mapping(t_address,t_uint256)":{"encoding":"mapping","key":"t_address","label":"mapping(address => uint256)","numberOfBytes":"32","value":"t_uint256"},"t_mapping(t_bytes32,t_struct(RoleData)34_storage)":{"encoding":"mapping","key":"t_bytes32","label":"mapping(bytes32 => struct AccessControlUpgradeable.RoleData)","numberOfBytes":"32","value":"t_struct(RoleData)34_storage"},"t_mapping(t_uint256,t_address)":{"encoding":"mapping","key":"t_uint256","label":"mapping(uint256 => address)","numberOfBytes":"32","value":"t_address"},"t_mapping(t_uint256,t_mapping(t_uint256,t_struct(Accessory)5324_storage))":{"encoding":"mapping","key":"t_uint256","label":"mapping(uint256 => mapping(uint256 => struct Genesis.Accessory))","numberOfBytes":"32","value":"t_mapping(t_uint256,t_struct(Accessory)5324_storage)"},"t_mapping(t_uint256,t_string_storage)":{"encoding":"mapping","key":"t_uint256","label":"mapping(uint256 => string)","numberOfBytes":"32","value":"t_string_storage"},"t_mapping(t_uint256,t_struct(Accessory)5324_storage)":{"encoding":"mapping","key":"t_uint256","label":"mapping(uint256 => struct Genesis.Accessory)","numberOfBytes":"32","value":"t_struct(Accessory)5324_storage"},"t_string_storage":{"encoding":"bytes","label":"string","numberOfBytes":"32"},"t_struct(Accessory)5324_storage":{"encoding":"inplace","label":"struct Genesis.Accessory","members":[{"astId":5321,"contract":"contracts/NFTs/GenesisNFT/Genesis.sol:Genesis","label":"contractAddr","offset":0,"slot":"0","type":"t_address"},{"astId":5323,"contract":"contracts/NFTs/GenesisNFT/Genesis.sol:Genesis","label":"accessoryId","offset":0,"slot":"1","type":"t_uint256"}],"numberOfBytes":"64"},"t_struct(Counter)5083_storage":{"encoding":"inplace","label":"struct Counters.Counter","members":[{"astId":5082,"contract":"contracts/NFTs/GenesisNFT/Genesis.sol:Genesis","label":"_value","offset":0,"slot":"0","type":"t_uint256"}],"numberOfBytes":"32"},"t_struct(RoleData)34_storage":{"encoding":"inplace","label":"struct AccessControlUpgradeable.RoleData","members":[{"astId":31,"contract":"contracts/NFTs/GenesisNFT/Genesis.sol:Genesis","label":"members","offset":0,"slot":"0","type":"t_mapping(t_address,t_bool)"},{"astId":33,"contract":"contracts/NFTs/GenesisNFT/Genesis.sol:Genesis","label":"adminRole","offset":0,"slot":"1","type":"t_bytes32"}],"numberOfBytes":"64"},"t_uint256":{"encoding":"inplace","label":"uint256","numberOfBytes":"32"},"t_uint8":{"encoding":"inplace","label":"uint8","numberOfBytes":"1"}}}}}}