{
  "_format": "hh-sol-artifact-1",
  "contractName": "PopMarketPlace",
  "sourceName": "contracts/PopMarket.sol",
  "abi": [
    {
      "anonymous": false,
      "inputs": [
        {
          "indexed": true,
          "internalType": "uint256",
          "name": "orderId",
          "type": "uint256"
        },
        {
          "indexed": false,
          "internalType": "uint256",
          "name": "bidId",
          "type": "uint256"
        },
        {
          "indexed": false,
          "internalType": "uint16",
          "name": "copies",
          "type": "uint16"
        }
      ],
      "name": "BidAccepted",
      "type": "event"
    },
    {
      "anonymous": false,
      "inputs": [
        {
          "indexed": true,
          "internalType": "uint256",
          "name": "orderId",
          "type": "uint256"
        },
        {
          "indexed": false,
          "internalType": "uint256",
          "name": "bidIndex",
          "type": "uint256"
        },
        {
          "indexed": false,
          "internalType": "address",
          "name": "bidder",
          "type": "address"
        },
        {
          "indexed": false,
          "internalType": "uint16",
          "name": "copies",
          "type": "uint16"
        },
        {
          "indexed": false,
          "internalType": "uint256",
          "name": "pricePerNFT",
          "type": "uint256"
        },
        {
          "indexed": false,
          "internalType": "uint256",
          "name": "startTime",
          "type": "uint256"
        },
        {
          "indexed": false,
          "internalType": "uint256",
          "name": "endTime",
          "type": "uint256"
        }
      ],
      "name": "BidPlaced",
      "type": "event"
    },
    {
      "anonymous": false,
      "inputs": [
        {
          "indexed": true,
          "internalType": "uint256",
          "name": "orderId",
          "type": "uint256"
        },
        {
          "indexed": false,
          "internalType": "uint256",
          "name": "bidId",
          "type": "uint256"
        }
      ],
      "name": "BidRejected",
      "type": "event"
    },
    {
      "anonymous": false,
      "inputs": [
        {
          "indexed": true,
          "internalType": "uint256",
          "name": "orderId",
          "type": "uint256"
        },
        {
          "indexed": false,
          "internalType": "uint256",
          "name": "bidId",
          "type": "uint256"
        }
      ],
      "name": "BidWithdraw",
      "type": "event"
    },
    {
      "anonymous": false,
      "inputs": [
        {
          "indexed": false,
          "internalType": "uint8",
          "name": "version",
          "type": "uint8"
        }
      ],
      "name": "Initialized",
      "type": "event"
    },
    {
      "anonymous": false,
      "inputs": [
        {
          "indexed": true,
          "internalType": "uint256",
          "name": "orderId",
          "type": "uint256"
        }
      ],
      "name": "OrderCancelled",
      "type": "event"
    },
    {
      "anonymous": false,
      "inputs": [
        {
          "indexed": true,
          "internalType": "uint256",
          "name": "orderId",
          "type": "uint256"
        },
        {
          "indexed": true,
          "internalType": "uint256",
          "name": "tokenId",
          "type": "uint256"
        },
        {
          "indexed": false,
          "internalType": "uint256",
          "name": "pricePerNFT",
          "type": "uint256"
        },
        {
          "indexed": false,
          "internalType": "address",
          "name": "seller",
          "type": "address"
        },
        {
          "indexed": false,
          "internalType": "uint16",
          "name": "copies",
          "type": "uint16"
        },
        {
          "indexed": false,
          "internalType": "uint256",
          "name": "startTime",
          "type": "uint256"
        },
        {
          "indexed": false,
          "internalType": "uint256",
          "name": "endTime",
          "type": "uint256"
        },
        {
          "indexed": false,
          "internalType": "address",
          "name": "paymentToken",
          "type": "address"
        },
        {
          "indexed": false,
          "internalType": "address",
          "name": "nftContract",
          "type": "address"
        }
      ],
      "name": "OrderCreated",
      "type": "event"
    },
    {
      "anonymous": false,
      "inputs": [
        {
          "indexed": true,
          "internalType": "uint256",
          "name": "orderId",
          "type": "uint256"
        },
        {
          "indexed": false,
          "internalType": "address",
          "name": "buyer",
          "type": "address"
        },
        {
          "indexed": false,
          "internalType": "uint16",
          "name": "copies",
          "type": "uint16"
        }
      ],
      "name": "OrderPurchased",
      "type": "event"
    },
    {
      "anonymous": false,
      "inputs": [
        {
          "indexed": true,
          "internalType": "address",
          "name": "previousOwner",
          "type": "address"
        },
        {
          "indexed": true,
          "internalType": "address",
          "name": "newOwner",
          "type": "address"
        }
      ],
      "name": "OwnershipTransferred",
      "type": "event"
    },
    {
      "inputs": [
        {
          "internalType": "uint256",
          "name": "orderId",
          "type": "uint256"
        },
        {
          "internalType": "uint256",
          "name": "bidId",
          "type": "uint256"
        }
      ],
      "name": "acceptBid",
      "outputs": [],
      "stateMutability": "nonpayable",
      "type": "function"
    },
    {
      "inputs": [
        {
          "internalType": "address",
          "name": "contractAddress",
          "type": "address"
        }
      ],
      "name": "addNftContractSupport",
      "outputs": [],
      "stateMutability": "nonpayable",
      "type": "function"
    },
    {
      "inputs": [
        {
          "internalType": "address",
          "name": "tokenAddress",
          "type": "address"
        }
      ],
      "name": "addTokenSupport",
      "outputs": [],
      "stateMutability": "nonpayable",
      "type": "function"
    },
    {
      "inputs": [
        {
          "internalType": "uint256",
          "name": "",
          "type": "uint256"
        },
        {
          "internalType": "uint256",
          "name": "",
          "type": "uint256"
        }
      ],
      "name": "bids",
      "outputs": [
        {
          "internalType": "address",
          "name": "bidder",
          "type": "address"
        },
        {
          "internalType": "uint256",
          "name": "pricePerNFT",
          "type": "uint256"
        },
        {
          "internalType": "uint16",
          "name": "copies",
          "type": "uint16"
        },
        {
          "internalType": "uint256",
          "name": "startTime",
          "type": "uint256"
        },
        {
          "internalType": "uint256",
          "name": "endTime",
          "type": "uint256"
        },
        {
          "internalType": "enum PopMarketPlace.BidStatus",
          "name": "status",
          "type": "uint8"
        }
      ],
      "stateMutability": "view",
      "type": "function"
    },
    {
      "inputs": [
        {
          "internalType": "uint256",
          "name": "orderId",
          "type": "uint256"
        },
        {
          "internalType": "uint16",
          "name": "copies",
          "type": "uint16"
        }
      ],
      "name": "buyNow",
      "outputs": [],
      "stateMutability": "payable",
      "type": "function"
    },
    {
      "inputs": [
        {
          "internalType": "uint256",
          "name": "orderId",
          "type": "uint256"
        }
      ],
      "name": "cancelOrder",
      "outputs": [],
      "stateMutability": "nonpayable",
      "type": "function"
    },
    {
      "inputs": [
        {
          "internalType": "uint256",
          "name": "_platformFees",
          "type": "uint256"
        }
      ],
      "name": "initialize",
      "outputs": [],
      "stateMutability": "nonpayable",
      "type": "function"
    },
    {
      "inputs": [
        {
          "internalType": "address",
          "name": "",
          "type": "address"
        }
      ],
      "name": "nftContracts",
      "outputs": [
        {
          "internalType": "bool",
          "name": "",
          "type": "bool"
        }
      ],
      "stateMutability": "view",
      "type": "function"
    },
    {
      "inputs": [
        {
          "internalType": "address",
          "name": "",
          "type": "address"
        },
        {
          "internalType": "address",
          "name": "",
          "type": "address"
        },
        {
          "internalType": "uint256[]",
          "name": "",
          "type": "uint256[]"
        },
        {
          "internalType": "uint256[]",
          "name": "",
          "type": "uint256[]"
        },
        {
          "internalType": "bytes",
          "name": "",
          "type": "bytes"
        }
      ],
      "name": "onERC1155BatchReceived",
      "outputs": [
        {
          "internalType": "bytes4",
          "name": "",
          "type": "bytes4"
        }
      ],
      "stateMutability": "pure",
      "type": "function"
    },
    {
      "inputs": [
        {
          "internalType": "address",
          "name": "",
          "type": "address"
        },
        {
          "internalType": "address",
          "name": "",
          "type": "address"
        },
        {
          "internalType": "uint256",
          "name": "",
          "type": "uint256"
        },
        {
          "internalType": "uint256",
          "name": "",
          "type": "uint256"
        },
        {
          "internalType": "bytes",
          "name": "",
          "type": "bytes"
        }
      ],
      "name": "onERC1155Received",
      "outputs": [
        {
          "internalType": "bytes4",
          "name": "",
          "type": "bytes4"
        }
      ],
      "stateMutability": "pure",
      "type": "function"
    },
    {
      "inputs": [
        {
          "internalType": "address",
          "name": "",
          "type": "address"
        },
        {
          "internalType": "address",
          "name": "",
          "type": "address"
        },
        {
          "internalType": "uint256",
          "name": "",
          "type": "uint256"
        },
        {
          "internalType": "bytes",
          "name": "",
          "type": "bytes"
        }
      ],
      "name": "onERC721Received",
      "outputs": [
        {
          "internalType": "bytes4",
          "name": "",
          "type": "bytes4"
        }
      ],
      "stateMutability": "pure",
      "type": "function"
    },
    {
      "inputs": [
        {
          "internalType": "uint256",
          "name": "",
          "type": "uint256"
        }
      ],
      "name": "order",
      "outputs": [
        {
          "internalType": "uint256",
          "name": "tokenId",
          "type": "uint256"
        },
        {
          "internalType": "uint256",
          "name": "pricePerNFT",
          "type": "uint256"
        },
        {
          "internalType": "uint16",
          "name": "copies",
          "type": "uint16"
        },
        {
          "internalType": "address",
          "name": "seller",
          "type": "address"
        },
        {
          "internalType": "uint256",
          "name": "startTime",
          "type": "uint256"
        },
        {
          "internalType": "uint256",
          "name": "endTime",
          "type": "uint256"
        },
        {
          "internalType": "address",
          "name": "paymentToken",
          "type": "address"
        },
        {
          "internalType": "address",
          "name": "nftContract",
          "type": "address"
        }
      ],
      "stateMutability": "view",
      "type": "function"
    },
    {
      "inputs": [],
      "name": "orderNonce",
      "outputs": [
        {
          "internalType": "uint256",
          "name": "",
          "type": "uint256"
        }
      ],
      "stateMutability": "view",
      "type": "function"
    },
    {
      "inputs": [],
      "name": "owner",
      "outputs": [
        {
          "internalType": "address",
          "name": "",
          "type": "address"
        }
      ],
      "stateMutability": "view",
      "type": "function"
    },
    {
      "inputs": [
        {
          "internalType": "uint256",
          "name": "orderId",
          "type": "uint256"
        },
        {
          "internalType": "uint16",
          "name": "copies",
          "type": "uint16"
        },
        {
          "internalType": "uint256",
          "name": "pricePerNFT",
          "type": "uint256"
        },
        {
          "internalType": "uint256",
          "name": "endTime",
          "type": "uint256"
        }
      ],
      "name": "placeOfferForOrder",
      "outputs": [],
      "stateMutability": "payable",
      "type": "function"
    },
    {
      "inputs": [
        {
          "internalType": "uint256",
          "name": "tokenId",
          "type": "uint256"
        },
        {
          "internalType": "address",
          "name": "nftContract",
          "type": "address"
        },
        {
          "internalType": "uint16",
          "name": "copies",
          "type": "uint16"
        },
        {
          "internalType": "uint256",
          "name": "pricePerNFT",
          "type": "uint256"
        },
        {
          "internalType": "address",
          "name": "paymentToken",
          "type": "address"
        },
        {
          "internalType": "uint256",
          "name": "endTime",
          "type": "uint256"
        }
      ],
      "name": "placeOrderForSell",
      "outputs": [],
      "stateMutability": "nonpayable",
      "type": "function"
    },
    {
      "inputs": [],
      "name": "platformFees",
      "outputs": [
        {
          "internalType": "uint256",
          "name": "",
          "type": "uint256"
        }
      ],
      "stateMutability": "view",
      "type": "function"
    },
    {
      "inputs": [],
      "name": "renounceOwnership",
      "outputs": [],
      "stateMutability": "nonpayable",
      "type": "function"
    },
    {
      "inputs": [
        {
          "internalType": "uint256",
          "name": "fee",
          "type": "uint256"
        }
      ],
      "name": "setPlatformFees",
      "outputs": [],
      "stateMutability": "nonpayable",
      "type": "function"
    },
    {
      "inputs": [
        {
          "internalType": "bytes4",
          "name": "interfaceId",
          "type": "bytes4"
        }
      ],
      "name": "supportsInterface",
      "outputs": [
        {
          "internalType": "bool",
          "name": "",
          "type": "bool"
        }
      ],
      "stateMutability": "pure",
      "type": "function"
    },
    {
      "inputs": [
        {
          "internalType": "address",
          "name": "",
          "type": "address"
        }
      ],
      "name": "tokensSupport",
      "outputs": [
        {
          "internalType": "bool",
          "name": "",
          "type": "bool"
        }
      ],
      "stateMutability": "view",
      "type": "function"
    },
    {
      "inputs": [
        {
          "internalType": "address",
          "name": "newOwner",
          "type": "address"
        }
      ],
      "name": "transferOwnership",
      "outputs": [],
      "stateMutability": "nonpayable",
      "type": "function"
    },
    {
      "inputs": [
        {
          "internalType": "uint256",
          "name": "amount",
          "type": "uint256"
        },
        {
          "internalType": "address",
          "name": "tokenAddress",
          "type": "address"
        }
      ],
      "name": "withdrawMoney",
      "outputs": [],
      "stateMutability": "nonpayable",
      "type": "function"
    },
    {
      "inputs": [
        {
          "internalType": "uint256",
          "name": "orderId",
          "type": "uint256"
        },
        {
          "internalType": "uint256",
          "name": "bidId",
          "type": "uint256"
        },
        {
          "internalType": "bool",
          "name": "isReject",
          "type": "bool"
        }
      ],
      "name": "withdrawRejectBid",
      "outputs": [],
      "stateMutability": "nonpayable",
      "type": "function"
    }
  ],
  "bytecode": "0x608060405234801561001057600080fd5b50612e4d806100206000396000f3fe60806040526004361061014a5760003560e01c8063733c237d116100b6578063b02e75881161006f578063b02e75881461049e578063b51def35146104be578063bc197c81146104d1578063f23a6e6114610519578063f2fde38b1461055f578063fe4b84df1461057f57600080fd5b8063733c237d146103b457806373865dc3146103d457806379caee8c146103f45780637b3c4baa146104145780638da5cb5b14610446578063ada0f98f1461046e57600080fd5b8063194a4e7e11610108578063194a4e7e1461027857806321603f431461028e578063369ede151461034c5780634266aff81461035f578063514fcac71461037f578063715018a61461039f57600080fd5b8062f313af1461014f57806301ffc9a71461017157806302e9d5e4146101a65780630f1dd150146101c6578063150b7a02146101f657806316f8de8914610254575b600080fd5b34801561015b57600080fd5b5061016f61016a366004612710565b61059f565b005b34801561017d57600080fd5b5061019161018c366004612749565b6108a8565b60405190151581526020015b60405180910390f35b3480156101b257600080fd5b5061016f6101c136600461277a565b6108df565b3480156101d257600080fd5b506101916101e13660046127b8565b609c6020526000908152604090205460ff1681565b34801561020257600080fd5b5061023b61021136600461281c565b7f150b7a023d4804d13e8c85fb27262cb750cf6ba9f9dd3bb30d90f482ceeb4b1f95945050505050565b6040516001600160e01b0319909116815260200161019d565b34801561026057600080fd5b5061026a60975481565b60405190815260200161019d565b34801561028457600080fd5b5061026a60985481565b34801561029a57600080fd5b506102fc6102a936600461288b565b60996020526000908152604090208054600182015460028301546003840154600485015460058601546006909601549495939461ffff8416946001600160a01b0362010000909504851694908116911688565b60408051988952602089019790975261ffff909516958701959095526001600160a01b039283166060870152608086019190915260a085015291821660c08401521660e08201526101000161019d565b61016f61035a3660046128b6565b610dcb565b34801561036b57600080fd5b5061016f61037a3660046127b8565b611236565b34801561038b57600080fd5b5061016f61039a36600461288b565b611262565b3480156103ab57600080fd5b5061016f61143f565b3480156103c057600080fd5b5061016f6103cf3660046127b8565b611453565b3480156103e057600080fd5b5061016f6103ef3660046128e2565b61147f565b34801561040057600080fd5b5061016f61040f36600461288b565b611831565b34801561042057600080fd5b5061043461042f36600461277a565b61187b565b60405161019d96959493929190612957565b34801561045257600080fd5b506065546040516001600160a01b03909116815260200161019d565b34801561047a57600080fd5b506101916104893660046127b8565b609b6020526000908152604090205460ff1681565b3480156104aa57600080fd5b5061016f6104b93660046129b5565b6118e0565b61016f6104cc3660046129d8565b611a89565b3480156104dd57600080fd5b5061023b6104ec366004612a58565b7fbc197c819b3e337a6f9652dd10becd7eef83032af3b9d958d3d42f669414662198975050505050505050565b34801561052557600080fd5b5061023b610534366004612b13565b7ff23a6e612e1ff4830e658fe43f4e3cb4a5f8170bd5d9e69fb5d7a7fa9e4fdf979695505050505050565b34801561056b57600080fd5b5061016f61057a3660046127b8565b611e0e565b34801561058b57600080fd5b5061016f61059a36600461288b565b611e87565b6105a7611f9d565b6000838152609960209081526040808320609a90925282208054919291859081106105d4576105d4612b8b565b6000918252602082206006909102019150600582015460ff1660038111156105fe576105fe612941565b146106245760405162461bcd60e51b815260040161061b90612ba1565b60405180910390fd5b82156106615760028201546201000090046001600160a01b0316331461065c5760405162461bcd60e51b815260040161061b90612ba1565b61068a565b80546001600160a01b0316331461068a5760405162461bcd60e51b815260040161061b90612ba1565b8215610725576000858152609a60205260409020805460029190869081106106b4576106b4612b8b565b60009182526020909120600560069092020101805460ff191660018360038111156106e1576106e1612941565b0217905550847f862482fca0f1c4dde27614ebf8dceca2174aae3f4f5a9ee8d09aaf6aa8177f3f8560405161071891815260200190565b60405180910390a26107b6565b6000858152609a602052604090208054600391908690811061074957610749612b8b565b60009182526020909120600560069092020101805460ff1916600183600381111561077657610776612941565b0217905550847f5a993d07c9201d97ef6e60c13ca29c90f6c59a79f7b01a902db32551a28b29b9856040516107ad91815260200190565b60405180910390a25b600582015460028201546001600160a01b03909116159060009061ffff16156107e757600283015461ffff166107ea565b60015b61ffff1683600101546107fd9190612bdd565b9050811561087d5782546040516000916001600160a01b03169083908381818185875af1925050503d8060008114610851576040519150601f19603f3d011682016040523d82523d6000602084013e610856565b606091505b50509050806108775760405162461bcd60e51b815260040161061b90612bfc565b50610896565b6005840154610896906001600160a01b03163383611ff7565b505050506108a360018055565b505050565b60006001600160e01b03198216630271189760e51b14806108d957506001600160e01b03198216630a85bd0160e11b145b92915050565b6108e7611f9d565b6000828152609960209081526040808320609a909252822080549192918490811061091457610914612b8b565b60009182526020909120600284015460069092020191506201000090046001600160a01b0316331461097d5760405162461bcd60e51b81526020600482015260126024820152711b9bdd081a5b9d9b1a59081c995c5d595cdd60721b604482015260640161061b565b6002808201549083015461ffff918216911610156109d15760405162461bcd60e51b81526020600482015260116024820152704e6674206e6f7420617661696c61626c6560781b604482015260640161061b565b42816004015411610a125760405162461bcd60e51b815260206004820152600b60248201526a109a5908195e1c1a5c995960aa1b604482015260640161061b565b6000600582015460ff166003811115610a2d57610a2d612941565b14610a725760405162461bcd60e51b8152602060048201526015602482015274426964206e6f742076616c696420616e796d6f726560581b604482015260640161061b565b600582015460028201546001600160a01b03909116159060009061ffff1615610aa357600283015461ffff16610aa6565b60015b61ffff168360010154610ab99190612bdd565b9050600061271082609854610ace9190612bdd565b610ad89190612c25565b600286015490915061ffff16610b5a57600685015484548654604051632142170760e11b81526001600160a01b03938416936342842e0e93610b239330939290911691600401612c47565b600060405180830381600087803b158015610b3d57600080fd5b505af1158015610b51573d6000803e3d6000fd5b50505050610bd4565b6006850154845486546002870154604051637921219560e11b81526001600160a01b039485169463f242432a94610ba1943094919092169261ffff90911690600401612c6b565b600060405180830381600087803b158015610bbb57600080fd5b505af1158015610bcf573d6000803e3d6000fd5b505050505b8215610c635760028501546000906201000090046001600160a01b0316610bfb8385612ca6565b604051600081818185875af1925050503d8060008114610c37576040519150601f19603f3d011682016040523d82523d6000602084013e610c3c565b606091505b5050905080610c5d5760405162461bcd60e51b815260040161061b90612bfc565b50610c85565b6005850154610c85906001600160a01b031633610c808486612ca6565b611ff7565b6000878152609a6020526040902080546001919088908110610ca957610ca9612b8b565b60009182526020909120600560069092020101805460ff19166001836003811115610cd657610cd6612941565b021790555060028085015490860154610cf69161ffff9081169116612cbd565b60028601805461ffff191661ffff929092169182179055610d7557610d1a8761200c565b6000878152609960205260408120818155600181018290556002810180546001600160b01b03191690556003810182905560048101919091556005810180546001600160a01b03199081169091556006909101805490911690555b60028401546040805188815261ffff909216602083015288917f7a73c3bdd15d1f1c81ca94b8fb48156cfa4fde7207172fe1ef057b88ecc70373910160405180910390a25050505050610dc760018055565b5050565b610dd3611f9d565b600082815260996020526040902060028101546201000090046001600160a01b0316610e395760405162461bcd60e51b8152602060048201526015602482015274125b9d985b1a59081bdc99195c881c995c5d595cdd605a1b604482015260640161061b565b42816004015411610e7c5760405162461bcd60e51b815260206004820152600d60248201526c13dc99195c88195e1c1a5c9959609a1b604482015260640161061b565b600281015461ffff9081169083161115610ece5760405162461bcd60e51b81526020600482015260136024820152726e6f7420656e6f756768207175616e7469747960681b604482015260640161061b565b60058101546001600160a01b031615600061ffff841615610eef5783610ef2565b60015b61ffff168360010154610f059190612bdd565b9050600061271082609854610f1a9190612bdd565b610f249190612c25565b90508215610ffc5781341015610f735760405162461bcd60e51b81526020600482015260146024820152734e6f742073756666696369656e742066756e647360601b604482015260640161061b565b60028401546000906201000090046001600160a01b0316610f948385612ca6565b604051600081818185875af1925050503d8060008114610fd0576040519150601f19603f3d011682016040523d82523d6000602084013e610fd5565b606091505b5050905080610ff65760405162461bcd60e51b815260040161061b90612bfc565b5061104b565b60058401546001600160a01b03166110168133308661230d565b6002850154611049906201000090046001600160a01b03166110388486612ca6565b6001600160a01b0384169190612365565b505b600284015461ffff166110c55760068401548454604051632142170760e11b81526001600160a01b03909216916342842e0e9161108e9130913391600401612c47565b600060405180830381600087803b1580156110a857600080fd5b505af11580156110bc573d6000803e3d6000fd5b50505050611130565b60068401548454604051637921219560e11b81526001600160a01b039092169163f242432a916110fd91309133918b90600401612c6b565b600060405180830381600087803b15801561111757600080fd5b505af115801561112b573d6000803e3d6000fd5b505050505b600284015461ffff868116911614156111ab5761114c8661200c565b6000868152609960205260408120818155600181018290556002810180546001600160b01b03191690556003810182905560048101919091556005810180546001600160a01b03199081169091556006909101805490911690556111eb565b600086815260996020526040812060020180548792906111d090849061ffff16612cbd565b92506101000a81548161ffff021916908361ffff1602179055505b6040805133815261ffff8716602082015287917fdb622478ff344d543338a892a6794926bf6113f347037c2eaf4bf0ac50f71839910160405180910390a250505050610dc760018055565b61123e612395565b6001600160a01b03166000908152609b60205260409020805460ff19166001179055565b600081815260996020526040902060028101546201000090046001600160a01b031633146112c45760405162461bcd60e51b815260206004820152600f60248201526e125b9d985b1a59081c995c5d595cdd608a1b604482015260640161061b565b600281015461ffff1661133e5760068101548154604051632142170760e11b81526001600160a01b03909216916342842e0e916113079130913391600401612c47565b600060405180830381600087803b15801561132157600080fd5b505af1158015611335573d6000803e3d6000fd5b505050506113b2565b600681015481546002830154604051637921219560e11b81526001600160a01b039093169263f242432a9261137f92309233929161ffff1690600401612c6b565b600060405180830381600087803b15801561139957600080fd5b505af11580156113ad573d6000803e3d6000fd5b505050505b6113bb8261200c565b600082815260996020526040808220828155600181018390556002810180546001600160b01b031916905560038101839055600481018390556005810180546001600160a01b03199081169091556006909101805490911690555183917f61b9399f2f0f32ca39ce8d7be32caed5ec22fe07a6daba3a467ed479ec60658291a25050565b611447612395565b61145160006123ef565b565b61145b612395565b6001600160a01b03166000908152609c60205260409020805460ff19166001179055565b6001600160a01b038516158015906114af57506001600160a01b0385166000908152609b602052604090205460ff165b6114f25760405162461bcd60e51b8152602060048201526014602482015273125b9d985b1a59081391950810dbdb9d1c9858dd60621b604482015260640161061b565b6001600160a01b038216158061152057506001600160a01b0382166000908152609c602052604090205460ff165b6115655760405162461bcd60e51b8152602060048201526016602482015275125b9d985b1a59081d1bdad95b8810dbdb9d1c9858dd60521b604482015260640161061b565b4281116115b45760405162461bcd60e51b815260206004820152601b60248201527f656e6454696d652073686f756c6420626520696e206675747572650000000000604482015260640161061b565b600083116115f45760405162461bcd60e51b815260206004820152600d60248201526c496e76616c696420707269636560981b604482015260640161061b565b6040805161010081018252878152602080820186815261ffff8089168486019081523360608601908152426080870190815260a087018981526001600160a01b038b811660c08a019081528f821660e08b019081526097805460009081526099909b529b8a209a518b55975160018b0155945160028a0180549551831662010000026001600160b01b031990961691909716179390931790945551600387015591516004860155516005850180549183166001600160a01b0319928316179055915160069094018054949091169390911692909217909155815491906116d983612ce0565b909155505061ffff841661174e57604051632142170760e11b81526001600160a01b038616906342842e0e9061171790339030908b90600401612c47565b600060405180830381600087803b15801561173157600080fd5b505af1158015611745573d6000803e3d6000fd5b505050506117b3565b604051637921219560e11b81526001600160a01b0386169063f242432a9061178090339030908b908a90600401612c6b565b600060405180830381600087803b15801561179a57600080fd5b505af11580156117ae573d6000803e3d6000fd5b505050505b8560016097546117c39190612ca6565b6040805186815233602082015261ffff881681830152426060820152608081018590526001600160a01b0386811660a0830152891660c082015290517faf01c77eb3607dfb4793bab461fc8ff2299939ac9b864acd3dc801505bedee1b9181900360e00190a3505050505050565b611839612395565b61c3508111156118765760405162461bcd60e51b8152602060048201526008602482015267486967682066656560c01b604482015260640161061b565b609855565b609a602052816000526040600020818154811061189757600080fd5b60009182526020909120600690910201805460018201546002830154600384015460048501546005909501546001600160a01b03909416965091945061ffff1692909160ff1686565b6118e8612395565b6001600160a01b038116611930576065546040516001600160a01b039091169083156108fc029084906000818181858888f193505050501580156108a3573d6000803e3d6000fd5b6001600160a01b0381166000908152609c602052604090205460ff166119985760405162461bcd60e51b815260206004820152601960248201527f756e737570706f7274656420746f6b656e206164647265737300000000000000604482015260640161061b565b6040516370a0823160e01b815233600482015281906000906001600160a01b038316906370a082319060240160206040518083038186803b1580156119dc57600080fd5b505afa1580156119f0573d6000803e3d6000fd5b505050506040513d601f19601f82011682018060405250810190611a149190612cfb565b905083811015611a5d5760405162461bcd60e51b815260206004820152601460248201527318985b185b98d948125b9cdd59999a58da595b9d60621b604482015260640161061b565b611a83611a726065546001600160a01b031690565b6001600160a01b0384169086612365565b50505050565b600084815260996020526040902060028101546201000090046001600160a01b0316611aef5760405162461bcd60e51b8152602060048201526015602482015274125b9d985b1a59081bdc99195c881c995c5d595cdd605a1b604482015260640161061b565b60028101546201000090046001600160a01b0316331415611b445760405162461bcd60e51b815260206004820152600f60248201526e125b9d985b1a59081c995c5d595cdd608a1b604482015260640161061b565b428211611b935760405162461bcd60e51b815260206004820152601b60248201527f656e6454696d652073686f756c6420626520696e206675747572650000000000604482015260640161061b565b42816004015411611bd75760405162461bcd60e51b815260206004820152600e60248201526d027b93232b91032bc3834b932b2160951b604482015260640161061b565b600281015461ffff9081169085161115611c295760405162461bcd60e51b81526020600482015260136024820152726e6f7420656e6f756768207175616e7469747960681b604482015260640161061b565b6000858152609a6020526040812054600583015490916001600160a01b03909116159061ffff871615611c5c5786611c5f565b60015b611c6d9061ffff1687612bdd565b90508115611cbf5780341015611cba5760405162461bcd60e51b81526020600482015260126024820152716e6f7420656e6f7567682062616c616e636560701b604482015260640161061b565b611cdb565b60058401546001600160a01b0316611cd98133308561230d565b505b6000888152609a60209081526040808320815160c0810183523381528084018b815261ffff8d81169483019485524260608401908152608084018d815260a08501898152865460018082018955978b5298909920855160069099020180546001600160a01b0319166001600160a01b03909916989098178855925187860155945160028701805461ffff19169190921617905592516003808601919091559251600485015593516005840180549193909260ff1990921691908490811115611da557611da5612941565b0217905550506040805185815233602082015261ffff8a16818301526060810189905242608082015260a0810188905290518a92507ff59c7179ce053eb17b4dd744eefca7ea301b9c6c2f9814cb89e2aea3762410329181900360c00190a25050505050505050565b611e16612395565b6001600160a01b038116611e7b5760405162461bcd60e51b815260206004820152602660248201527f4f776e61626c653a206e6577206f776e657220697320746865207a65726f206160448201526564647265737360d01b606482015260840161061b565b611e84816123ef565b50565b600054610100900460ff1615808015611ea75750600054600160ff909116105b80611ec15750303b158015611ec1575060005460ff166001145b611f245760405162461bcd60e51b815260206004820152602e60248201527f496e697469616c697a61626c653a20636f6e747261637420697320616c72656160448201526d191e481a5b9a5d1a585b1a5e995960921b606482015260840161061b565b6000805460ff191660011790558015611f47576000805461ff0019166101001790555b6098829055611f54612441565b8015610dc7576000805461ff0019169055604051600181527f7f26b83ff96e1f2b6a682f133852f6798a09c465da95921460cefb38474024989060200160405180910390a15050565b60026001541415611ff05760405162461bcd60e51b815260206004820152601f60248201527f5265656e7472616e637947756172643a207265656e7472616e742063616c6c00604482015260640161061b565b6002600155565b82611a836001600160a01b0382168484612365565b6000818152609960205260408120600581015490916001600160a01b0390911615905b6000848152609a602052604090205460ff82161015611a83576000848152609a60205260408120805460ff841690811061206b5761206b612b8b565b600091825260209091206005600690920201015460ff16600381111561209357612093612941565b14156122fd576000848152609a60205260408120805460ff84169081106120bc576120bc612b8b565b906000526020600020906006020160010154609a60008781526020019081526020016000208360ff16815481106120f5576120f5612b8b565b600091825260209091206002600690920201015461ffff1615612152576000868152609a60205260409020805460ff851690811061213557612135612b8b565b600091825260209091206002600690920201015461ffff16612155565b60015b61ffff166121639190612bdd565b6000868152609a60205260409020805491925060029160ff851690811061218c5761218c612b8b565b60009182526020909120600560069092020101805460ff191660018360038111156121b9576121b9612941565b021790555060405160ff8316815285907f862482fca0f1c4dde27614ebf8dceca2174aae3f4f5a9ee8d09aaf6aa8177f3f9060200160405180910390a282156122a4576000858152609a60205260408120805460ff851690811061221f5761221f612b8b565b600091825260208220600690910201546040516001600160a01b039091169184919081818185875af1925050503d8060008114612278576040519150601f19603f3d011682016040523d82523d6000602084013e61227d565b606091505b505090508061229e5760405162461bcd60e51b815260040161061b90612bfc565b506122fb565b60058401546000868152609a6020526040902080546122fb926001600160a01b0316919060ff86169081106122db576122db612b8b565b60009182526020909120600690910201546001600160a01b031683611ff7565b505b61230681612d14565b905061202f565b611a83846323b872dd60e01b85858560405160240161232e93929190612c47565b60408051601f198184030181529190526020810180516001600160e01b03166001600160e01b031990931692909217909152612470565b6040516001600160a01b0383166024820152604481018290526108a390849063a9059cbb60e01b9060640161232e565b6065546001600160a01b031633146114515760405162461bcd60e51b815260206004820181905260248201527f4f776e61626c653a2063616c6c6572206973206e6f7420746865206f776e6572604482015260640161061b565b606580546001600160a01b038381166001600160a01b0319831681179093556040519116919082907f8be0079c531659141344cd1fd0a4f28419497f9722a3daafe3b4186f6b6457e090600090a35050565b600054610100900460ff166124685760405162461bcd60e51b815260040161061b90612d34565b611451612545565b60006124c5826040518060400160405280602081526020017f5361666545524332303a206c6f772d6c6576656c2063616c6c206661696c6564815250856001600160a01b03166125759092919063ffffffff16565b90508051600014806124e65750808060200190518101906124e69190612d7f565b6108a35760405162461bcd60e51b815260206004820152602a60248201527f5361666545524332303a204552433230206f7065726174696f6e20646964206e6044820152691bdd081cdd58d8d9595960b21b606482015260840161061b565b600054610100900460ff1661256c5760405162461bcd60e51b815260040161061b90612d34565b611451336123ef565b6060612584848460008561258c565b949350505050565b6060824710156125ed5760405162461bcd60e51b815260206004820152602660248201527f416464726573733a20696e73756666696369656e742062616c616e636520666f6044820152651c8818d85b1b60d21b606482015260840161061b565b600080866001600160a01b031685876040516126099190612dc8565b60006040518083038185875af1925050503d8060008114612646576040519150601f19603f3d011682016040523d82523d6000602084013e61264b565b606091505b509150915061265c87838387612667565b979650505050505050565b606083156126d35782516126cc576001600160a01b0385163b6126cc5760405162461bcd60e51b815260206004820152601d60248201527f416464726573733a2063616c6c20746f206e6f6e2d636f6e7472616374000000604482015260640161061b565b5081612584565b61258483838151156126e85781518083602001fd5b8060405162461bcd60e51b815260040161061b9190612de4565b8015158114611e8457600080fd5b60008060006060848603121561272557600080fd5b8335925060208401359150604084013561273e81612702565b809150509250925092565b60006020828403121561275b57600080fd5b81356001600160e01b03198116811461277357600080fd5b9392505050565b6000806040838503121561278d57600080fd5b50508035926020909101359150565b80356001600160a01b03811681146127b357600080fd5b919050565b6000602082840312156127ca57600080fd5b6127738261279c565b60008083601f8401126127e557600080fd5b50813567ffffffffffffffff8111156127fd57600080fd5b60208301915083602082850101111561281557600080fd5b9250929050565b60008060008060006080868803121561283457600080fd5b61283d8661279c565b945061284b6020870161279c565b935060408601359250606086013567ffffffffffffffff81111561286e57600080fd5b61287a888289016127d3565b969995985093965092949392505050565b60006020828403121561289d57600080fd5b5035919050565b803561ffff811681146127b357600080fd5b600080604083850312156128c957600080fd5b823591506128d9602084016128a4565b90509250929050565b60008060008060008060c087890312156128fb57600080fd5b8635955061290b6020880161279c565b9450612919604088016128a4565b93506060870135925061292e6080880161279c565b915060a087013590509295509295509295565b634e487b7160e01b600052602160045260246000fd5b6001600160a01b03871681526020810186905261ffff85166040820152606081018490526080810183905260c08101600483106129a457634e487b7160e01b600052602160045260246000fd5b8260a0830152979650505050505050565b600080604083850312156129c857600080fd5b823591506128d96020840161279c565b600080600080608085870312156129ee57600080fd5b843593506129fe602086016128a4565b93969395505050506040820135916060013590565b60008083601f840112612a2557600080fd5b50813567ffffffffffffffff811115612a3d57600080fd5b6020830191508360208260051b850101111561281557600080fd5b60008060008060008060008060a0898b031215612a7457600080fd5b612a7d8961279c565b9750612a8b60208a0161279c565b9650604089013567ffffffffffffffff80821115612aa857600080fd5b612ab48c838d01612a13565b909850965060608b0135915080821115612acd57600080fd5b612ad98c838d01612a13565b909650945060808b0135915080821115612af257600080fd5b50612aff8b828c016127d3565b999c989b5096995094979396929594505050565b60008060008060008060a08789031215612b2c57600080fd5b612b358761279c565b9550612b436020880161279c565b94506040870135935060608701359250608087013567ffffffffffffffff811115612b6d57600080fd5b612b7989828a016127d3565b979a9699509497509295939492505050565b634e487b7160e01b600052603260045260246000fd5b6020808252600c908201526b63616e742070726f6365737360a01b604082015260600190565b634e487b7160e01b600052601160045260246000fd5b6000816000190483118215151615612bf757612bf7612bc7565b500290565b6020808252600f908201526e151c985b9cd9995c8811985a5b1959608a1b604082015260600190565b600082612c4257634e487b7160e01b600052601260045260246000fd5b500490565b6001600160a01b039384168152919092166020820152604081019190915260600190565b6001600160a01b039485168152929093166020830152604082015261ffff909116606082015260a06080820181905260009082015260c00190565b600082821015612cb857612cb8612bc7565b500390565b600061ffff83811690831681811015612cd857612cd8612bc7565b039392505050565b6000600019821415612cf457612cf4612bc7565b5060010190565b600060208284031215612d0d57600080fd5b5051919050565b600060ff821660ff811415612d2b57612d2b612bc7565b60010192915050565b6020808252602b908201527f496e697469616c697a61626c653a20636f6e7472616374206973206e6f74206960408201526a6e697469616c697a696e6760a81b606082015260800190565b600060208284031215612d9157600080fd5b815161277381612702565b60005b83811015612db7578181015183820152602001612d9f565b83811115611a835750506000910152565b60008251612dda818460208701612d9c565b9190910192915050565b6020815260008251806020840152612e03816040850160208701612d9c565b601f01601f1916919091016040019291505056fea26469706673582212209111b494a28851478132dc07e9e87c84aa5cf348aed62a09247d66d148ae146664736f6c63430008090033",
  "linkReferences": {},
  "deployedLinkReferences": {}
}