{
  "_format": "hh-sol-artifact-1",
  "contractName": "PopToken",
  "sourceName": "contracts/PopToken.sol",
  "abi": [
    {
      "inputs": [
        {
          "internalType": "uint256",
          "name": "_maxSupply",
          "type": "uint256"
        }
      ],
      "stateMutability": "nonpayable",
      "type": "constructor"
    },
    {
      "inputs": [],
      "name": "InvalidShortString",
      "type": "error"
    },
    {
      "inputs": [
        {
          "internalType": "string",
          "name": "str",
          "type": "string"
        }
      ],
      "name": "StringTooLong",
      "type": "error"
    },
    {
      "anonymous": false,
      "inputs": [
        {
          "indexed": true,
          "internalType": "address",
          "name": "owner",
          "type": "address"
        },
        {
          "indexed": true,
          "internalType": "address",
          "name": "spender",
          "type": "address"
        },
        {
          "indexed": false,
          "internalType": "uint256",
          "name": "value",
          "type": "uint256"
        }
      ],
      "name": "Approval",
      "type": "event"
    },
    {
      "anonymous": false,
      "inputs": [
        {
          "indexed": true,
          "internalType": "address",
          "name": "delegator",
          "type": "address"
        },
        {
          "indexed": true,
          "internalType": "address",
          "name": "fromDelegate",
          "type": "address"
        },
        {
          "indexed": true,
          "internalType": "address",
          "name": "toDelegate",
          "type": "address"
        }
      ],
      "name": "DelegateChanged",
      "type": "event"
    },
    {
      "anonymous": false,
      "inputs": [
        {
          "indexed": true,
          "internalType": "address",
          "name": "delegate",
          "type": "address"
        },
        {
          "indexed": false,
          "internalType": "uint256",
          "name": "previousBalance",
          "type": "uint256"
        },
        {
          "indexed": false,
          "internalType": "uint256",
          "name": "newBalance",
          "type": "uint256"
        }
      ],
      "name": "DelegateVotesChanged",
      "type": "event"
    },
    {
      "anonymous": false,
      "inputs": [],
      "name": "EIP712DomainChanged",
      "type": "event"
    },
    {
      "anonymous": false,
      "inputs": [
        {
          "indexed": true,
          "internalType": "address",
          "name": "previousOwner",
          "type": "address"
        },
        {
          "indexed": true,
          "internalType": "address",
          "name": "newOwner",
          "type": "address"
        }
      ],
      "name": "OwnershipTransferred",
      "type": "event"
    },
    {
      "anonymous": false,
      "inputs": [
        {
          "indexed": true,
          "internalType": "bytes32",
          "name": "role",
          "type": "bytes32"
        },
        {
          "indexed": true,
          "internalType": "bytes32",
          "name": "previousAdminRole",
          "type": "bytes32"
        },
        {
          "indexed": true,
          "internalType": "bytes32",
          "name": "newAdminRole",
          "type": "bytes32"
        }
      ],
      "name": "RoleAdminChanged",
      "type": "event"
    },
    {
      "anonymous": false,
      "inputs": [
        {
          "indexed": true,
          "internalType": "bytes32",
          "name": "role",
          "type": "bytes32"
        },
        {
          "indexed": true,
          "internalType": "address",
          "name": "account",
          "type": "address"
        },
        {
          "indexed": true,
          "internalType": "address",
          "name": "sender",
          "type": "address"
        }
      ],
      "name": "RoleGranted",
      "type": "event"
    },
    {
      "anonymous": false,
      "inputs": [
        {
          "indexed": true,
          "internalType": "bytes32",
          "name": "role",
          "type": "bytes32"
        },
        {
          "indexed": true,
          "internalType": "address",
          "name": "account",
          "type": "address"
        },
        {
          "indexed": true,
          "internalType": "address",
          "name": "sender",
          "type": "address"
        }
      ],
      "name": "RoleRevoked",
      "type": "event"
    },
    {
      "anonymous": false,
      "inputs": [
        {
          "indexed": true,
          "internalType": "address",
          "name": "from",
          "type": "address"
        },
        {
          "indexed": true,
          "internalType": "address",
          "name": "to",
          "type": "address"
        },
        {
          "indexed": false,
          "internalType": "uint256",
          "name": "value",
          "type": "uint256"
        }
      ],
      "name": "Transfer",
      "type": "event"
    },
    {
      "inputs": [],
      "name": "DEFAULT_ADMIN_ROLE",
      "outputs": [
        {
          "internalType": "bytes32",
          "name": "",
          "type": "bytes32"
        }
      ],
      "stateMutability": "view",
      "type": "function"
    },
    {
      "inputs": [],
      "name": "DELEGATION_TYPEHASH",
      "outputs": [
        {
          "internalType": "bytes32",
          "name": "",
          "type": "bytes32"
        }
      ],
      "stateMutability": "view",
      "type": "function"
    },
    {
      "inputs": [],
      "name": "DOMAIN_SEPARATOR",
      "outputs": [
        {
          "internalType": "bytes32",
          "name": "",
          "type": "bytes32"
        }
      ],
      "stateMutability": "view",
      "type": "function"
    },
    {
      "inputs": [],
      "name": "DOMAIN_TYPEHASH",
      "outputs": [
        {
          "internalType": "bytes32",
          "name": "",
          "type": "bytes32"
        }
      ],
      "stateMutability": "view",
      "type": "function"
    },
    {
      "inputs": [
        {
          "internalType": "address",
          "name": "",
          "type": "address"
        }
      ],
      "name": "_nonces",
      "outputs": [
        {
          "internalType": "uint256",
          "name": "",
          "type": "uint256"
        }
      ],
      "stateMutability": "view",
      "type": "function"
    },
    {
      "inputs": [
        {
          "internalType": "address",
          "name": "owner",
          "type": "address"
        },
        {
          "internalType": "address",
          "name": "spender",
          "type": "address"
        }
      ],
      "name": "allowance",
      "outputs": [
        {
          "internalType": "uint256",
          "name": "",
          "type": "uint256"
        }
      ],
      "stateMutability": "view",
      "type": "function"
    },
    {
      "inputs": [
        {
          "internalType": "address",
          "name": "spender",
          "type": "address"
        },
        {
          "internalType": "uint256",
          "name": "amount",
          "type": "uint256"
        }
      ],
      "name": "approve",
      "outputs": [
        {
          "internalType": "bool",
          "name": "",
          "type": "bool"
        }
      ],
      "stateMutability": "nonpayable",
      "type": "function"
    },
    {
      "inputs": [
        {
          "internalType": "address",
          "name": "account",
          "type": "address"
        }
      ],
      "name": "balanceOf",
      "outputs": [
        {
          "internalType": "uint256",
          "name": "",
          "type": "uint256"
        }
      ],
      "stateMutability": "view",
      "type": "function"
    },
    {
      "inputs": [
        {
          "internalType": "address",
          "name": "",
          "type": "address"
        },
        {
          "internalType": "uint32",
          "name": "",
          "type": "uint32"
        }
      ],
      "name": "checkpoints",
      "outputs": [
        {
          "internalType": "uint32",
          "name": "fromBlock",
          "type": "uint32"
        },
        {
          "internalType": "uint256",
          "name": "votes",
          "type": "uint256"
        }
      ],
      "stateMutability": "view",
      "type": "function"
    },
    {
      "inputs": [],
      "name": "decimals",
      "outputs": [
        {
          "internalType": "uint8",
          "name": "",
          "type": "uint8"
        }
      ],
      "stateMutability": "view",
      "type": "function"
    },
    {
      "inputs": [
        {
          "internalType": "address",
          "name": "spender",
          "type": "address"
        },
        {
          "internalType": "uint256",
          "name": "subtractedValue",
          "type": "uint256"
        }
      ],
      "name": "decreaseAllowance",
      "outputs": [
        {
          "internalType": "bool",
          "name": "",
          "type": "bool"
        }
      ],
      "stateMutability": "nonpayable",
      "type": "function"
    },
    {
      "inputs": [
        {
          "internalType": "address",
          "name": "delegatee",
          "type": "address"
        }
      ],
      "name": "delegate",
      "outputs": [],
      "stateMutability": "nonpayable",
      "type": "function"
    },
    {
      "inputs": [
        {
          "internalType": "address",
          "name": "delegatee",
          "type": "address"
        },
        {
          "internalType": "uint256",
          "name": "nonce",
          "type": "uint256"
        },
        {
          "internalType": "uint256",
          "name": "expiry",
          "type": "uint256"
        },
        {
          "internalType": "uint8",
          "name": "v",
          "type": "uint8"
        },
        {
          "internalType": "bytes32",
          "name": "r",
          "type": "bytes32"
        },
        {
          "internalType": "bytes32",
          "name": "s",
          "type": "bytes32"
        }
      ],
      "name": "delegateBySig",
      "outputs": [],
      "stateMutability": "nonpayable",
      "type": "function"
    },
    {
      "inputs": [
        {
          "internalType": "address",
          "name": "delegator",
          "type": "address"
        }
      ],
      "name": "delegates",
      "outputs": [
        {
          "internalType": "address",
          "name": "",
          "type": "address"
        }
      ],
      "stateMutability": "view",
      "type": "function"
    },
    {
      "inputs": [],
      "name": "eip712Domain",
      "outputs": [
        {
          "internalType": "bytes1",
          "name": "fields",
          "type": "bytes1"
        },
        {
          "internalType": "string",
          "name": "name",
          "type": "string"
        },
        {
          "internalType": "string",
          "name": "version",
          "type": "string"
        },
        {
          "internalType": "uint256",
          "name": "chainId",
          "type": "uint256"
        },
        {
          "internalType": "address",
          "name": "verifyingContract",
          "type": "address"
        },
        {
          "internalType": "bytes32",
          "name": "salt",
          "type": "bytes32"
        },
        {
          "internalType": "uint256[]",
          "name": "extensions",
          "type": "uint256[]"
        }
      ],
      "stateMutability": "view",
      "type": "function"
    },
    {
      "inputs": [
        {
          "internalType": "address",
          "name": "account",
          "type": "address"
        }
      ],
      "name": "getCurrentVotes",
      "outputs": [
        {
          "internalType": "uint256",
          "name": "",
          "type": "uint256"
        }
      ],
      "stateMutability": "view",
      "type": "function"
    },
    {
      "inputs": [
        {
          "internalType": "address",
          "name": "account",
          "type": "address"
        },
        {
          "internalType": "uint256",
          "name": "blockNumber",
          "type": "uint256"
        }
      ],
      "name": "getPriorVotes",
      "outputs": [
        {
          "internalType": "uint256",
          "name": "",
          "type": "uint256"
        }
      ],
      "stateMutability": "view",
      "type": "function"
    },
    {
      "inputs": [
        {
          "internalType": "bytes32",
          "name": "role",
          "type": "bytes32"
        }
      ],
      "name": "getRoleAdmin",
      "outputs": [
        {
          "internalType": "bytes32",
          "name": "",
          "type": "bytes32"
        }
      ],
      "stateMutability": "view",
      "type": "function"
    },
    {
      "inputs": [
        {
          "internalType": "bytes32",
          "name": "role",
          "type": "bytes32"
        },
        {
          "internalType": "address",
          "name": "account",
          "type": "address"
        }
      ],
      "name": "grantRole",
      "outputs": [],
      "stateMutability": "nonpayable",
      "type": "function"
    },
    {
      "inputs": [
        {
          "internalType": "bytes32",
          "name": "role",
          "type": "bytes32"
        },
        {
          "internalType": "address",
          "name": "account",
          "type": "address"
        }
      ],
      "name": "hasRole",
      "outputs": [
        {
          "internalType": "bool",
          "name": "",
          "type": "bool"
        }
      ],
      "stateMutability": "view",
      "type": "function"
    },
    {
      "inputs": [
        {
          "internalType": "address",
          "name": "spender",
          "type": "address"
        },
        {
          "internalType": "uint256",
          "name": "addedValue",
          "type": "uint256"
        }
      ],
      "name": "increaseAllowance",
      "outputs": [
        {
          "internalType": "bool",
          "name": "",
          "type": "bool"
        }
      ],
      "stateMutability": "nonpayable",
      "type": "function"
    },
    {
      "inputs": [],
      "name": "maxSupply",
      "outputs": [
        {
          "internalType": "uint256",
          "name": "",
          "type": "uint256"
        }
      ],
      "stateMutability": "view",
      "type": "function"
    },
    {
      "inputs": [],
      "name": "name",
      "outputs": [
        {
          "internalType": "string",
          "name": "",
          "type": "string"
        }
      ],
      "stateMutability": "view",
      "type": "function"
    },
    {
      "inputs": [
        {
          "internalType": "address",
          "name": "owner",
          "type": "address"
        }
      ],
      "name": "nonces",
      "outputs": [
        {
          "internalType": "uint256",
          "name": "",
          "type": "uint256"
        }
      ],
      "stateMutability": "view",
      "type": "function"
    },
    {
      "inputs": [
        {
          "internalType": "address",
          "name": "",
          "type": "address"
        }
      ],
      "name": "numCheckpoints",
      "outputs": [
        {
          "internalType": "uint32",
          "name": "",
          "type": "uint32"
        }
      ],
      "stateMutability": "view",
      "type": "function"
    },
    {
      "inputs": [],
      "name": "owner",
      "outputs": [
        {
          "internalType": "address",
          "name": "",
          "type": "address"
        }
      ],
      "stateMutability": "view",
      "type": "function"
    },
    {
      "inputs": [
        {
          "internalType": "address",
          "name": "owner",
          "type": "address"
        },
        {
          "internalType": "address",
          "name": "spender",
          "type": "address"
        },
        {
          "internalType": "uint256",
          "name": "value",
          "type": "uint256"
        },
        {
          "internalType": "uint256",
          "name": "deadline",
          "type": "uint256"
        },
        {
          "internalType": "uint8",
          "name": "v",
          "type": "uint8"
        },
        {
          "internalType": "bytes32",
          "name": "r",
          "type": "bytes32"
        },
        {
          "internalType": "bytes32",
          "name": "s",
          "type": "bytes32"
        }
      ],
      "name": "permit",
      "outputs": [],
      "stateMutability": "nonpayable",
      "type": "function"
    },
    {
      "inputs": [],
      "name": "renounceOwnership",
      "outputs": [],
      "stateMutability": "nonpayable",
      "type": "function"
    },
    {
      "inputs": [
        {
          "internalType": "bytes32",
          "name": "role",
          "type": "bytes32"
        },
        {
          "internalType": "address",
          "name": "account",
          "type": "address"
        }
      ],
      "name": "renounceRole",
      "outputs": [],
      "stateMutability": "nonpayable",
      "type": "function"
    },
    {
      "inputs": [
        {
          "internalType": "bytes32",
          "name": "role",
          "type": "bytes32"
        },
        {
          "internalType": "address",
          "name": "account",
          "type": "address"
        }
      ],
      "name": "revokeRole",
      "outputs": [],
      "stateMutability": "nonpayable",
      "type": "function"
    },
    {
      "inputs": [
        {
          "internalType": "bytes4",
          "name": "interfaceId",
          "type": "bytes4"
        }
      ],
      "name": "supportsInterface",
      "outputs": [
        {
          "internalType": "bool",
          "name": "",
          "type": "bool"
        }
      ],
      "stateMutability": "view",
      "type": "function"
    },
    {
      "inputs": [],
      "name": "symbol",
      "outputs": [
        {
          "internalType": "string",
          "name": "",
          "type": "string"
        }
      ],
      "stateMutability": "view",
      "type": "function"
    },
    {
      "inputs": [],
      "name": "totalSupply",
      "outputs": [
        {
          "internalType": "uint256",
          "name": "",
          "type": "uint256"
        }
      ],
      "stateMutability": "view",
      "type": "function"
    },
    {
      "inputs": [
        {
          "internalType": "address",
          "name": "to",
          "type": "address"
        },
        {
          "internalType": "uint256",
          "name": "amount",
          "type": "uint256"
        }
      ],
      "name": "transfer",
      "outputs": [
        {
          "internalType": "bool",
          "name": "",
          "type": "bool"
        }
      ],
      "stateMutability": "nonpayable",
      "type": "function"
    },
    {
      "inputs": [
        {
          "internalType": "address",
          "name": "from",
          "type": "address"
        },
        {
          "internalType": "address",
          "name": "to",
          "type": "address"
        },
        {
          "internalType": "uint256",
          "name": "amount",
          "type": "uint256"
        }
      ],
      "name": "transferFrom",
      "outputs": [
        {
          "internalType": "bool",
          "name": "",
          "type": "bool"
        }
      ],
      "stateMutability": "nonpayable",
      "type": "function"
    },
    {
      "inputs": [
        {
          "internalType": "address",
          "name": "newOwner",
          "type": "address"
        }
      ],
      "name": "transferOwnership",
      "outputs": [],
      "stateMutability": "nonpayable",
      "type": "function"
    }
  ],
  "bytecode": "0x6101606040523480156200001257600080fd5b5060405162002d6738038062002d678339810160408190526200003591620004f8565b6040518060400160405280600381526020016214141560ea1b81525080604051806040016040528060018152602001603160f81b815250604051806040016040528060098152602001682837b8102a37b5b2b760b91b8152506040518060400160405280600381526020016214141560ea1b8152508160039080519060200190620000c292919062000452565b508051620000d890600490602084019062000452565b505050620000f5620000ef620001e760201b60201c565b620001eb565b620001106007836200023d60201b620010d91790919060201c565b610120526200012d8160086200023d602090811b620010d917901c565b61014052815160208084019190912060e052815190820120610100524660a052620001bb60e05161010051604080517f8b73c3c69bb8fe3d512ecc4cf759cc79239f7b179b0ffacaa9a75d522b39400f60208201529081019290925260608201524660808201523060a082015260009060c00160405160208183030381529060405280519060200120905090565b60805250503060c05250620001d260003362000291565b620001de3382620002a1565b600b55620005f0565b3390565b600580546001600160a01b038381166001600160a01b0319831681179093556040519116919082907f8be0079c531659141344cd1fd0a4f28419497f9722a3daafe3b4186f6b6457e090600090a35050565b60006020835110156200025d57620002558362000368565b90506200028b565b826200027483620003ab60201b620011101760201c565b815162000285926020019062000452565b5060ff90505b92915050565b6200029d8282620003ae565b5050565b6001600160a01b038216620002fd5760405162461bcd60e51b815260206004820152601f60248201527f45524332303a206d696e7420746f20746865207a65726f20616464726573730060448201526064015b60405180910390fd5b806002600082825462000311919062000512565b90915550506001600160a01b038216600081815260208181526040808320805486019055518481527fddf252ad1be2c89b69c2b068fc378daa952ba7f163c4a11628f55a4df523b3ef910160405180910390a35050565b600080829050601f8151111562000396578260405163305a27a960e01b8152600401620002f4919062000539565b8051620003a38262000591565b179392505050565b90565b60008281526006602090815260408083206001600160a01b038516845290915290205460ff166200029d5760008281526006602090815260408083206001600160a01b03851684529091529020805460ff191660011790556200040e3390565b6001600160a01b0316816001600160a01b0316837f2f8788117e7eff1d82e926ec794901d17c78024a50270940304540a733656f0d60405160405180910390a45050565b8280546200046090620005b9565b90600052602060002090601f016020900481019282620004845760008555620004cf565b82601f106200049f57805160ff1916838001178555620004cf565b82800160010185558215620004cf579182015b82811115620004cf578251825591602001919060010190620004b2565b50620004dd929150620004e1565b5090565b5b80821115620004dd5760008155600101620004e2565b6000602082840312156200050b57600080fd5b5051919050565b600082198211156200053457634e487b7160e01b600052601160045260246000fd5b500190565b600060208083528351808285015260005b8181101562000568578581018301518582016040015282016200054a565b818111156200057b576000604083870101525b50601f01601f1916929092016040019392505050565b80516020808301519190811015620005b3576000198160200360031b1b821691505b50919050565b600181811c90821680620005ce57607f821691505b60208210811415620005b357634e487b7160e01b600052602260045260246000fd5b60805160a05160c05160e05161010051610120516101405161271c6200064b6000396000610a6801526000610a3d015260006115bf01526000611597015260006114f20152600061151c01526000611546015261271c6000f3fe608060405234801561001057600080fd5b506004361061021c5760003560e01c80637ecebe0011610125578063b9844d8d116100ad578063d5abeb011161007c578063d5abeb01146104fc578063dd62ed3e14610505578063e7a324dc14610518578063f1127ed81461053f578063f2fde38b1461059657600080fd5b8063b9844d8d146104a3578063c3cda520146104c3578063d505accf146104d6578063d547741f146104e957600080fd5b806395d89b41116100f457806395d89b411461045a578063a217fddf14610462578063a457c2d71461046a578063a9059cbb1461047d578063b4b5ea571461049057600080fd5b80637ecebe001461040857806384b0196e1461041b5780638da5cb5b1461043657806391d148541461044757600080fd5b80633644e515116101a85780635c19a95c116101775780635c19a95c146103765780636fcfff451461038957806370a08231146103c4578063715018a6146103ed578063782d6fe1146103f557600080fd5b80633644e5151461030457806336568abe1461030c578063395093511461031f578063587cde1e1461033257600080fd5b806320606b70116101ef57806320606b701461028357806323b872dd146102aa578063248a9ca3146102bd5780632f2ff15d146102e0578063313ce567146102f557600080fd5b806301ffc9a71461022157806306fdde0314610249578063095ea7b31461025e57806318160ddd14610271575b600080fd5b61023461022f366004612145565b6105a9565b60405190151581526020015b60405180910390f35b6102516105e0565b60405161024091906121c7565b61023461026c3660046121f6565b610672565b6002545b604051908152602001610240565b6102757f8cad95687ba82c2ce50e74f7b754645e5117c3a5bec8151c0726d5857980a86681565b6102346102b8366004612220565b61068a565b6102756102cb36600461225c565b60009081526006602052604090206001015490565b6102f36102ee366004612275565b6106ae565b005b60405160128152602001610240565b6102756106d8565b6102f361031a366004612275565b6106e7565b61023461032d3660046121f6565b61076a565b61035e6103403660046122a1565b6001600160a01b039081166000908152600c60205260409020541690565b6040516001600160a01b039091168152602001610240565b6102f36103843660046122a1565b61078c565b6103af6103973660046122a1565b600e6020526000908152604090205463ffffffff1681565b60405163ffffffff9091168152602001610240565b6102756103d23660046122a1565b6001600160a01b031660009081526020819052604090205490565b6102f3610799565b6102756104033660046121f6565b6107ad565b6102756104163660046122a1565b610a11565b610423610a2f565b60405161024097969594939291906122bc565b6005546001600160a01b031661035e565b610234610455366004612275565b610ab8565b610251610ae3565b610275600081565b6102346104783660046121f6565b610af2565b61023461048b3660046121f6565b610b6d565b61027561049e3660046122a1565b610b7b565b6102756104b13660046122a1565b600f6020526000908152604090205481565b6102f36104d1366004612363565b610bf0565b6102f36104e43660046123bb565b610ebb565b6102f36104f7366004612275565b611013565b610275600b5481565b610275610513366004612425565b611038565b6102757fe48329057bfd03d55e49b547132e39cffd9c1820ad7b9d4c5307691425d15adf81565b61057a61054d36600461244f565b600d6020908152600092835260408084209091529082529020805460019091015463ffffffff9091169082565b6040805163ffffffff9093168352602083019190915201610240565b6102f36105a43660046122a1565b611063565b60006001600160e01b03198216637965db0b60e01b14806105da57506301ffc9a760e01b6001600160e01b03198316145b92915050565b6060600380546105ef9061248f565b80601f016020809104026020016040519081016040528092919081815260200182805461061b9061248f565b80156106685780601f1061063d57610100808354040283529160200191610668565b820191906000526020600020905b81548152906001019060200180831161064b57829003601f168201915b5050505050905090565b600033610680818585611113565b5060019392505050565b600033610698858285611237565b6106a38585856112b1565b506001949350505050565b6000828152600660205260409020600101546106c981611455565b6106d3838361145f565b505050565b60006106e26114e5565b905090565b6001600160a01b038116331461075c5760405162461bcd60e51b815260206004820152602f60248201527f416363657373436f6e74726f6c3a2063616e206f6e6c792072656e6f756e636560448201526e103937b632b9903337b91039b2b63360891b60648201526084015b60405180910390fd5b6107668282611610565b5050565b60003361068081858561077d8383611038565b61078791906124da565b611113565b6107963382611677565b50565b6107a16116f0565b6107ab600061174a565b565b600043821061080d5760405162461bcd60e51b815260206004820152602660248201527f5050543a3a6765745072696f72566f7465733a206e6f742079657420646574656044820152651c9b5a5b995960d21b6064820152608401610753565b6001600160a01b0383166000908152600e602052604090205463ffffffff168061083b5760009150506105da565b6001600160a01b0384166000908152600d6020526040812084916108606001856124f2565b63ffffffff908116825260208201929092526040016000205416116108c9576001600160a01b0384166000908152600d60205260408120906108a36001846124f2565b63ffffffff1663ffffffff168152602001908152602001600020600101549150506105da565b6001600160a01b0384166000908152600d6020908152604080832083805290915290205463ffffffff168310156109045760009150506105da565b6000806109126001846124f2565b90505b8163ffffffff168163ffffffff1611156109da576000600261093784846124f2565b6109419190612517565b61094b90836124f2565b6001600160a01b0388166000908152600d6020908152604080832063ffffffff80861685529083529281902081518083019092528054909316808252600190930154918101919091529192508714156109ae576020015194506105da9350505050565b805163ffffffff168711156109c5578193506109d3565b6109d06001836124f2565b92505b5050610915565b506001600160a01b0385166000908152600d6020908152604080832063ffffffff9094168352929052206001015491505092915050565b6001600160a01b0381166000908152600960205260408120546105da565b600060608082808083610a637f0000000000000000000000000000000000000000000000000000000000000000600761179c565b610a8e7f0000000000000000000000000000000000000000000000000000000000000000600861179c565b60408051600080825260208201909252600f60f81b9b939a50919850469750309650945092509050565b60009182526006602090815260408084206001600160a01b0393909316845291905290205460ff1690565b6060600480546105ef9061248f565b60003381610b008286611038565b905083811015610b605760405162461bcd60e51b815260206004820152602560248201527f45524332303a2064656372656173656420616c6c6f77616e63652062656c6f77604482015264207a65726f60d81b6064820152608401610753565b6106a38286868403611113565b6000336106808185856112b1565b6001600160a01b0381166000908152600e602052604081205463ffffffff1680610ba6576000610be9565b6001600160a01b0383166000908152600d6020526040812090610bca6001846124f2565b63ffffffff1663ffffffff168152602001908152602001600020600101545b9392505050565b60007f8cad95687ba82c2ce50e74f7b754645e5117c3a5bec8151c0726d5857980a866610c1b6105e0565b80519060200120610c294690565b60408051602080820195909552808201939093526060830191909152306080808401919091528151808403909101815260a0830182528051908401207fe48329057bfd03d55e49b547132e39cffd9c1820ad7b9d4c5307691425d15adf60c08401526001600160a01b038b1660e084015261010083018a90526101208084018a90528251808503909101815261014084019092528151919093012061190160f01b610160830152610162820183905261018282018190529192506000906101a20160408051601f198184030181528282528051602091820120600080855291840180845281905260ff8a169284019290925260608301889052608083018790529092509060019060a0016020604051602081039080840390855afa158015610d55573d6000803e3d6000fd5b5050604051601f1901519150506001600160a01b038116610dc65760405162461bcd60e51b815260206004820152602560248201527f5050543a3a64656c656761746542795369673a20696e76616c6964207369676e604482015264617475726560d81b6064820152608401610753565b6001600160a01b0381166000908152600f60205260408120805491610dea8361255e565b919050558914610e465760405162461bcd60e51b815260206004820152602160248201527f5050543a3a64656c656761746542795369673a20696e76616c6964206e6f6e636044820152606560f81b6064820152608401610753565b87421115610ea45760405162461bcd60e51b815260206004820152602560248201527f5050543a3a64656c656761746542795369673a207369676e61747572652065786044820152641c1a5c995960da1b6064820152608401610753565b610eae818b611677565b505050505b505050505050565b83421115610f0b5760405162461bcd60e51b815260206004820152601d60248201527f45524332305065726d69743a206578706972656420646561646c696e650000006044820152606401610753565b60007f6e71edae12b1b97f4d1f60370fef10105fa2faae0126114a169c64845d6126c9888888610f3a8c611840565b6040805160208101969096526001600160a01b0394851690860152929091166060840152608083015260a082015260c0810186905260e0016040516020818303038152906040528051906020012090506000610f9582611868565b90506000610fa582878787611895565b9050896001600160a01b0316816001600160a01b0316146110085760405162461bcd60e51b815260206004820152601e60248201527f45524332305065726d69743a20696e76616c6964207369676e617475726500006044820152606401610753565b610eae8a8a8a611113565b60008281526006602052604090206001015461102e81611455565b6106d38383611610565b6001600160a01b03918216600090815260016020908152604080832093909416825291909152205490565b61106b6116f0565b6001600160a01b0381166110d05760405162461bcd60e51b815260206004820152602660248201527f4f776e61626c653a206e6577206f776e657220697320746865207a65726f206160448201526564647265737360d01b6064820152608401610753565b6107968161174a565b60006020835110156110f5576110ee836118bd565b90506105da565b8282815161110692602001906120ac565b5060ff90506105da565b90565b6001600160a01b0383166111755760405162461bcd60e51b8152602060048201526024808201527f45524332303a20617070726f76652066726f6d20746865207a65726f206164646044820152637265737360e01b6064820152608401610753565b6001600160a01b0382166111d65760405162461bcd60e51b815260206004820152602260248201527f45524332303a20617070726f766520746f20746865207a65726f206164647265604482015261737360f01b6064820152608401610753565b6001600160a01b0383811660008181526001602090815260408083209487168084529482529182902085905590518481527f8c5be1e5ebec7d5bd14f71427d1e84f3dd0314c0f7b2291e5b200ac8c7c3b925910160405180910390a3505050565b60006112438484611038565b905060001981146112ab578181101561129e5760405162461bcd60e51b815260206004820152601d60248201527f45524332303a20696e73756666696369656e7420616c6c6f77616e63650000006044820152606401610753565b6112ab8484848403611113565b50505050565b6001600160a01b0383166113155760405162461bcd60e51b815260206004820152602560248201527f45524332303a207472616e736665722066726f6d20746865207a65726f206164604482015264647265737360d81b6064820152608401610753565b6001600160a01b0382166113775760405162461bcd60e51b815260206004820152602360248201527f45524332303a207472616e7366657220746f20746865207a65726f206164647260448201526265737360e81b6064820152608401610753565b6001600160a01b038316600090815260208190526040902054818110156113ef5760405162461bcd60e51b815260206004820152602660248201527f45524332303a207472616e7366657220616d6f756e7420657863656564732062604482015265616c616e636560d01b6064820152608401610753565b6001600160a01b03848116600081815260208181526040808320878703905593871680835291849020805487019055925185815290927fddf252ad1be2c89b69c2b068fc378daa952ba7f163c4a11628f55a4df523b3ef910160405180910390a36112ab565b61079681336118fb565b6114698282610ab8565b6107665760008281526006602090815260408083206001600160a01b03851684529091529020805460ff191660011790556114a13390565b6001600160a01b0316816001600160a01b0316837f2f8788117e7eff1d82e926ec794901d17c78024a50270940304540a733656f0d60405160405180910390a45050565b6000306001600160a01b037f00000000000000000000000000000000000000000000000000000000000000001614801561153e57507f000000000000000000000000000000000000000000000000000000000000000046145b1561156857507f000000000000000000000000000000000000000000000000000000000000000090565b6106e2604080517f8b73c3c69bb8fe3d512ecc4cf759cc79239f7b179b0ffacaa9a75d522b39400f60208201527f0000000000000000000000000000000000000000000000000000000000000000918101919091527f000000000000000000000000000000000000000000000000000000000000000060608201524660808201523060a082015260009060c00160405160208183030381529060405280519060200120905090565b61161a8282610ab8565b156107665760008281526006602090815260408083206001600160a01b0385168085529252808320805460ff1916905551339285917ff6391f5c32d9c69d2a47ea670b442974b53935d1edc7fd64eb21e047a839171b9190a45050565b6001600160a01b038281166000818152600c60208181526040808420805485845282862054949093528787166001600160a01b03198416811790915590519190951694919391928592917f3134e8a2e6d97e929a7e54011ea5485d7d196dd5f0ba4d4ef95803e8e3fc257f9190a46112ab828483611954565b6005546001600160a01b031633146107ab5760405162461bcd60e51b815260206004820181905260248201527f4f776e61626c653a2063616c6c6572206973206e6f7420746865206f776e65726044820152606401610753565b600580546001600160a01b038381166001600160a01b0319831681179093556040519116919082907f8be0079c531659141344cd1fd0a4f28419497f9722a3daafe3b4186f6b6457e090600090a35050565b606060ff83146117af576110ee83611ab3565b8180546117bb9061248f565b80601f01602080910402602001604051908101604052809291908181526020018280546117e79061248f565b80156118345780601f1061180957610100808354040283529160200191611834565b820191906000526020600020905b81548152906001019060200180831161181757829003601f168201915b505050505090506105da565b6001600160a01b03811660009081526009602052604090208054600181018255905b50919050565b60006105da6118756114e5565b8360405161190160f01b8152600281019290925260228201526042902090565b60008060006118a687878787611af2565b915091506118b381611bb6565b5095945050505050565b600080829050601f815111156118e8578260405163305a27a960e01b815260040161075391906121c7565b80516118f382612579565b179392505050565b6119058282610ab8565b6107665761191281611d04565b61191d836020611d16565b60405160200161192e92919061259d565b60408051601f198184030181529082905262461bcd60e51b8252610753916004016121c7565b816001600160a01b0316836001600160a01b0316141580156119765750600081115b156106d3576001600160a01b03831615611a19576001600160a01b0383166000908152600e602052604081205463ffffffff1690816119b65760006119f9565b6001600160a01b0385166000908152600d60205260408120906119da6001856124f2565b63ffffffff1663ffffffff168152602001908152602001600020600101545b90506000611a078483612612565b9050611a1586848484611eb2565b5050505b6001600160a01b038216156106d3576001600160a01b0382166000908152600e602052604081205463ffffffff169081611a54576000611a97565b6001600160a01b0384166000908152600d6020526040812090611a786001856124f2565b63ffffffff1663ffffffff168152602001908152602001600020600101545b90506000611aa584836124da565b9050610eb385848484611eb2565b60606000611ac083612054565b604080516020808252818301909252919250600091906020820181803683375050509182525060208101929092525090565b6000807f7fffffffffffffffffffffffffffffff5d576e7357a4501ddfe92f46681b20a0831115611b295750600090506003611bad565b6040805160008082526020820180845289905260ff881692820192909252606081018690526080810185905260019060a0016020604051602081039080840390855afa158015611b7d573d6000803e3d6000fd5b5050604051601f1901519150506001600160a01b038116611ba657600060019250925050611bad565b9150600090505b94509492505050565b6000816004811115611bca57611bca612629565b1415611bd35750565b6001816004811115611be757611be7612629565b1415611c355760405162461bcd60e51b815260206004820152601860248201527f45434453413a20696e76616c6964207369676e617475726500000000000000006044820152606401610753565b6002816004811115611c4957611c49612629565b1415611c975760405162461bcd60e51b815260206004820152601f60248201527f45434453413a20696e76616c6964207369676e6174757265206c656e677468006044820152606401610753565b6003816004811115611cab57611cab612629565b14156107965760405162461bcd60e51b815260206004820152602260248201527f45434453413a20696e76616c6964207369676e6174757265202773272076616c604482015261756560f01b6064820152608401610753565b60606105da6001600160a01b03831660145b60606000611d2583600261263f565b611d309060026124da565b67ffffffffffffffff811115611d4857611d48612548565b6040519080825280601f01601f191660200182016040528015611d72576020820181803683370190505b509050600360fc1b81600081518110611d8d57611d8d61265e565b60200101906001600160f81b031916908160001a905350600f60fb1b81600181518110611dbc57611dbc61265e565b60200101906001600160f81b031916908160001a9053506000611de084600261263f565b611deb9060016124da565b90505b6001811115611e63576f181899199a1a9b1b9c1cb0b131b232b360811b85600f1660108110611e1f57611e1f61265e565b1a60f81b828281518110611e3557611e3561265e565b60200101906001600160f81b031916908160001a90535060049490941c93611e5c81612674565b9050611dee565b508315610be95760405162461bcd60e51b815260206004820181905260248201527f537472696e67733a20686578206c656e67746820696e73756666696369656e746044820152606401610753565b6000611ed6436040518060600160405280603381526020016126b46033913961207c565b905060008463ffffffff16118015611f3057506001600160a01b0385166000908152600d6020526040812063ffffffff831691611f146001886124f2565b63ffffffff908116825260208201929092526040016000205416145b15611f79576001600160a01b0385166000908152600d602052604081208391611f5a6001886124f2565b63ffffffff168152602081019190915260400160002060010155612009565b60408051808201825263ffffffff838116825260208083018681526001600160a01b038a166000908152600d83528581208a851682529092529390209151825463ffffffff191691161781559051600191820155611fd890859061268b565b6001600160a01b0386166000908152600e60205260409020805463ffffffff191663ffffffff929092169190911790555b60408051848152602081018490526001600160a01b038716917fdec2bacdd2f05b59de34da9b523dff8be42e5e38e818c82fdb0bae774387a724910160405180910390a25050505050565b600060ff8216601f8111156105da57604051632cd44ac360e21b815260040160405180910390fd5b60008164010000000084106120a45760405162461bcd60e51b815260040161075391906121c7565b509192915050565b8280546120b89061248f565b90600052602060002090601f0160209004810192826120da5760008555612120565b82601f106120f357805160ff1916838001178555612120565b82800160010185558215612120579182015b82811115612120578251825591602001919060010190612105565b5061212c929150612130565b5090565b5b8082111561212c5760008155600101612131565b60006020828403121561215757600080fd5b81356001600160e01b031981168114610be957600080fd5b60005b8381101561218a578181015183820152602001612172565b838111156112ab5750506000910152565b600081518084526121b381602086016020860161216f565b601f01601f19169290920160200192915050565b602081526000610be9602083018461219b565b80356001600160a01b03811681146121f157600080fd5b919050565b6000806040838503121561220957600080fd5b612212836121da565b946020939093013593505050565b60008060006060848603121561223557600080fd5b61223e846121da565b925061224c602085016121da565b9150604084013590509250925092565b60006020828403121561226e57600080fd5b5035919050565b6000806040838503121561228857600080fd5b82359150612298602084016121da565b90509250929050565b6000602082840312156122b357600080fd5b610be9826121da565b60ff60f81b881681526000602060e0818401526122dc60e084018a61219b565b83810360408501526122ee818a61219b565b606085018990526001600160a01b038816608086015260a0850187905284810360c0860152855180825283870192509083019060005b8181101561234057835183529284019291840191600101612324565b50909c9b505050505050505050505050565b803560ff811681146121f157600080fd5b60008060008060008060c0878903121561237c57600080fd5b612385876121da565b955060208701359450604087013593506123a160608801612352565b92506080870135915060a087013590509295509295509295565b600080600080600080600060e0888a0312156123d657600080fd5b6123df886121da565b96506123ed602089016121da565b9550604088013594506060880135935061240960808901612352565b925060a0880135915060c0880135905092959891949750929550565b6000806040838503121561243857600080fd5b612441836121da565b9150612298602084016121da565b6000806040838503121561246257600080fd5b61246b836121da565b9150602083013563ffffffff8116811461248457600080fd5b809150509250929050565b600181811c908216806124a357607f821691505b6020821081141561186257634e487b7160e01b600052602260045260246000fd5b634e487b7160e01b600052601160045260246000fd5b600082198211156124ed576124ed6124c4565b500190565b600063ffffffff8381169083168181101561250f5761250f6124c4565b039392505050565b600063ffffffff8084168061253c57634e487b7160e01b600052601260045260246000fd5b92169190910492915050565b634e487b7160e01b600052604160045260246000fd5b6000600019821415612572576125726124c4565b5060010190565b805160208083015191908110156118625760001960209190910360031b1b16919050565b7f416363657373436f6e74726f6c3a206163636f756e74200000000000000000008152600083516125d581601785016020880161216f565b7001034b99036b4b9b9b4b733903937b6329607d1b601791840191820152835161260681602884016020880161216f565b01602801949350505050565b600082821015612624576126246124c4565b500390565b634e487b7160e01b600052602160045260246000fd5b6000816000190483118215151615612659576126596124c4565b500290565b634e487b7160e01b600052603260045260246000fd5b600081612683576126836124c4565b506000190190565b600063ffffffff8083168185168083038211156126aa576126aa6124c4565b0194935050505056fe5050543a3a5f7772697465436865636b706f696e743a20626c6f636b206e756d62657220657863656564732033322062697473a26469706673582212203c49c5b239e540280c4d8558681dea07fd376ceb537b60e66dfbe4ce938cf39864736f6c634300080a0033",
  "linkReferences": {},
  "deployedLinkReferences": {}
}